:0400000080317528AE
:100008007E14803120007F08F1000B198B1E3B28DD
:1000180001302300B2070030B33D3308803AF000C6
:1000280080307002031D1A2803303202031C27286F
:1000380001302300AE000030AF00B201B30101303F
:10004800B4070030B53D23003508803AF000A730EA
:100058007002031D312810303402031C3A28013085
:100068002300B0000030B100B401B5010B1121002C
:10007800911C48282000911C482801302300AE001C
:100088000030AF00200091102000111E68282100C8
:10009800111E68287A08A03E8600023087000108F1
:1000A800031963287A08A03E8600023087000108F9
:1000B80023009A000130FA070030FB3D6828FA0156
:1000C800FB01AB311C2380312000911D70282100D9
:1000D800911D70282000911171082000FF007E10EA
:1000E800090080317728BC308400AB308500CD30E2
:1000F80086000130870013308731F8278031FA01F4
:10010800FB012200EB01EC01A030840001308500E6
:100118002D30933101238031203084000230850056
:100128004830933101238031A030840002308500AB
:100138003230933101238031203084000330850030
:100148005030933101237E1020009C31FC2C21007B
:10015800B400B41F402AB409B40A3408803A123EE5
:10016800031C9B290A302000A0000030A1002100B8
:100178003408F400F501F41BF5036430F200003094
:10018800F300AE312126803173082000A3007208E5
:10019800A200AF3107278031200020082100A000ED
:1001A800200021082100A100A035A10DA035A10D36
:1001B8002008243EA2000030213DA300343022074D
:1001C8008400B030233D8500003FA400013FA50016
:1001D800023FA600033FA70027082000D500210002
:1001E80026082000D400210025082000D300210083
:1001F80024082000D2006430A0000030A1002100B3
:1002080034082000A200A301A21BA303AF310727D3
:100218008031200020082100A800200021082100AA
:10022800A900A835A90DA835A90D2808483EAA0097
:100238000030293DAB0034302A078400B0302B3D14
:100248008500003FAC00013FAD00023FAE00033F18
:10025800AF002F082000D90021002E082000D80068
:1002680021002D082000D70021002C082000D600EE
:100278008331D0238031200055082100B3002000AD
:1002880054082100B200200053082100B1002000CA
:1002980052082100B0000A30F2000030F3003408A0
:1002A800F400F501F41BF503AE3121268031730803
:1002B8008500720884008435850D8435850D3430B9
:1002C8008407B030853D003F2100A000013FA10018
:1002D800023FA200033FA30023082000D50021000D
:1002E80022082000D400210021082000D30021008A
:1002F80020082000D200210033082000D900210066
:1003080032082000D800210031082000D700210041
:1003180030082000D6008331D02320005508EF0094
:100328005408EE005308ED005208EC0008002100C4
:100338003408803A753E031C1A2A0A30F20000304D
:10034800F3003408F400F501F41BF503AE3121265F
:10035800803173088500720884008435850D8435E2
:10036800850D34308407B030853D003F2100A00062
:10037800013FA100023FA200033FA3002308200081
:10038800D500210022082000D400210021082000E7
:10039800D300210020082000D2000A30A00000303D
:1003A800A100210034082000A200A301A21BA3037E
:1003B800AF3107278031200020082100A400200049
:1003C80021082100A500A435A50DA435A50D2408F4
:1003D800243EA6000030253DA700343026078400BF
:1003E800B030273D8500003FA800013FA900023F2B
:1003F800AA00033FAB002B082000D90021002A08DF
:100408002000D800210029082000D7002100280852
:100418002000D6008331D02320005508EF0054086F
:10042800EE005308ED005208EC00080021003408E3
:10043800A000A101A035A10DA035A10D34302007E1
:100448008400B030213D8500003FA200013FA30099
:10045800023FA400033FA50025082000EF0021006B
:1004680024082000EE00210023082000ED002100D0
:1004780022082000EC00080021003408803A123ECF
:10048800031C2B2B0A302000A0000030A100210003
:100498003408F400F501F41BF5036430F200003071
:1004A800F300AE312126803173082000A3007208C2
:1004B800A200AF3107278031200020082100A000CA
:1004C800200021082100A100A035A10DA035A10D13
:1004D8002008243EA2000030213DA300003022075E
:1004E8008400B030233D8500003FA400013FA500F3
:1004F800023FA600033FA70027082000D5002100DF
:1005080026082000D400210025082000D30021005F
:1005180024082000D2006430A0000030A10021008F
:1005280034082000A200A301A21BA303AF310727B0
:100538008031200020082100A80020002108210087
:10054800A900A835A90DA835A90D2808483EAA0074
:100558000030293DAB0000302A078400B0302B3D25
:100568008500003FAC00013FAD00023FAE00033FF5
:10057800AF002F082000D90021002E082000D80045
:1005880021002D082000D70021002C082000D600CB
:100598008331D0238031200055082100B30020008A
:1005A80054082100B200200053082100B1002000A7
:1005B80052082100B0000A30F2000030F30034087D
:1005C800F400F501F41BF503AE31212680317308E0
:1005D8008500720884008435850D8435850D0030CA
:1005E8008407B030853D003F2100A000013FA100F5
:1005F800023FA200033FA30023082000D5002100EA
:1006080022082000D400210021082000D300210066
:1006180020082000D200210033082000D900210042
:1006280032082000D800210031082000D70021001E
:1006380030082000D6008331D02320005508EF0071
:100648005408EE005308ED005208EC0008002100A1
:100658003408803A753E031CAA2B0A30F200003099
:10066800F3003408F400F501F41BF503AE3121263C
:10067800803173088500720884008435850D8435BF
:10068800850D00308407B030853D003F2100A00073
:10069800013FA100023FA200033FA300230820005E
:1006A800D500210022082000D400210021082000C4
:1006B800D300210020082000D2000A30A00000301A
:1006C800A100210034082000A200A301A21BA3035B
:1006D800AF3107278031200020082100A400200026
:1006E80021082100A500A435A50DA435A50D2408D1
:1006F800243EA6000030253DA700003026078400D0
:10070800B030273D8500003FA800013FA900023F07
:10071800AA00033FAB002B082000D90021002A08BB
:100728002000D800210029082000D700210028082F
:100738002000D6008331D02320005508EF0054084C
:10074800EE005308ED005208EC00080021003408C0
:10075800A000A101A035A10DA035A10D00302007F2
:100768008400B030213D8500003FA200013FA30076
:10077800023FA400033FA50025082000EF00210048
:1007880024082000EE00210023082000ED002100AD
:1007980022082000EC000800200055088039DA0003
:1007A8005A08DF005535DA005A08E500D41B6514ED
:1007B80065080319EC2B650A031DEA2B0030D500E8
:1007C8000030D4000030D3000030D200D417F42B0E
:1007D8000030D5000030D4000030D3000030D20003
:1007E80059088039DA005A08DF065935DA005A08FC
:1007F800E000D81B6014600803190F2C600A031D61
:100808000D2C0030D9000030D8000030D70000305F
:10081800D600D817172C0030D9000030D800003087
:10082800D7000030D6006008031D6508031D252C7D
:100838000030D5000030D4000030D3000030D200A2
:1008480008005208DA005A08F2005808AC3121248E
:10085800833173082000EB007208EA006A08DA00A6
:10086800DB01DC01DD015D08E4005C08E3005B08F6
:10087800E2005A08E1006B08DA00DB01DC01DD0167
:100888005D08E9005C08E8005B08E7005A08E60034
:100898005308DA005A08F2005708AC312124833192
:1008A80073082000EB007208EA006A08DA00DB012E
:1008B800DC01DD015A08E1075B08E23D5C08E33D25
:1008C8005D08E43D6B08DA00DB01DC01DD015A0854
:1008D800E6075B08E73D5C08E83D5D08E93D54082C
:1008E800DA005A08F2005608AC3121248331730823
:1008F8002000EB007208EA006A08DA00DB01DC017C
:10090800DD015A08E1075B08E23D5C08E33D5D084C
:10091800E43D6B08DA00DB01DC01DD015A08E6077B
:100928005B08E73D5C08E83D5D08E93D0830E135D6
:10093800E20DE30DE40D890B9B2C5308DA005A08ED
:10094800F2005608AC312124833173082000EB00F3
:100958007208EA006A08E1076B08E23D0030E33DEF
:10096800E43D5208DA005A08F2005708AC31212455
:10097800833173082000EB007208EA006A08E10777
:100988006B08E23D0030E33DE43D0830E135E20D1F
:10099800E30DE40D890BCA2C5208DA005A08F2005C
:1009A8005608AC312124833173082000EB0072080B
:1009B800EA006A08E1076B08E23D0030E33DE43DE8
:1009C8005308DA005A08F2005808AC312124833160
:1009D80073082000EB007208EA006A08E6076B0853
:1009E800E73D0030E83DE93D5408DA005A08F200D6
:1009F8005708AC312124833173082000EB007208BA
:100A0800EA006A08E6076B08E73D0030E83DE93D83
:100A18005408DA005A08F2005808AC31212483310E
:100A280073082000EB007208EA006A08DA006B0815
:100A3800DB00DC01DD010830DA35DB0DDC0DDD0D16
:100A4800890B202D5A08E6075B08E73D5C08E83D5E
:100A58005D08E93D6108DA006208DB006308DC0034
:100A68006408DD001830DD36DC0CDB0CDA0C890B91
:100A7800372D5A08E6075B08E73D5C08E83D5D0846
:100A8800E93D0830E135E20DE30DE40D890B462D13
:100A980065086007DA00DB01DB0D5A08823EEA00D0
:100AA800FF305B3DEB00E81B6E2D0130E635E70DAE
:100AB800E80DE90D890B5A2DE41B66140130E13568
:100AC800E20DE30DE40D890B632DFF30EA07FF30DB
:100AD800EB3D572DE001E41F872DFF306105DA005B
:100AE800FF306205DB00FF306305DC007F30640502
:100AF800DD005D085C045B045A04031D852D661C3B
:100B0800872DE001E00A60080319B02D0130E607DF
:100B18000030E73D0030E83D0030E93D691CB02D6C
:100B28006608DA006708DB006808DC006908DD0091
:100B38000130DE00DD37DC0CDB0CDA0CDE0B9E2D21
:100B48005D08E9005C08E8005B08E7005A08E60071
:100B58000130EA070030EB3D6B08803ADA0080305C
:100B68005A02031DB92DFF306A02031CC52D7F30C0
:100B78002000E9008030E8000030E7000030E6009F
:100B8800EF2D20006B08803ADA0080305A02031DEE
:100B9800CF2D01306A020318DC2D00302000E90057
:100BA8000030E8000030E7000030E600DF01EF2DFC
:100BB80020006A08DA005A08E500FF30E605FF3031
:100BC800E7057F30E8050030E9056518E817653660
:100BD800DA005A08E9005F08DA005A08E9046908E7
:100BE800D5006808D4006708D3006608D20008005A
:100BF800210040088039C5004508D1004035C500AE
:100C08004508D300BF1B531453080319192E530A60
:100C1800031D162E0030C0000030BF000030BE009B
:100C28000030BD00BF17C001212E0030C0000030C9
:100C3800BF000030BE000030BD0044088039C50048
:100C48004508D20052085106031D51174435C50006
:100C58004508D200C31B521452080319412E520AE8
:100C6800031D3E2E0030C4000030C3000030C20017
:100C78000030C100C317C401492E0030C400003041
:100C8800C3000030C2000030C100530852020318EC
:100C98008F2E511F532E8030C5004508D1065308AA
:100CA800C5004508D4005208C5004508D3005408BB
:100CB800C5004508D2003D08C5004508D4004108D4
:100CC800C5004508BD005408C5004508C1003E08D8
:100CD800C5004508D4004208C5004508BE005408B0
:100CE800C5004508C2003F08C5004508D4004308B0
:100CF800C5004508BF005408C5004508C3004008A2
:100D0800C5004508D4004408C5004508C00054087B
:100D1800C5004508C400D4015308C500C601C5096B
:100D2800C609C50A0319C60A52084507C700460876
:100D38000318460AC8004808803AC90080304902AA
:100D4800031DA82E1A304702031CDC2E2100400880
:100D58003F043E043D040319B32E0130B42E003085
:100D6800C5004508D4000030C0000030BF00003086
:100D7800BE000030BD005208C5004508D300E12E72
:100D8800541CCC2E54360138C5004508D400CE2E4C
:100D98000310D40C3D18D4170130C500C037BF0C60
:100DA800BE0CBD0CC50BD22E0130C5004508D307BB
:100DB800210052085302031CC42E511B142F530840
:100DC800031DEF2E0030C0000030BF000030BE0011
:100DD8000030BD0008004108BD074208BE3D430879
:100DE800BF3D4408C03D401CA12F541C032F0310D5
:100DF800D40C54080138C5004508D400052F031049
:100E0800D40C3D18D4170130C500C037BF0CBE0C38
:100E1800BD0CC50B092F0130C5004508D307A12F0C
:100E28004008803AC5004408803A4502031D262F31
:100E380043083F02031D262F42083E02031D262FAA
:100E480041083D020318712FFF30C500FF30C6006E
:100E5800FF30C700FF30C8004108C9004208CA0077
:100E68004308CB004408CC003D09CD003E09CE0024
:100E78003F09CF004009D000CD0A0319CE0A031953
:100E8800CF0A0319D00A4D08C9074E08CA3D4F08B2
:100E9800CB3D5008CC3D4908C5074A08C63D4B081C
:100EA800C73D4C08C83D4808C0004708BF00460871
:100EB800BE004508BD008030C5004508D106D409EC
:100EC800D40A5408031D792F0130BD070030BE3DF8
:100ED8000030BF3D0030C03D792F4108BD024208B7
:100EE800BE3B4308BF3B4408C03B40083F043E04A8
:100EF8003D04031D9F2F5408031D9F2F0030C00081
:100F08000030BF000030BE000030BD0008000130D6
:100F1800BD35BE0DBF0DC00D890B8C2FD41B3D14E4
:100F2800541C982F0314992F0310D40D5308031938
:100F38009F2F0130D302BF1F8B2FD201D41FAC2F9C
:100F480054087F39031DAA2F3D1CAC2FD201D20AA9
:100F580052080319D82F0130BD070030BE3D0030BC
:100F6800BF3D0030C03D401CD82F3D08C5003E089D
:100F7800C6003F08C7004008C8000130C900C8378C
:100F8800C70CC60CC50CC90BC32F4808C0004708BE
:100F9800BF004608BE004508BD00530A0319D82FF4
:100FA8000130C5004508D307530A031D5308031D24
:100FB800E82F0030C0000030BF000030BE00003015
:100FC800BD0053080319D101531CEC2FBF17F02F94
:100FD8007F30C5004508BF055336C5004508C00029
:100FE800D11F0800C0170800FE0012001E00FE0BEB
:040FF800F92F003499
:101000008E30210095008B16080000302100550518
:10101000DD0000305605DE0080305705DF007F30F0
:101020005805E00060085F045E045D04031D20288D
:101030000030D8000030D7000030D6000030D50096
:1010400000305905DD0000305A05DE0080305B05B8
:10105000DF007F305C05E00060085F045E045D0433
:10106000031D3A280030DC000030DB000030DA00DD
:101070000030D900D81F63280030DD000030DE00CA
:101080000030DF008030E0005509E1005609E20041
:101090005709E3005809E400E10A0319E20A0319B9
:1010A000E30A0319E40A6108DD076208DE3D63080C
:1010B000DF3D6408E03D6008D8005F08D7005E08A7
:1010C000D6005D08D500DC1F8C280030DD00003024
:1010D000DE000030DF008030E0005909E1005A09ED
:1010E000E2005B09E3005C09E400E10A0319E20A9B
:1010F0000319E30A0319E40A6108DD076208DE3D0B
:101100006308DF3D6408E03D6008DC005F08DB0049
:101110005E08DA005D08D9008030D8068030DC0631
:101120005C085802031D08005B085702031D0800F5
:101130005A085602031D08005908550208002200EB
:10114000BF00E730A0002008AA00210066082200A6
:10115000A100210065082200A0002100E50A031972
:10116000E60A220020088400210885000008A20069
:101170002208C00040080319FA2F25304006031941
:10118000CE284008A0003F088600023087002008D3
:1011900081000130A0002008BF07A528B701B801D1
:1011A000B501B601DA282200351501302100E50726
:1011B0000030E63D210065088400660885000008CF
:1011C000303A0319D328E4286508840066088500AE
:1011D0000008AB3169238831031C22292200B701A2
:1011E000B8010A30F2000030F30022003808F500A0
:1011F0003708F4009C310124883173082200B800BC
:101200007208B700210065088400660885000008A0
:10121000D03E2200A000FF3003180030A1002008BB
:10122000B7072108B83D01302100E5070030E63D51
:1012300065088400660885000008AB3169238831A1
:101240000318F12821006508840066088500120053
:101250002E3A031D67292200361701302100E507C9
:101260000030E63D2200BD01BE012100650884007A
:10127000660885000008AB3169238831031C6E299C
:101280002100650884006608850000082200A0008F
:10129000A1013E08F3003D08F2000A30F4000030DE
:1012A000F5009C3101248831220020087207A20039
:1012B0002108733DA3002208D03EBD00FF30233D2E
:1012C000BE0001302100E5070030E63D352922004F
:1012D000BD01BE0136166E2936158E29210066081D
:1012E0002200A100210065082200A0002100E50ADB
:1012F0000319E60A2200200884002108850000085E
:10130000C000003A0319FA2F643A03198E29023AF1
:1013100003196C290F3A03198E29A52800303505C9
:10132000A00007303605A1002008210403197A2EF9
:10133000361E9E290630BD000030BE002A088600F9
:101340008701403FB900413FBA00423FBB00433FE5
:10135000BC000430A0002008AA073C082100D800E7
:1013600022003B082100D70022003A082100D600C5
:10137000220039082100D5000030DC000030DB00FD
:101380000030DA000030D900883105208831031898
:10139000E22922003C08F5003B08F4003A08F3007B
:1013A0003908F200AB313123883175082200BC00C6
:1013B0007408BB007308BA007208B9000330B504A2
:1013C0000030B6042200B301B4013C083B043A04E7
:1013D00039040319B82A3908A0003A08A1003B08CB
:1013E000A2003C08A3000310220D230D823EB3008F
:1013F000FF3003180030B400FF30B307FF30B43DB6
:101400000330F2000030F3003408F5003308F40034
:101410009C310124883173082200B4007208B300A3
:101420000A302000A0000030A10022003408200073
:10143000A300220033082000A200AF310727883123
:10144000200021082200B400200020082200B30060
:10145000B41F2E2AFF30B307FF30B43D3303FF3AE9
:101460008031AB20883120006F082200AE002000C0
:101470006E082200AD0020006D082200AC002000A4
:101480006C082200AB003C082000D50022003B087D
:101490002000D40022003A082000D300220039089E
:1014A0002000D20022002E082000D90022002D08A2
:1014B0002000D80022002C082000D70022002B0892
:1014C0002000D6008331D023883120005508220027
:1014D000AE00200054082200AD0020005308220076
:1014E000AC00200052082200AB002E082100D800DA
:1014F00022002D082100D70022002C082100D60050
:1015000022002B082100D5003F30DC008030DB00BA
:101510000030DA000030D900883105208831031806
:10152000962AFF302200B307FF30B72A22002E0888
:101530002100D80022002D082100D70022002C080D
:101540002100D60022002B082100D5004130DC000C
:101550002030DB000030DA000030D900883105206F
:101560008831031CB82A01302200B3070030B43D93
:1015700022003E08803AA00080302002031DC22ACB
:101580000D303D020318FC2A22003D089531F72555
:10159000883120006F082100C00020006E08210063
:1015A000BF0020006D082100BE0020006C08210053
:1015B000BD0022003C082100C40022003B0821009D
:1015C000C30022003A082100C2002200390821008D
:1015D000C1008531FC258831210040082200BC0073
:1015E00021003F082200BB0021003E082200BA0073
:1015F00021003D082200B90022003408803AA000F2
:1016000080302002031D062B0A3033020318342BCE
:1016100022003C083B043A0439040319912B3C088E
:101620002100B80022003B082100B70022003A0840
:101630002100B600220039082100B500A031C720E2
:10164000883121003808370436043504031D912BF6
:1016500022003408803AA00080302002031D322B83
:1016600002303302031C912B22002E082100D800E7
:1016700022002D082100D70022002C082100D600CE
:1016800022002B082100D5004030DC008930DB002F
:101690007030DA005F30D9008831052088310318B6
:1016A000532BF730542BF8302200B307FF30B43DF2
:1016B00033088031AB20883120006F082200AE0053
:1016C00020006E082200AD0020006D082200AC0052
:1016D00020006C082200AB003C08F5003B08F40039
:1016E0003A08F3003908F2002E08F9002D08F80036
:1016F0002C08F7002B08F600A5315925883175080C
:101700002200B2007408B1007308B0007208AF0084
:101710000030BC000030BB000030BA000030B9001F
:10172000FC2B22003C082100B80022003B082100CD
:10173000B70022003A082100B60022003908210033
:10174000B500A031C7208831210038082200B2003E
:10175000210037082200B100210036082200B00025
:10176000210035082200AF0032082000B10022001D
:1017700031082000B000220030082000AF00220015
:101780002F082000AE000030A3315C2388312000F8
:1017900031082100D800200030082100D7002000A7
:1017A0002F082100D60020002E082100D50022009D
:1017B0003C082100DC0022003B082100DB00220065
:1017C0003A082100DA00220039082100D900AC31A2
:1017D00002248831210058082200BC00210057084B
:1017E0002200BB00210056082200BA002100550843
:1017F0002200B900B301B401C001C00A0A3040069A
:1018000003192F2C4008A000A101A035A10DA0357F
:10181000A10D9A3020078400B030213D8500003FA3
:10182000A200013FA300023FA400033FA50025083A
:101830003202031D252C24083102031D252C230808
:101840003002031D252C22082F02031C2F2C0130EF
:10185000A0002008C0070A304006031D022C4008E3
:10186000A000A101A01BA1033D082007A2003E0883
:10187000213DA30033082207A4003408233DA5001E
:101880002408B7022508B83B3D083E0403194C2C38
:10189000FF30B707FF30B83D03303505A0000030FA
:1018A0003605A1002008210403195A2CFF30B70780
:1018B000FF30B83D351DA02C03303505A0000030A9
:1018C0003605A100200821040319722C2D30A00038
:1018D0003F08860002308700200881000130A00008
:1018E0002008BF073808803AA00080302002031D7E
:1018F0007B2C01303702031CC32C30302200A000A7
:101900003F08860002308700200881000130A000D7
:101910002008BF07FF30B707FF30B83D722C2030DA
:101920002200A0003F0886000230870020088100C6
:101930000130A0002008BF07FF30B707FF30B83DD7
:1019400022003808803AA00080302002031DAA2C13
:101950000130370203188F2C033022003505A00018
:1019600000303605A100200821040319C32C2D30B6
:10197000A0003F0886000230870020088100013067
:10198000A0002008BF07FF302200A0002008C007E9
:10199000400A0319342D4008A000A101A035A10D73
:1019A000A035A10D9A3020078400B030213D85007C
:1019B000003FF200013FF300023FF400033FF50057
:1019C0003208F9003108F8003008F7002F08F60057
:1019D000AF315927883175082200AE007408AD0078
:1019E0007308AC007208AB0000302000A900003082
:1019F000A8000030A7000A30A60022002E08200010
:101A0000AD0022002D082000AC0022002C08200090
:101A1000AB0022002B082000AA00AD31DE25883162
:101A2000200029082200AE00200028082200AD0076
:101A3000200027082200AC00200026082200AB006E
:101A40002B08303EB82C30302200A0003F08860022
:101A500002308700200881000130A0002008BF0765
:101A6000FF30B307FF30B43D3408803AA000803027
:101A70002002031D3D2D013033020318232D2200C7
:101A80003E08803AA00080302002031D492D093015
:101A90003D02031C4E2D08302200502D22003D082F
:101AA000A0002008C0004008A000A101A01BA103C5
:101AB0002008BD022108BE3B400803196B2D2E30C3
:101AC000A0003F0886000230870020088100013016
:101AD000A0002008BF0740088031AB2088312000DB
:101AE0006F082200A90020006E082200A800200034
:101AF0006D082200A70020006C082200A60029081B
:101B00002000D900220028082000D8002200270841
:101B10002000D700220026082000D60022003C0822
:101B20002000D50022003B082000D40022003A0803
:101B30002000D300220039082000D2008331D023B6
:101B40008831200055082100B800200054082100E9
:101B5000B700200053082100B600200052082100E1
:101B6000B500A031C7208831210038082200B2001A
:101B7000210037082200B100210036082200B00001
:101B8000210035082200AF00FF30A0002008C00768
:101B9000400A0319752E4008A000A101A035A10D2F
:101BA000A035A10D9A3020078400B030213D85007A
:101BB000003FF200013FF300023FF400033FF50055
:101BC0003208F9003108F8003008F7002F08F60055
:101BD000AF315927883175082200AE007408AD0076
:101BE0007308AC007208AB0000302000A900003080
:101BF000A8000030A7000A30A60022002E0820000E
:101C0000AD0022002D082000AC0022002C0820008E
:101C1000AB0022002B082000AA00AD31DE25883160
:101C2000200029082200AE00200028082200AD0074
:101C3000200027082200AC00200026082200AB006C
:101C40002B08303EA0003F088600023087002008A5
:101C500081000130A0002008BF074008A000A101BA
:101C6000A035A10DA035A10D9A3020078400B03019
:101C7000213D8500003F2000A600013FA700023F54
:101C8000A800033FA900220032082000AD00220076
:101C900031082000AC00220030082000AB002200F8
:101CA0002F082000AA00AD31DE2588312000290848
:101CB0002200B200200028082200B10020002708DE
:101CC0002200B00020002608C22D3030A0003F08BE
:101CD000860002308700200881000130A000200823
:101CE000BF07FF30BD07FF30BE3D3D083E0403196E
:101CF000A528652E2A0886008701403FA000413FA5
:101D0000A1002008AF002108B000890D893B890996
:101D1000B100B2000230A0002008AA07B21F9F2E17
:101D20000330B5040030B604AF09B009B109B209F7
:101D3000AF0A0319B00A0319B10A0319B20A3D0820
:101D40003E04031DAD2E3208310430042F04031D60
:101D5000AD2E0130BD070030BE3DC001C00A0A30C3
:101D600040060319E02E4008A000A101A035A10DF6
:101D7000A035A10D9A3020078400B030213D8500A8
:101D8000003FA200013FA300023FA400033FA500C3
:101D900025083202031DD62E24083102031DD62E3B
:101DA00023083002031DD62E22082F02031CE02E2A
:101DB0000130A0002008C0070A304006031DB32EE2
:101DC0004008A000A101A01BA1032108803AA200A5
:101DD0003E08803A2202031DEF2E3D082002031820
:101DE000F72E22003D08A0002008C0000F2F22007F
:101DF0004008A000A101A01BA1033E08803AA20058
:101E00002108803A2202031D072F20083D020318F3
:101E10000F2F22004008BD00BE01BD1BBE032200E3
:101E2000370838040319222F03303505A00000308D
:101E30003605A100200821040319222FFF30B7071F
:101E4000FF30B83D361F392F3E08803AA0003808D1
:101E5000803A2002031D2E2F37083D020318362F2B
:101E600022003D08B7023E08B83B392F2200B701D7
:101E7000B8014008A000A101A01BA1032108803ADD
:101E8000A2003808803A2202031D482F370820029A
:101E90000318552F22004008A000A101A01BA10398
:101EA0002008B7022108B83B582F2200B701B8011B
:101EB000351D852F03303505A00000303605A10003
:101EC000200821040319702F2D30A0003F08860040
:101ED00002308700200881000130A0002008BF07E1
:101EE000370838040319B32F3030A0003F088600AC
:101EF00002308700200881000130A0002008BF07C1
:101F0000FF30B707FF30B83D702F3708380403198A
:101F10009D2F2030A0003F08860002308700200857
:101F200081000130A0002008BF07FF30B707FF3055
:101F3000B83D37083804031D892F03303505A0004C
:101F400000303605A100200821040319B32F2D30DD
:101F5000A0003F0886000230870020088100013081
:101F6000A0002008BF07FF30BD07FF30BE3D3D0A7F
:101F700003193E0A0319A52800302000A9000030EB
:101F8000A8000030A7000A30A60022003E08850005
:101F90003D0884008435850D8435850D9A3084078D
:101FA000B030853D003FF200013FF300023FF400F6
:101FB000033FF5003208F9003108F8003008F70057
:101FC0002F08F600AF315927883175082000AD0081
:101FD0007408AC007308AB007208AA00AD31DE25AE
:101FE000883120002608303E2200A0002008C000D2
:101FF0004008A82F3F0886000230870081010800B2
:102000000034003400340034003400340034003430
:10201000003400345F3400340034003400340034C1
:102020000034003407340034073400340034003402
:10203000003414347F3414347F34143400340034C6
:10204000003424342A347F342A34123400340034E7
:1020500000342334133408346434623400340034DC
:10206000003436344934553422345034003400348A
:1020700000340034053403340034003400340034B8
:1020800000341C3422344134003400340034003431
:102090000034413422341C34003400340034003421
:1020A000003408342A341C342A3408340034003410
:1020B0000034083408343E34083408340034003422
:1020C0000034A03460340034003400340034003470
:1020D0000034083408340834083408340034003438
:1020E0000034603460340034003400340034003490
:1020F0000034203410340834043402340034003402
:1021000000343E345134493445343E3400340034D4
:102110000034003442347F3440340034003400341E
:102120000034623451344934493446340034003484
:1021300000342234413449344934363400340034D4
:1021400000341834143412347F3410340034003422
:1021500000342734453445344534393400340034B0
:1021600000343C344A344934493430340034003487
:10217000003401347134093405340334003400343C
:102180000034363449344934493436340034003468
:10219000003406344934493429341E3400340034C0
:1021A0000034003436343634003400340034003423
:1021B00000340034AC346C34003400340034003467
:1021C00000340834143422344134003400340034F0
:1021D00000341434143414341434143400340034FB
:1021E00000344134223414340834003400340034D0
:1021F00000340234013451340934063400340034DC
:10220000003432344934793441343E3400340034BB
:1022100000347E340934093409347E340034003407
:1022200000347F344934493449343634003400347E
:1022300000343E34413441344134223400340034DB
:1022400000347F344134413422341C3400340034AF
:1022500000347F3449344934493441340034003443
:1022600000347F3409340934093401340034003433
:1022700000343E344134413451347234003400343B
:1022800000347F340834083408347F340034003498
:10229000003441347F34413400340034003400349D
:1022A00000342034403441343F34013400340034AD
:1022B00000347F3408341434223441340034003480
:1022C00000347F34403440344034403400340034EF
:1022D00000347F3402340C3402347F340034003450
:1022E00000347F340434083410347F340034003434
:1022F00000343E344134413441343E3400340034FF
:1023000000347F340934093409340634003400348D
:1023100000343E344134513421345E3400340034CE
:1023200000347F34093419342934463400340034FD
:1023300000342634493449344934323400340034CA
:102340000034013401347F3401340134003400346A
:1023500000343F344034403440343F34003400349F
:1023600000341F342034403420341F34003400340F
:1023700000343F344034383440343F340034003487
:1023800000346334143408341434633400340034B7
:102390000034033404347834043403340034003417
:1023A000003461345134493445344334003400340A
:1023B00000347F344134413400340034003400347C
:1023C000003402340434083410342034003400342F
:1023D0000034413441347F3400340034003400345C
:1023E0000034043402340134023404340034003440
:1023F00000348034803480348034803400340034BD
:102400000034013402340434003400340034003425
:102410000034203454345434543478340034003488
:1024200000347F3448344434443438340034003485
:102430000034383444344434283400340034003414
:10244000003438344434443448347F340034003465
:102450000034383454345434543418340034003490
:10246000003408347E34093402340034003400343B
:1024700000341834A434A434A4347C34003400343C
:1024800000347F34083404340434783400340034A5
:10249000003400347D34003400340034003400341F
:1024A0000034803484347D3400340034003400340B
:1024B00000347F3410342834443400340034003481
:1024C000003441347F34403400340034003400346C
:1024D00000347C3404341834043478340034003448
:1024E00000347C34083404347C3400340034003448
:1024F0000034383444344434383400340034003444
:102500000034FC34243424341834003400340034CF
:102510000034183424342434FC34003400340034BF
:10252000003400347C340834043400340034003483
:1025300000344834543454342434003400340034E7
:10254000003404347F344434003400340034003424
:1025500000343C34403440347C34003400340034A3
:1025600000341C342034403420341C340034003413
:1025700000343C344034303440343C340034003493
:1025800000344434283410342834443400340034C3
:1025900000341C34A034A0347C34003400340034C3
:1025A00000344434643454344C34443400340034FF
:1025B00000340834363441340034003400340034FC
:1025C000003400347F3400340034003400340034EC
:1025D00000344134363408340034003400340034DC
:1025E0000034023401340134023401340034003444
:1025F000003402340534053402340034003400342D
:10260200640080010131890B022B00342200D300C7
:10261200CF01D001D101D201D401D5015508803AB0
:10262200C7004208803A4702031D192B4108540291
:102632000318C72B22005408C7000130C735FF3EDC
:10264200031D1F2B47355307C80048088600023078
:102652008700403F2100D500413FD600423FD700CE
:10266200433FD80022005108C9000130C935FF3E5E
:10267200031D372B49355307CA004A08860002302A
:102682008700403F2100D900413FDA00423FDB0092
:10269200433FDC008831052093310318562B22007A
:1026A2005508D2005408D100902B22004F08C700D1
:1026B2000130C735FF3E031D5A2B47355307C8006B
:1026C2004808860002308700403F2100D500413F84
:1026D200D600423FD700433FD80022005408C90029
:1026E2000130C935FF3E031D722B49355307CA001D
:1026F2004A08860002308700403F2100D900413F4E
:10270200DA00423FDB00433FDC0088310520933191
:102712000318902B22005508D0005408CF00363001
:102722002100E500B130E60022005408013E2100FC
:10273200E70000302200553D2100E8002200540845
:10274200C7000130C735FF3E031DA32B4735530792
:10275200C8004808860002308700403F2100E90097
:10276200413FEA00423FEB00433FEC00A03088319A
:102772009F209331AB311F2393312100111ABE2BBD
:1027820001302200D4070030D53D0F2BE930210063
:10279200E500B030E600220046082100EA002200EF
:1027A20045082100E900220044082100E800220037
:1027B20043082100E700A03088319F209331AB31DC
:1027C2001F2393312100111AE32B22004F08C70067
:1027D2000130C735FF3E031DEA2B47355307C800BA
:1027E2004808860002308700403F2100BD00413F7B
:1027F200BE00423FBF00433FC00022005108C90053
:102802000130C935FF3E031D022C49355307CA006A
:102812004A08860002308700403FF200413FF30041
:10282200423FF400433FF500AB3131239331750849
:102832002100C4007408C3007308C2007208C100FA
:102842008531FC259331210040082200CE00210071
:102852003F082200CD0021003E082200CC002100CA
:102862003D082200CB00C3302100E500B030E60075
:1028720022005108013E2100E70000302200523DB3
:102882002100E80022004F08013E2100E90000304B
:102892002200503D2100EA0022004E082100EE00F5
:1028A20022004D082100ED0022004C082100EC001E
:1028B20022004B082100EB00A03088319F20933189
:1028C200AB311F2393312100111E0800642C20001C
:1028D2003F088039C0004008C5003F35C0004008AD
:1028E200D000BE1B501450080319852C500A031D3A
:1028F200822C0030BF000030BE000030BD0000302E
:10290200BC00BE17BF018D2C0030BF000030BE00DE
:102912000030BD000030BC003B088039C0004008D8
:10292200C5063B35C0004008D100BA1B51145108FE
:102932000319A92C510A031DA62C0030BB0000303C
:10294200BA000030B9000030B800BA17BB01B12C90
:102952000030BB000030BA000030B9000030B800CF
:102962003B083A0439043804031DCC2C0030BF0064
:102972000030BE000030BD000030BC008030BE041C
:102982007F30BF043F08BB003E08BA003D08B900D3
:102992003C08B80008005008031DE02C0030BF00BE
:1029A2000030BE000030BD000030BC003F08BB005C
:1029B2003E08BA003D08B9003C08B80008005108BA
:1029C200C000C101C009C109C00A0319C10A5008E7
:1029D2004007C20041080318410AC30042087F3E73
:1029E200CA000030433DCB003F08C9003E08C80082
:1029F2003D08C7003C08C6000030BF000030BE00E2
:102A02000030BD000030BC000030CF000030CE00EE
:102A12000030CD000030CC00D1011A305102031831
:102A22004A2D510803192C2D0130C635C70DC80D8A
:102A3200C90D890B162D0130BC35BD0DBE0DBF0D64
:102A4200890B1D2DCF1B3C140130CC35CD0DCE0D85
:102A5200CF0D890B262D3B084902031D3A2D3A085A
:102A62004802031D3A2D39084702031D3A2D380842
:102A72004602031C452D4F173808C6023908C73BCA
:102A82003A08C83B3B08C93B0130C0004008D107A7
:102A92000E2D4908480447044604031D4C14BE1B6E
:102AA200672D0130BC35BD0DBE0DBF0D890B532DF9
:102AB200CF1B3C140130CC35CD0DCE0DCF0D890B83
:102AC2005C2DFF30CA07FF30CB3D502DD101CF1F07
:102AD200802DFF304C05C000FF304D05C100FF3096
:102AE2004E05C2007F304F05C30043084204410433
:102AF2004004031D7E2D3C1C802DD101D10A5108BA
:102B02000319A92D0130BC070030BD3D0030BE3D88
:102B12000030BF3D3F1CA92D3C08C0003D08C1004C
:102B22003E08C2003F08C3000130C400C337C20CD4
:102B3200C10CC00CC40B972D4308BF004208BE0055
:102B42004108BD004008BC000130CA070030CB3D3F
:102B52004B08803AC00080304002031DB22DFF3086
:102B62004A02031CC12DFF302000CA000030CB00F6
:102B72000030BF000030BE000030BD000030BC009D
:102B820020004B08803AC00080304002031DCB2D4C
:102B920001304A020318D92D2000CA01CB010030AE
:102BA200BF000030BE000030BD000030BC00C501D7
:102BB20020004A08C0004008D000501CE22DBE1779
:102BC200E62D7F30C0004008BE055036C0004008E8
:102BD200BF004508C0004008BF043F08BB003E08D4
:102BE200BA003D08B9003C08B80008002100BC004A
:102BF2006E303C02031C162F0A302000A000003069
:102C0200A10021003C08A000A1012008F400210835
:102C1200F5006430F2000030F300AE312126953128
:102C220073082000A3007208A200AF310727953174
:102C3200200020082100A200200021082100A3007A
:102C4200A235A30DA235A30D2208243EA400003014
:102C5200233DA500343024078400B030253D850093
:102C6200003FA600013FA700023FA800033FA900C2
:102C720029082000D500210028082000D4002100C6
:102C820027082000D300210026082000D20064304B
:102C9200A0000030A10021003C08AA00AB012A08D4
:102CA2002000A20021002B082000A300AF3107273B
:102CB2009531200020082100AC00200021082100CD
:102CC200AD00AC35AD0DAC35AD0D2C08483EAE00B7
:102CD20000302D3DAF0034302E078400B0302F3D40
:102CE2008500003FB000013FB100023FB200033F48
:102CF200B30033082000D900210032082000D80098
:102D0200210031082000D700210030082000D60021
:102D12008331D0239531200055082100BB002000CB
:102D220054082100BA00200053082100B9002000F5
:102D320052082100B8000A30F2000030F3003C08CB
:102D4200A000A1012008F4002108F500AE312126DF
:102D5200953173088500720884008435850D8435A9
:102D6200850D34308407B030853D003F2100A2003C
:102D7200013FA300023FA400033FA5002508200055
:102D8200D500210024082000D400210023082000BF
:102D9200D300210022082000D20021003B0820009D
:102DA200D90021003A082000D8002100390820006B
:102DB200D700210038082000D6008331D023953176
:102DC200200055082100B700200054082100B60059
:102DD200200053082100B500200052082100B40051
:102DE2003F302000D5000030D4000030D300003046
:102DF200D200210037082000D90021003608200027
:102E0200D800210035082000D70021003408200016
:102E1200D6008331D02320005508EF005408EE007D
:102E22005308ED005208EC0008000B3021003C0270
:102E3200031CC62F0A30F2000030F3003C08A00049
:102E4200A1012008F4002108F500AE3121269531B8
:102E520073088500720884008435850D8435850DDC
:102E620034308407B030853D003F2100A200013F8D
:102E7200A300023FA400033FA50025082000D500BF
:102E8200210024082000D400210023082000D300C0
:102E9200210022082000D2000A30A0000030A10048
:102EA20021003C08A600A70126082000A20021005C
:102EB20027082000A300AF31072795312000200802
:102EC2002100A800200021082100A900A835A90D91
:102ED200A835A90D2808243EAA000030293DAB00E0
:102EE20034302A078400B0302B3D8500003FAC000F
:102EF200013FAD00023FAE00033FAF002F082000AC
:102F0200D90021002E082000D80021002D08200021
:102F1200D70021002C082000D6008331D023953120
:102F2200200055082100BB00200054082100BA00EF
:102F3200200053082100B900200052082100B800E7
:102F42003F302000D5000030D4000030D3000030E4
:102F5200D20021003B082000D90021003A082000BD
:102F6200D800210039082000D700210038082000AD
:102F7200D6008331D02320005508EF005408EE001C
:102F82005308ED005208EC0008003F302000D50045
:102F92000030D4000030D3000030D20021003C08C1
:102FA200A000A101A035A10DA035A10D343020074C
:102FB2008400B030213D8500003FA200013FA30004
:102FC200023FA400033FA50025082000D9002100EC
:102FD20024082000D800210023082000D700210067
:102FE20022082000D6008331D02320005508EF00AC
:102FF2005408EE005308ED005208EC0008000034BB
:1030020000349934C534AB34CE3432340B34CF343B
:10301200D83456341D3464341634FD34D334073472
:10302200F4349E343134AC343A343534FF34C83459
:103032002C345134E9346334E234FA34273497348B
:10304200AD340E3468343C346334A534A634583479
:103052007534C134B034F334BB346A347E349034C2
:10306200593409349C343B349734A23452345F349B
:103072008134C6344434F4344F346D348A342E34BB
:103082005B34B7349E34853495341C345034E13487
:103092008334783446344A344D34D3348834293432
:1030A200AF34B0346A34823461341B34A434E6342D
:1030B20077347F34B2344D34B934D4347C34B934B7
:1030C200F63420343334123438348B34FD347634CD
:1030D2002E34EF34EB34DD34E03444342534BE3462
:1030E20002342734C7341534CC348C340934713467
:1030F200DA34E8341F34DA3414344334D134C53486
:10310200F3345C3436346E343D34F734F8340A34F4
:103112002B349334EE34A134E53438342034C234C1
:1031220007345B34C2346934C934F0340C340D349E
:10313200DF3494341A34A63411343F34D434523444
:103142005E34CB349B34F9349034603455349D343E
:1031520086340434433436344834AF348D345534F1
:10316200AA34CC346F34FE3464346734A1349A34D4
:1031720072340334B7343134BC34A8347934EB3488
:10318200A83472346D3440346634D934A3342434D0
:103192007034BD34B5348F34BE3416347B34EC34E1
:1031A2005C347534993447349234DE3457342334E2
:1031B2008434BA34413488344A3411348F347C3400
:1031C2000534E534C034D734CB344E340E34B33402
:1031D200DD342A341834183413348134D6347B3431
:1031E200F134E2343434D0343F344934FA34B43430
:1031F20029342D34EC341F34E7348634223413342A
:10320200A2348A346734B8346C342134A934DC34BF
:103212007A344534BF347734B434EE3471341434F0
:1032220056348D349334BF34983426345D34DB34D1
:103232008E3442344B3470344034E934853484342F
:103242000F341D34CA342F34C134B63404344B34F1
:10325200D734D2341234E03419347934DC34833440
:10326200FB341A343E3428343534B134F0344C341F
:103272002334D534E634E734ED347E3428343D3417
:10328200F934A4343C34963437340F34F234F23403
:1032920021346B34E4345934EF34C0342A343A34B0
:1032A2000D34A334C8349134C33408340634F534AD
:1032B200D5346C3410345E341B34C734DE34AA3453
:1032C20054343334913401349A3498345F3465344D
:1032D2008C34FC344934CE34423457348734AD34E0
:1032E200A0343434653406346E349F34AB346234E3
:1032F2007834FB34BD34C934B63450347334D634E4
:1033020051344F3494347D349F34E4345A34193474
:10331200893480344C34B23447342B348234D1343F
:10332200A534483460347A346B34E334AE341E341A
:103332007D348734B834B534B3342C3476344134E4
:10334200FC34D8343934EA3432347334F7348E34BA
:1033520024341734E1342534EA34BC342F3446346F
:103362000834DF34CD34ED34C63474340334893454
:10337200D0341034153422341E34BB34DB34F834E8
:103382000A346134CF345334C434CA340134373448
:10339200D234AE3417349C341C340534D934FF345F
:1033A200FE3466343B3454343034CD34F534303466
:1033B2002634A934E3349B34E83402342D346F3498
:1033C200A734F6346234C43469345D34AC34A03486
:1033D2007F343934BA340B34B134923474346834AF
:1033E2005334F1349634C3349D345A345834A734A8
:1033F2008B343E344E340C344534953480340034AE
:1034020000349934C534AB34CE3432340B34CF3437
:10341200D83456341D3464341634FD34D33407346E
:10342200F4349E343134AC343A343534FF34C83455
:103432002C345134E9346334E234FA342734973487
:10344200AD340E3468343C346334A534A634583475
:103452007534C134B034F334BB346A347E349034BE
:10346200593409349C343B349734A23452345F3497
:103472008134C6344434F4344F346D348A342E34B7
:103482005B34B7349E34853495341C345034E13483
:103492008334783446344A344D34D334883429342E
:1034A200AF34B0346A34823461341B34A434E63429
:1034B20077347F34B2344D34B934D4347C34B934B3
:1034C200F63420343334123438348B34FD347634C9
:1034D2002E34EF34EB34DD34E03444342534BE345E
:1034E20002342734C7341534CC348C340934713463
:1034F200DA34E8341F34DA3414344334D134C53482
:10350200F3345C3436346E343D34F734F8340A34F0
:103512002B349334EE34A134E53438342034C234BD
:1035220007345B34C2346934C934F0340C340D349A
:10353200DF3494341A34A63411343F34D434523440
:103542005E34CB349B34F9349034603455349D343A
:1035520086340434433436344834AF348D345534ED
:10356200AA34CC346F34FE3464346734A1349A34D0
:1035720072340334B7343134BC34A8347934EB3484
:10358200A83472346D3440346634D934A3342434CC
:103592007034BD34B5348F34BE3416347B34EC34DD
:1035A2005C347534993447349234DE3457342334DE
:1035B2008434BA34413488344A3411348F347C34FC
:1035C2000534E534C034D734CB344E340E34B334FE
:1035D200DD342A341834183413348134D6347B342D
:1035E200F134E2343434D0343F344934FA34B4342C
:1035F20029342D34EC341F34E73486342234133426
:10360200A2348A346734B8346C342134A934DC34BB
:103612007A344534BF347734B434EE3471341434EC
:1036220056348D349334BF34983426345D34DB34CD
:103632008E3442344B3470344034E934853484342B
:103642000F341D34CA342F34C134B63404344B34ED
:10365200D734D2341234E03419347934DC3483343C
:10366200FB341A343E3428343534B134F0344C341B
:103672002334D534E634E734ED347E3428343D3413
:10368200F934A4343C34963437340F34F234F234FF
:1036920021346B34E4345934EF34C0342A343A34AC
:1036A2000D34A334C8349134C33408340634F534A9
:1036B200D5346C3410345E341B34C734DE34AA344F
:1036C20054343334913401349A3498345F34653449
:1036D2008C34FC344934CE34423457348734AD34DC
:1036E200A0343434653406346E349F34AB346234DF
:1036F2007834FB34BD34C934B63450347334D634E0
:1037020051344F3494347D349F34E4345A34193470
:10371200893480344C34B23447342B348234D1343B
:10372200A534483460347A346B34E334AE341E3416
:103732007D348734B834B534B3342C3476344134E0
:10374200FC34D8343934EA3432347334F7348E34B6
:1037520024341734E1342534EA34BC342F3446346B
:103762000834DF34CD34ED34C63474340334893450
:10377200D0341034153422341E34BB34DB34F834E4
:103782000A346134CF345334C434CA340134373444
:10379200D234AE3417349C341C340534D934FF345B
:1037A200FE3466343B3454343034CD34F534303462
:1037B2002634A934E3349B34E83402342D346F3494
:1037C200A734F6346234C43469345D34AC34A03482
:1037D2007F343934BA340B34B134923474346834AB
:1037E2005334F1349634C3349D345A345834A734A4
:0E37F2008B343E344E340C34453495348034E0
:10380200F601F701721C092C7408F6077508F73DDA
:103812000130F435F50D890B0A2C0130F336F20C28
:10382200890B0F2C72087304031D032C7708F30015
:103832007608F20008002200A9002908860002305A
:103842008700403FA100413FA200423FA300433F07
:10385200A400A501A6012608803A2100E700660817
:10386200803A6702031D382C6508220025020318DE
:103872008A2C220025082100E7000130E735FF3EAF
:10388200031D3F2C6735220029072100E800680844
:10389200860002308700403FD500413FD600423FBC
:1038A200D700433FD800220024082100DC00220078
:1038B20023082100DB00220022082100DA00220076
:1038C20021082100D900883105209C310318842C5D
:1038D200220025082100E7000130E735FF3E031DE5
:1038E2006E2C6735220029072100E800680886004F
:1038F20002308700403F2200A100413FA200423F28
:10390200A300433FA40001302200A5070030A63DDA
:103912002C2C2200A701A8012808803A2100E700E8
:103922006608803A6702031D992C65082200270267
:103932000318F32C220027082100E7000130E735A5
:10394200FF3E031DA02C6735220029072100E80055
:103952006808860002308700403FD500413FD6000C
:10396200423FD700433FD8003C30C000A330BF00E5
:10397200D730BE000A30BD00220024082100C40056
:10398200220023082100C300220022082100C200D5
:10399200220021082100C1008531FC259C31210033
:1039A2004008DC003F08DB003E08DA003D08D90091
:1039B200883105209C310030031801302200A0001C
:1039C2002808F3002708F20020082100E700670812
:1039D200F400A6311E269C3101302200A7070030D8
:1039E200A83D8D2CDA302000AF000130B00001304C
:1039F200A331F22308002300E001E101AC3161248C
:103A02009C3129302200E9009630E8007F30890B92
:103A1200082DE80B082DE90B082D22008F120F123A
:103A22008F1622000C0EE800680C0139E800013004
:103A3200E806E80EE80D0C086806DF3968068C0017
:103A42000C302100E5000030E6003830A631FB26BC
:103A52009C310C302100D5000030D6003830AE3118
:103A6200B5269C31210058082300C50021005708C3
:103A72002300C400210056082300C300210055087A
:103A82002300C200E201E3016308803A2200E80059
:103A920080306802031D502D053023006202031896
:103AA200952D23006235B83E860001308700403FE5
:103AB2002200E800413FE9006908803AEA008030CC
:103AC2006A02031D662D2830680203187E2D23002A
:103AD2006235B83E860001308700403F2200E80090
:103AE200413FE9006908803AEA0080306A02031D1A
:103AF2007C2D0B3068020318832D01302300E00770
:103B02000030E13D01302300E2070030E33D63086D
:103B1200803A2200E80080306802031D932D0530B0
:103B220023006202031C522D230027082100D80023
:103B3200230026082100D700230025082100D600F3
:103B4200230024082100D5004130DC002030DB00B6
:103B52000030DA000030D900883105209C31031C86
:103B6200B72D01302300E0070030E13D230061085A
:103B7200803A2200E80080306802031DC32D0A301B
:103B820023006002031CC72D22008F120530210082
:103B9200C8000030C900B830A13146219C31210053
:103BA20049082300AD00210048082300AC002E0381
:103BB2002F04031D302EAD315D259C3122006B0890
:103BC200E8000130E835FF3E031DE32D6835203E55
:103BD20086000330870021006108C03F6208C13FB0
:103BE2006308C23F6408C33F01302200EB07003084
:103BF200EC3D6C08803AE80080306802031D032E19
:103C020014306B02031C2D2E0C302100E500003015
:103C1200E60038309C311C249C3122006C082100C3
:103C2200D60022006B082100D5002030A131C52129
:103C32009C31210058082300A700210057082300C7
:103C4200A600210056082300A500210055082300E4
:103C5200A4002200EB01EC012300AE01AF0130030E
:103C62003104031D122D0C302200D6000030D70083
:103C7200230045082200DB00230044082200DA006A
:103C8200230043082200D900230042082200D80062
:103C9200B830E8006808DC000530DD000030DE00E6
:103CA20023002D082200E00023002C082200DF0060
:103CB200230027082200E400230026082200E30054
:103CC200230025082200E200230024082200E1004C
:103CD2001530E5000030E6003830AC31B8249C31B4
:103CE2002300B001B101122D2000D100CA01D70179
:103CF2005108031D432FD601D60A05305602031878
:103D0200FE2FD7013B08BD003D08AF004230BE0088
:103D12003E08B0005608A03118209E312000D20182
:103D22003B08520203183E2FD30168308400B130A1
:103D32008500000853020318F32E5708013E423E45
:103D4200860087010108BD00BE013D08BE00BD011D
:103D52005708423E8600870101083D07CB003E0816
:103D620003183E0ACC001830BD003D08F20052088C
:103D7200AB3177239E3120003C07BE005608FF3E40
:103D8200F200FF3003180030F30068308400B130D5
:103D920085000008BF00C0013F08F4004008F5009C
:103DA2009C3101249E3172082000530709073E0707
:103DB200C10041088600013087004B08C03F4C0813
:103DC200C13F5708023EBD003D08D7000130BD008B
:103DD2003D08D30768308400B130850000085302E3
:103DE200031C9E2E5708013E423E860087010108B1
:103DF200BD00BE015708423E860087010108BF0090
:103E0200C0013F08C000BF013D083F07CD003E088A
:103E1200403DCE00C2308400B03085000008BD00B5
:103E22003D08F2005208AB3177239E31423EF80042
:103E32000030F90069308400B13085000008AE31ED
:103E420066269E3179082000D0007808CF005008FD
:103E52004E06031D2E2F4F084D060319342FFF3037
:103E6200BD003D08CA005708023EBD003D08D7000C
:103E72000130BD003D08D207912E0130BD003D0842
:103E8200D6077E2E3B08BD003D08AF004230BE0083
:103E92003E08B0005108A03118209E312000D40104
:103EA2003B0854020318FE2FD50168308400B1305C
:103EB2008500000855020318B32F5708013E423E01
:103EC200860087010108BD00BE013D08BE00BD019C
:103ED2005708423E8600870101083D07CB003E0895
:103EE20003183E0ACC001830BD003D08F200540809
:103EF200AB3177239E3120003C07BE005108FF3EC4
:103F0200F200FF3003180030F30068308400B13053
:103F120085000008BF00C0013F08F4004008F5001A
:103F22009C3101249E3172082000550709073E0783
:103F3200C10041088600013087004B08C03F4C0891
:103F4200C13F5708023EBD003D08D7000130BD0009
:103F52003D08D50768308400B1308500000855025D
:103F6200031C5E2F5708013E423E8600870101086E
:103F7200BD00BE015708423E860087010108BF000E
:103F8200C0013F08C000BF013D083F07CD003E0809
:103F9200403DCE00C2308400B03085000008BD0034
:103FA2003D08F2005408AB3177239E31423EF800BF
:103FB2000030F90069308400B13085000008AE316C
:103FC20066269E3179082000D0007808CF0050087C
:103FD2004E06031DEE2F4F084D060319F42FFF3036
:103FE200BD003D08CA005708023EBD003D08D7008B
:103FF2000130BD003D08D407512F4A080800A63100
:104002001F2EA631302EA631412EA631522EA631B8
:10401200632EA631742EA631852EA631962EA63198
:10402200A72EA631B82EA631C92EA631DA2E20002F
:10403200BA003A03031D1F280430302802303A0622
:10404200031D25280630302803303A06031D2B288D
:104052000830302804303A06031D34280A30B100F3
:104062003108B700B6013630F8000030F9000230EE
:10407200AE316626A03179082000B5007808B40078
:104082003508B1003108B8003408B1003108B90070
:10409200AB312823A03122008F1104302000B1005F
:1040A2003108F6003008F7000030F8002F08B2009F
:1040B2003208F20067308400B13085000008AB316D
:1040C2007723A0312000B3003308F9003630AC3139
:1040D200EB2422008F1508002200C500C601C7018B
:1040E2004708803A2100EF0022004408803A21006C
:1040F2006F02031D7F282200430846020318AF28DF
:1041020027302100E500B130E60022004608013EDA
:104112002100E70000302200473D2100E800220094
:10412200463545072100EF006F0886000130870001
:10413200403FE900413FEA0023003608A03E8831B3
:104142009F20A031AB311F23A0312100111AA628D4
:1041520001302200C6070030C73D7128003021001F
:10416200E500B130E600220042082100E80022000A
:1041720041082100E700A03088319F20A031AB31F7
:104182001F23A0312100111E0800C3282100350879
:10419200B9003608BA003708BB003808BC00031063
:1041A2003B0D3C0DBD003D08BF003F08031DE2284A
:1041B2000030B8000030B7000030B6000030B50063
:1041C20008003508B9003608BA003708BB003808BD
:1041D200BC001F30BC36BB0CBA0CB90C890BEB28E7
:1041E2003908BD003D08BE00B717FF30B505FF30E6
:1041F200B605FF30B7050030B8059630BF02BF1FC5
:104202001E293F08803A973E031810290030B80053
:104212000030B7000030B6000030B50008000130B1
:10422200B836B70CB60CB50C890B11290130B900A0
:104232003908BF0703193729102920303F02031C10
:1042420034290030B8000030B7000030B60000302A
:10425200B50008000130B535B60DB70DB80D890BA4
:104262002C290130BF023F08031D2B293E080319E8
:104272000800B509B609B709B809B50A0319B60A9B
:104282000319B70A0319B80A08002100D000CE01A9
:10429200CF0122008D1223005308AF31AC27A13188
:1042A20073082100C1007208C000A2314C22A13162
:1042B20021004108CF004008CE005008860001309E
:1042C20087004E08C03F4F08C13F0130D100003087
:1042D200D2005208803ACA004908803A4A02031DB5
:1042E2007429480851020318BD2921005108D33E00
:1042F2008600013087000108AF31AC27A131730875
:104302002100C1007208C000A2314C22A13121005B
:1043120051355007CA004A0886000130870040081C
:10432200C03F4108C13F51355007CA004A088600C4
:1043320001308700403FCB00413FCC004F08803A1C
:10434200CD004C08803A4D02031DA9294B084E02AC
:104352000318B729210051355007CA004A088600C0
:1043620001308700403FCE00413FCF0001302100A5
:10437200D1070030D23D6A2922008D1621004F0854
:10438200C9004E08C80008002100DB00E001E1017D
:104392000030DF000030DE000030DD000030DC00E5
:1043A200E001E1016108803AD9005608803A5902D9
:1043B200031DDD295508600203180F2A2100600839
:1043C200D9000130D935FF3E031DE32959355B077A
:1043D200DA005A08860003308700403FBD00413FA3
:1043E200BE00423FBF00433FC0005F08C4005E08FA
:1043F200C3005D08C2005C08C1008531FC25A13103
:1044020021004008DF003F08DE003E08DD003D08D5
:10441200DC000130E0070030E13DD32921005508DE
:104422002000AE00210056082000AF00890D893B14
:104432008909B000B1000130A3315C23A131200011
:104442003108BB003008BA002F08B9002E08B800A6
:1044520021005F082000BF0021005E082000BE008E
:1044620021005D082000BD0021005C082000BC0086
:104472009431682420003B082100D80020003A082B
:104482002100D700200039082100D600200038087A
:104492002100D500080040302000D500A030D40013
:1044A2000030D3000030D2004530BB008030BA006B
:1044B2000030B9000030B800210040082000AE00F2
:1044C200210041082000AF00890D893B8909B00015
:1044D200B1000130A3315C23A23120003108BF00BA
:1044E2003008BE002F08BD002E08BC00943168249D
:1044F200A23120003B08D9003A08D8003908D70079
:104502003808D6008331D023A2312000550821007B
:10451200C700200054082100C600200053082100D3
:10452200C500200052082100C40047082000D9001D
:10453200210046082000D800210045082000D700AD
:10454200210044082000D6004130D5002030D4009C
:104552000030D3000030D2008331D023A2312000BA
:1045620055082100B800200054082100B70020009F
:1045720053082100B600200052082100B500A031E6
:10458200C72021003608850035088400683084077A
:10459200B030853D0008C200C3014208C000430894
:1045A200C1000800C0302100C0002030BF00003030
:1045B200BE000030BD0040302000D500A030D40045
:1045C2000030D3000030D2004530BB007F30BA004B
:1045D200F030B9000030B800210058082000BF00B8
:1045E200210057082000BE00210056082000BD000F
:1045F200210055082000BC0094316824A23120001B
:104602003B08D9003A08D8003908D7003808D60044
:104612008331D023A231200055082100C40020009C
:1046220054082100C300200053082100C2002000CA
:1046320052082100C1008531FC25A2312100400829
:10464200E0003F08DF003E08DE003D08DD003D30AF
:104652002000BB002130BA006130B900E530B8005B
:10466200210060082000BF0021005F082000BE007A
:1046720021005E082000BD0021005D082000BC0072
:104682009431682420003B082100DC0020003A0815
:104692002100DB00200039082100DA002000380860
:1046A2002100D9005C08D8005B08D7005A08D60060
:1046B2005908D50008002000B2003208031DB11FBE
:1046C200722B2E09B4002F09B5003009B60031094A
:1046D200B700B40A0319B50A0319B60A0319B70ACF
:1046E2007A2B3108B7003008B6002F08B5002E0823
:1046F200B400310830042F042E04031D892B00302E
:10470200B1000030B0000030AF000030AE00080051
:104712009630F4007408B300FE3037050319B02B4D
:104722000130F4007408B3070130B736B60CB50C8B
:10473200B40C890B962B8D2B0130F4007408B3074F
:104742000130B4070030B53D0030B63D0030B73D12
:104752000130B736B60CB50CB40C890BAA2BFF305E
:1047620037050319BE2B9D2B0130B3020130B4353E
:10477200B50DB60DB70D890BB82BB61BC42B023085
:1047820033020318B52B3318CE2BFF30B405FF309C
:10479200B5057F30B605FF30B7050310B30C3308FB
:1047A200F400F501F601F7011830F435F50DF60DB8
:1047B200F70D890BD62B7408B4047508B504760876
:1047C200B6047708B7043208031DB11FE92BB717E7
:1047D2003708B1003608B0003508AF003408AE0023
:1047E20008002000C3004308B1000230B135FF3E8B
:1047F200031DF72B3135043EB2003208C200B60168
:10480200B701B70A3D30B1003108B8006E30B100CF
:104812003108B9000430B1003108C8004308B100C2
:104822003108C70047080319932CC601623084007F
:10483200B1308500000846020318562C4608B10024
:10484200B2014708FF3EF200FF3003180030F300C8
:104852000630F4000030F5009C310124A3317208C7
:1048620020002F07B3007308303DB400310833072E
:1048720086003208343D87000108B5004808363EFC
:1048820086008701350881004808013EB1003108E1
:10489200C8000130B1003108C60762308400B1306F
:1048A200850000084602031C1F2C4708FF3EF20049
:1048B200FF3003180030F3000630F4000030F5003A
:1048C2009C310124A331720820002F07F8007308DD
:1048D200303DF90062308400B13085000008AE310D
:1048E2006626A33179082000C5007808C40045086F
:1048F200B1004808363E860087013108810044082D
:10490200B1004808013E363E860087013108810029
:104912004808023EB1003108C8000130C70247080A
:10492200031D162CAB312823A33122008F11363000
:104932002000B1003108F5004208AB31CF2322003C
:104942008F15080072082000A0007308A1007408E7
:10495200A2000310210D220DA3002308A90029089B
:10496200031DBC2C0030F5000030F4000030F300D1
:104972000030F20008007608A0007708A10078084D
:10498200A2000310210D220DA3002308A80028086D
:10499200031DD42C0030F5000030F4000030F30089
:1049A2000030F2000800F317FF30F205FF30F30584
:1049B2000030F405F717FF30F605FF30F705003039
:1049C200F8050030A7000030A6000030A500003036
:1049D200A4007F30A90298302807A0002008A9026D
:1049E2001830A0002008A8000130A435A50DA60D9E
:1049F200A70D890BF62C78087402031D062D770883
:104A02007302031D062D76087202031C0F2D760811
:104A1200F2027708F33B7808F43B24140130F235B4
:104A2200F30DF40D890B102D0130A802031DF52C96
:104A3200A91F372D2908803A973E0318292D0030E7
:104A4200F5000030F4000030F3000030F2000800FE
:104A52000130A736A60CA50CA40C890B2A2D013017
:104A6200A0002008A9070319502D292D183029026A
:104A7200031C4D2D0030F5000030F4000030F3002F
:104A82000030F20008000130A435A50DA60DA70DD7
:104A9200890B452D0130A9022908031D442D270841
:104AA200F5002608F4002508F3002408F2000800A7
:104AB20072082000A0007308A1007408A200750803
:104AC200A3000310220D230DA4002408AA002A0823
:104AD200031D742D0030F5000030F4000030F300A7
:104AE2000030F20008007608A0007708A1007808DC
:104AF200A2007908A3000310220D230DA4002408AC
:104B0200A9002908031D8E2D0030F5000030F400A5
:104B12000030F3000030F2000800F417FF30F20515
:104B2200FF30F305FF30F4050030F505F817FF30CC
:104B3200F605FF30F705FF30F8050030F9050030C3
:104B4200A8000030A7000030A6000030A5007F308A
:104B5200AA02A0302907A0002008AA022030A00043
:104B62002008A9000130A535A60DA70DA80D890BB7
:104B7200B42D79087502031DC82D78087402031D2F
:104B8200C82D77087302031DC82D76087202031C14
:104B9200D32D7608F2027708F33B7808F43B7908C4
:104BA200F53B25140130F235F30DF40DF50D890BAB
:104BB200D42D0130A902031DB32DAA1FFC2D2A08F2
:104BC200803A9F3E0318EE2D0030F5000030F400CD
:104BD2000030F3000030F20008000130A836A70CC4
:104BE200A60CA50C890BEF2D0130A0002008AA0706
:104BF2000319152EEE2D20302A02031C122E00302E
:104C0200F5000030F4000030F3000030F20008003C
:104C12000130A535A60DA70DA80D890B0A2E01306E
:104C2200AA022A08031D092E2808F5002708F40005
:104C32002608F3002508F2000800EB2E7408031979
:104C4200292E23005E080138F5007508DE000800F1
:104C520023005E08FE39F5007508DE0008007408BE
:104C620003193A2E23005E080238F5007508DE00AB
:104C7200080023005E08FD39F5007508DE00080013
:104C8200740803194B2E23005E080438F5007508DA
:104C9200DE00080023005E08FB39F5007508DE001F
:104CA2000800740803195C2E23005E080838F5001A
:104CB2007508DE00080023005E08F739F500750864
:104CC200DE000800740803196D2E23005E081038F8
:104CD200F5007508DE00080023005E08EF39F500D4
:104CE2007508DE000800740803197E2E23005E0892
:104CF2002038F5007508DE00080023005E08DF3961
:104D0200F5007508DE000800740803198F2E2300D1
:104D12005E084038F5007508DE00080023005E08D2
:104D2200BF39F5007508DE00080074080319A02ECB
:104D320023005E088038F5007508DE0008002300B5
:104D42005E087F39F5007508DE0008007408031953
:104D5200B12E23005F080138F5007508DF00080056
:104D620023005F08FE39F5007508DF0008007408AB
:104D72000319C22E23005F080238F5007508DF0010
:104D8200080023005F08FD39F5007508DF00080000
:104D920074080319D32E23005F080438F500750840
:104DA200DF00080023005F08FB39F5007508DF000B
:104DB200080074080319E42E23005F080838F50080
:104DC2007508DF00080023005F08F739F500750851
:104DD200DF0008007308003A0319F02EFA2E720859
:104DE20084000C30040203180800A0310435003E90
:104DF200820008002200BF00FF302100E7006708A0
:104E02002200BE002030860002308700203084005D
:104E12000130850018302100E70016001A00E70B68
:104E22000E2FCD30860001308700383084000130EB
:104E320085000630E70016001A00E70B1C2F3830F9
:104E42002000AF000130B0000130A331F223A631BF
:104E52001A30890B2A2F0032AC318724A631DA307E
:104E62002000AF000130B0000130A331F223A6319F
:104E72002000BB01BB0A20302100E70067082000A8
:104E8200BC0000309E317526A6312100E80068087A
:104E92002200BE003E08031D392FC001C101410896
:104EA200803A2100E70080306702031D5B2F0C303F
:104EB20022004002031808003F302000D500803055
:104EC200D4000030D3000030D2004630BB001C308A
:104ED200BA004030B9000030B80022004035203E10
:104EE200860001308700403F2100E700413FE80093
:104EF20067082000AE00210068082000AF00B00162
:104F0200B1010030A3315C23A63120003108BF007B
:104F12003008BE002F08BD002E08BC009431682462
:104F2200A63120003B08D9003A08D8003908D7003A
:104F32003808D6008331D023A63122004008210050
:104F4200E9000130E935FF3E031DA32F6935220038
:104F52003F072100EA006A0886000230870020002D
:104F62005208C03F5308C13F5408C23F5508C33FCF
:104F7200220040082100E7000130E735FF3E031D13
:104F8200BE2F673522003F072100E800680886002F
:104F920002308700403FD500413FD600423FD70054
:104FA200433FD8003D30DC00CC30DB00CC30DA00AF
:104FB200CD30D90088310520A6310318FA2F2200FE
:104FC20040082100E7000130E735FF3E031DE52FD1
:104FD200673522003F072100E8006808860002309A
:104FE20087000030C03F0030C13F0030C23F003078
:0E4FF200C33F01302200C0070030C13D502FE8
:1056380021001112080021001116080088310020ED
:10564800AB31AB314523080022008F110530890B9F
:105658002B2B000022008F150800750874047304B2
:105668007204031908008030F5060800F400740875
:1056780024009100141C3E2B1108F2007208F3005C
:105688000800063025009A0021009114FE30200001
:105698009B004F309C000800F30073082400910021
:1056A800141C542B1108F2007208F4007408080046
:1056B80023001E139E161E121E111D139D179C01FA
:1056C80002309B00200011120800F300F2013A306A
:1056D80073020318752B30307302031C752BF2010B
:1056E800F20A720C0800F500F401751C7F2B720891
:1056F800F3007308F4070310F20D0310F50C750896
:10570800031D792B74080800F201F20AF301F40171
:105718000230AD319B25AB3120004A08B000490862
:10572800AF000130A331F223080022009D151D1699
:105738002100911192112000911192114F302400F3
:10574800920028309500C0309400080022008F1580
:105758009D121D129D112400171294171417123050
:10576800950021009115200091112400951608003C
:10577800003490341F34C434003490340C340A3468
:10578800083409340B348D341434003490341F3405
:10579800C43400349034F700F8017708780203180D
:1057A800080078087507F600760886008701010862
:1057B800AB313A23AB310130F6007608F807D12B2C
:1057C80021008D120C148C140C158C150D148D14CD
:1057D8000D158D150D168F140F3023008C001F30FA
:1057E8008D0001308F0021008F1424008F012100CB
:1057F8009D0160309E000F309F000800803021001E
:10580800D8065C08C0005B08BF005A08BE005908EB
:10581800BD005808C4005708C3005608C200550800
:10582800C1008531FC2521004008D8003F08D70079
:105838003E08D6003D08D50008002000A400A001BD
:10584800A1017208F400F5017408A2007508A3000C
:10585800241C322C2208A0072308A13D0130A235C0
:10586800A30D890B332C0310A40C2408031D2C2C26
:105878002108F3002008F200080014302100E50098
:10588800B130E600220044082100EA002200430863
:105898002100E900220042082100E8002200410816
:1058A8002100E700A03088319F20AC31AB311F23A5
:1058B800AC312100111E08005D2C21000F128F123F
:1058C8000C148B170B17AB312223AC3121008C122F
:1058D80022008C1621000C12AB31E423AC31AB3121
:1058E8005C23AC3121000D178D17AB319923AC31F6
:1058F80021008E120E168E118F11AB31AA23AC31F6
:10590800AB318823080023004B082000AF002F0884
:10591800B00023004C082000AF002F08B100CB30A6
:10592800F8000130F9000230AE316626AC31790852
:105938002000B5007808B4003508AF002F08B20081
:105948003408AF002F08B300AB312823AC31220054
:105958008F1130302000AF002F08F5000430AB3134
:10596800CF2322008F1508002200E7006608C20036
:105978006508C100AD312125AC3122005708C200AD
:105988005608C1005B08C6005A08C5005908C4007B
:105998005808C300670893310723AC312200600818
:1059A800C2005F08C1005E08C4005D08C3005C084F
:1059B800A0316D20AC3122006408C4006308C30024
:1059C8006208C2006108C100AC314124080020000F
:1059D800A500A601760826020318022D2608250729
:1059E800A0002008860087010108AB313A23AC31BA
:1059F80001302000A0002008A607EE2CA701790896
:105A0800270203180800FF30AB315023AC312000C7
:105A1800A0002708A100A20121087707A3002208F7
:105A2800783DA40023088600240887002008810008
:105A38000130A0002008A707032D2200C601C701D6
:105A4800C601C7014108FF3EC300FF30423DC40004
:105A58004708803AC5004408803A4502031D362DA0
:105A68004308460203184D2D50302100E500B1309F
:105A7800E600A03088319F20AD31AB311F23AD3116
:105A88002100111A442D01302200C6070030C73DFD
:105A9800262D45302100E500B130E600A0308831E0
:105AA8009F20AD31AB311F23AD312100111E0800FD
:105AB800592D7530AF31AC27AD3172082000AE00DA
:105AC8007308AF00890D893B8909B000B100013026
:105AD800A3315C23AD31200031082100E80020000B
:105AE80030082100E70020002F082100E6002000F0
:105AF8002E082100E5006808D8006708D700660866
:105B0800D6006508D500A231D32221005808E80044
:105B18005708E7005608E6005508E5006808E4005D
:105B28006708E3006608E2006508E1000800F7007E
:105B380077360139F5007508F8007808023EF50057
:105B480075082300CB0077080139F5000630F535D4
:105B5800FF3E031DAB2D7535F6007608F800720878
:105B6800F5000330F535FF3E031DB62D7535780772
:105B78007307603EF6007608CC0077360139F500E9
:105B88007508F8007808043EF5007508C90077081C
:105B98000139F5000630F535FF3E031DCF2D75356B
:105BA800F6007608F80078087407603EF500750876
:105BB800CA0008002000290828042704260403191D
:105BC800182EAF01AF0AA91BF52D0130A635A70D78
:105BD800A80DA90D890BEA2D0130AE002E08AF07DC
:105BE800E72D29082D02031D032E28082C02031D6A
:105BF800032E27082B02031D032E26082A02031C46
:105C08000D2E2608AA022708AB3B2808AC3B29081A
:105C1800AD3B0130A936A80CA70CA60C890B0E2E9B
:105C28000130AF02031DF52D2D08A9002C08A8008E
:105C38002B08A7002A08A6000800F801F51F2B2E3C
:105C4800F409F509F40A0319F50AF801F80AF31F2B
:105C5800322EF209F309F20A0319F30A72087304DF
:105C68000319592EF701F70AF31B442E0130F235B8
:105C7800F30D890B3B2E0130F6007608F707382E16
:105C880073087502031D4A2E72087402031C502EF5
:105C98007208F4027308F53B0130F336F20C890BF5
:105CA800512E0130F702031D442E78080319612E86
:105CB800F409F509F40A0319F50A7508F3007408DC
:105CC800F20008002000A9001030AD000030AE003E
:105CD800AC0129082C020318B02E2C08A000A10141
:105CE8002008780786002108793D87000108A2006E
:105CF800A3012E08A5002D08A4000730A600250D35
:105D0800A50CA40CA60B832E22082406A7002308A2
:105D18002506A800FF302705AA0000302805AB009B
:105D28002B0885002A0884008435850D00308407F7
:105D38009830853D003FA000013FA1002D08A30039
:105D4800A20120082206AD0021082306AE0001307A
:105D5800A0002008AC076D2E2D35F8002E0DF90097
:105D680008002100DB000030DF000030DE000030DA
:105D7800DD000030DC00E001E1016108803AD90073
:105D88005608803A5902031DCB2E550860020318A5
:105D9800FD2E21006008D9000130D935FF3E031DD2
:105DA800D12E59355B07DA005A0886000230870081
:105DB800403FBD00413FBE00423FBF00433FC000DF
:105DC8005F08C4005E08C3005D08C2005C08C1002B
:105DD8008531FC25AE3121004008DF003F08DE0098
:105DE8003E08DD003D08DC000130E0070030E13D01
:105DF800C12E21005F08D8005E08D7005D08D600D4
:105E08005C08D50008002000A501A11F122FA009D9
:105E1800A109A00A0319A10AA501A50AA31F1D2FFC
:105E2800A209A309A20A0319A30A0130F9007908F3
:105E3800A506A601A7012008210403194C2FA401D7
:105E4800A40AA11B312F0130A035A10D890B282FE1
:105E58000130F9007908A407252F0130A635A70DD0
:105E6800890B322F21082302031D3C2F2008220210
:105E7800031C432F2008A2022108A33B261401304B
:105E8800A136A00C890B442F0130A402031D312F29
:105E980025080319542FA609A709A60A0319A70A52
:105EA8002708A1002608A000080000302000A40050
:105EB8000030A3000030A2000030A100750874046F
:105EC800730472040319A32FA501A50AF51B782FE3
:105ED8000130F235F30DF40DF50D890B6D2F0130FE
:105EE800A0002008A5076A2F0130A135A20DA30D37
:105EF800A40D890B792F75087902031D8D2F74085D
:105F08007802031D8D2F73087702031D8D2F7208E9
:105F18007602031C982F7208F6027308F73B740880
:105F2800F83B7508F93B21140130F536F40CF30CF5
:105F3800F20C890B992F0130A502031D782F240834
:105F4800F5002308F4002208F3002108F2000800F5
:105F58002000A7002708A000A00DA00D21001D0803
:105F6800200020068339200621009D001D14A03042
:105F78000032890BBC2F21009D149D18C12F1C08CD
:105F88002000A000A1012008A8002108A9002100E4
:105F98001B082000A000A1012008AA002108AB00CE
:105FA8002B08A1002A08A0000430A200210DA10C92
:105FB800A00CA20BDA2FFF302005A3000F3021051B
:105FC800A4002908A6002808A500A50EA60EF030F2
:105FD800A60525080F39A604F030A50523082504D1
:105FE800AC0024082604AD0021001D1020002D0857
:105FF800F3002C08F20008000034003480343F34E9
:10600800003400342034413400340034C83442347D
:10601800003400347A344434003440341C34463478
:1060280000345034C334473400342434743449348D
:106038008034963418344B342034BC34BE344C3459
:1060480028346B346E344E34F934023415345034F9
:10605800EC347834AD346034CA34F23449347134B1
:106068000034003480343F34CD34CC34CC343D3427
:106078000A34D73423343C346F34123483343A34FA
:106088001734B734D1343834AC34C53427343734C2
:10609800BD343734863435349534BF34D63433344C
:1060A8007734CC342B3432345F3470348934303420
:1060B800FF34E634DB342E340834E5343C341E3403
:1060C80060344234A2340D349434763467345C340A
:1060D80054344E34483443343F343C343834353403
:1060E800333430342D342B342934273425342234B6
:1060F80021341F341D341B34193417341634143426
:10610800123410340F340D340B3409340734053489
