:0400000080318128A2
:100008007E14803120007F08F2000B198B1E3B28DC
:1000180001302500BD070030BE3D3E08803AF000A3
:1000280080307002031D1A2803303D02031C272864
:1000380001302500B7000030B800BD01BE01013015
:10004800BF070030C03D25004008803AF000A730C7
:100058007002031D312810303F02031C3A2801307A
:100068002500B9000030BA00BF01C0010B11210002
:10007800911C48282000911C482801302500B70011
:100088000030B800200091102000111E74282100B3
:10009800111E7428FC30F0002530F10025003B08C3
:1000A800700786003C08713D8700010803196F2816
:1000B800FC30F0002530F1003B08700786003C0852
:1000C800713D8700010823009A0001302500BB0715
:1000D8000030BC3D7428BB01BC01B531DB25803143
:1000E8002000911D7C282100911D7C282000911161
:1000F80072082000FF007E10090080318328A73095
:100108008400B6308500A0308600023087000030B9
:10011800FF001730B63124268031FC3084002530AA
:100128008500F430FE000130FF00B631182680311A
:10013800F801F901FA01B730840002308500123065
:10014800FE000030FF00B6311826803120308400D0
:10015800033085001830FE000030FF00B631182645
:100168007E1020008D316A2D2200A501A601D53010
:100178002100DD005D082200A40021005408DE00F3
:100188005308DD00D30A0319D40A5D0884005E0809
:1001980085000008DF005F082200BB003B08031948
:1001A800E12F25303B060319EC2821005108860071
:1001B8005208870022003B08810001302100D10746
:1001C8000030D23D01302200A5070030A63DC128ED
:1001D800B301B401B101B201F82822003115013090
:1001E8002100D3070030D43D21005308840054086F
:1001F80085000008303A0319F128022953088400C1
:10020800540885000008B6313D268031031C422978
:100218002200B301B4010A30F3000030F4002200D8
:100228003408F6003308F500B631DC26803174084E
:100238002200B4007308B300210053088400540856
:1002480085000008D03EDD00FF3003180030DE00D6
:100258005D082200B30721005E082200B43D01308A
:100268002100D3070030D43D53088400540885008A
:100278000008B6313D26803103180F2921005308A4
:1002880084005408850012002E3A031D8A29220092
:10029800321701302100D3070030D43D2200B901C4
:1002A800BA01210053088400540885000008B631BB
:1002B8003D268031031C91292100530884005408ED
:1002C80085000008DD00DE0122003A08F400390844
:1002D800F3000A30F5000030F600B631DC26803134
:1002E80021005D087307DF005E08743DE0005F08C9
:1002F800D03E2200B900FF302100603D2200BA0044
:1003080001302100D3070030D43D55292200B9011E
:10031800BA01321691293215AD2921005408DE00A0
:100328005308DD00D30A0319D40A5D0884005E0867
:10033800850000082200BB00003A0319E12F643A47
:100348000319AD29023A03198F290F3A0319AD2968
:10035800C128003031052100DD00073022003205B8
:100368002100DE005D085E0403194A2F2200321EB8
:10037800C1290630B9000030BA0024088600870178
:10038800403FB500413FB600423FB700433FB80089
:1003980004302100DD005D082200A4073808210090
:1003A800C400220037082100C300220036082100BB
:1003B800C200220035082100C1000030C80000300A
:1003C800C7000030C6000030C500AE31C7268031F6
:1003D8000318152A220038082100A3002200370834
:1003E8002100A200220036082100A10022003508C1
:1003F8002100A000B531EC2580312100230822001E
:10040800B800210022082200B7002100210822009C
:10041800B600210020082200B5000330B1040030E6
:10042800B2042200AF01B00138083704360435049D
:100438000319F32A35082100DD00220036082100BF
:10044800DE00220037082100DF00220038082100E2
:10045800E00003105F0D600D823E2200AF00FF3008
:1004680003180030B000FF30AF07FF30B03D033055
:10047800F3000030F4003008F6002F08F500B6311C
:10048800DC26803174082200B0007308AF000A30FF
:100498002000A2000030A300220030082000A500A0
:1004A80022002F082000A400A93142218031200019
:1004B80023082200B000200022082200AF00B01F4D
:1004C800692AFF30AF07FF30B03D2F03FF3A95315F
:1004D80070258031200059082200AA002000580801
:1004E8002200A900200057082200A8002000560872
:1004F8002200A70038082000BF002200370820008B
:10050800BE00220036082000BD0022003508200069
:10051800BC0022002A082000C3002200290820006D
:10052800C200220028082000C1002200270820005D
:10053800C0008B313E23803120003F082200AA00F2
:1005480020003E082200A90020003D082200A80043
:1005580020003C082200A7002A082100C40022002D
:1005680029082100C300220028082100C200220017
:1005780027082100C1003F30C8008030C700003084
:10058800C6000030C500AE31C72680310318D12A15
:10059800FF302200AF07FF30F22A22002A0821008C
:1005A800C400220029082100C300220028082100D5
:1005B800C200220027082100C1004130C8002030B5
:1005C800C7000030C6000030C500AE31C7268031F4
:1005D800031CF32A01302200AF070030B03D22008F
:1005E8003A08803A2100DD0080305D02031DFF2AB1
:1005F8000D30220039020318392B220039089C31AA
:1006080051248031200059082100AC0020005808EE
:100618002100AB00200057082100AA00200056083E
:100628002100A900220038082100B0002200370864
:100638002100AF00220036082100AE002200350854
:100648002100AD0093317423803121002C08220051
:10065800B80021002B082200B70021002A08220038
:10066800B600210029082200B50022003008803A8F
:100678002100DD0080305D02031D452B0A30220079
:100688002F020318752B2200380837043604350466
:100698000319E82B38082100A3002200370821009D
:1006A800A200220036082100A100220035082100FE
:1006B800A000AB318D2380312100230822042104BE
:1006C8002004031DE82B22003008803A2100DD00B9
:1006D80080305D02031D732B023022002F02031CA1
:1006E800E82B22002A082100C40022002908210042
:1006F800C300220028082100C20022002708210088
:10070800C1004030C8008930C7007030C6005F3073
:10071800C500AE31C72680310318942BF730952BCE
:10072800F8302200AF07FF30B03D2F089531702513
:100738008031200059082200AA0020005808220011
:10074800A900200057082200A8002000560822000F
:10075800A70038082000A300220037082000A200C4
:10076800220036082000A100220035082000A00041
:1007780022002A082000A700220029082000A6003D
:10078800220028082000A500220027082000A40035
:10079800A1310B218031200023082200AE00200067
:1007A80022082200AD00200021082200AC00200011
:1007B80020082200AB000030B8000030B70000303D
:1007C800B6000030B500532C220038082100A300E1
:1007D800220037082100A200220036082100A100CB
:1007E800220035082100A000AB318D238031210083
:1007F80023082200AE00210022082200AD002100BB
:1008080021082200AC00210020082200AB002E089D
:100818002000B10022002D082000B00022002C0882
:100828002000AF0022002B082000AE000030AE31BF
:1008380031268031200031082100C4002000300812
:100848002100C30020002F082100C20020002E082C
:100858002100C100220038082100C8002200370802
:100868002100C700220036082100C60022003508F2
:100878002100C500B631FA26803121004408220043
:10088800B800210043082200B700210042082200D6
:10089800B600210041082200B500AF01B001BB013C
:1008A800BB0A0A303B060319902C3B082100DD00E7
:1008B800DE01DD35DE0DDD35DE0D9A305D078400A5
:1008C800B8305E3D8500003FDF00013FE000023F99
:1008D800E100033FE200620822002E02031D842C7F
:1008E8002100610822002D02031D842C21006008CC
:1008F80022002C02031D842C21005F0822002B02F9
:10090800031C902C01302100DD005D082200BB078C
:100918000A303B06031D592C3B082100DD00DE018F
:10092800DD1BDE032200390821005D07DF002200FD
:100938003A0821005E3DE00022002F0821005F07F1
:10094800E100220030082100603DE2006108220039
:10095800B302210062082200B43B39083A040319A3
:10096800B92CFF30B307FF30B43D03303105210007
:10097800DD000030220032052100DE005D085E0443
:100988000319CB2CFF302200B307FF30B43D2200FF
:10099800311D212D033031052100DD0000302200FA
:1009A80032052100DE005D085E040319EA2C5108B7
:1009B8008600520887002D3081000130D1070030B1
:1009C800D23D01302200A5070030A63D22003408A0
:1009D800803A2100DD0080305D02031DF62C0130D5
:1009E80022003302031C4C2D2100510886005208B6
:1009F8008700303081000130D1070030D23D01300E
:100A08002200A5070030A63DFF30B307FF30B43DF4
:100A1800EA2C210051088600520887002030810006
:100A28000130D1070030D23D01302200A507003047
:100A3800A63DFF30B307FF30B43D22003408803AAA
:100A48002100DD0080305D02031D2D2D01302200C4
:100A5800330203180D2D0330220031052100DD007B
:100A68000030220032052100DE005D085E04031913
:100A78004C2D51088600520887002D308100013026
:100A8800D1070030D23D01302200A5070030A63D35
:100A9800FF302100DD005D082200BB073B0A031977
:100AA800D92D3B082100DD00DE01DD35DE0DDD3509
:100AB800DE0D9A305D078400B8305E3D8500003F4A
:100AC8002000A000013FA100023FA200033FA300B5
:100AD80022002E082000A70022002D082000A600D2
:100AE80022002C082000A50022002B082000A400CA
:100AF800A93194218031200023082200AA00200077
:100B080022082200A900200021082200A8002000B5
:100B180020082200A70000302000B0000030AF00FD
:100B28000030AE000A30AD0022002A082000B400D0
:100B3800220029082000B300220028082000B20063
:100B4800220027082000B100A8316720803120004A
:100B580030082200AA0020002F082200A900200047
:100B68002E082200A80020002D082200A700270830
:100B7800303E2100DD0051088600520887005D08DC
:100B8800422D21005108860052088700303081002C
:100B98000130D1070030D23D01302200A5070030D6
:100BA800A63DFF30AF07FF30B03D3008803A210046
:100BB800DD0080305D02031DE42D013022002F028C
:100BC8000318C52D22003A08803A2100DD00803044
:100BD8005D02031DF22D093022003902031CF62D97
:100BE8000830F82D220039082100DD005D082200B8
:100BF800BB003B082100DD00DE01DD1BDE035D08D4
:100C08002200B90221005E082200BA3B3B08031902
:100C18001D2E210051088600520887002E308100C1
:100C28000130D1070030D23D01302200A507003045
:100C3800A63D3B08953170258031200059082200D7
:100C4800A300200058082200A20020005708220014
:100C5800A100200056082200A00023082000C3009D
:100C6800220022082000C200220021082000C10022
:100C7800220020082000C000220038082000BF0001
:100C8800220037082000BE00220036082000BD00E0
:100C9800220035082000BC008B313E238031200023
:100CA8003F082100A30020003E082100A2002000E8
:100CB8003D082100A10020003C082100A000AB3124
:100CC8008D238031210023082200AE002100220854
:100CD8002200AD00210021082200AC0021002008DC
:100CE8002200AB00FF302100DD005D082200BB07B9
:100CF8003B0A0319452F3B082100DD00DE01DD35E5
:100D0800DE0DDD35DE0D9A305D078400B8305E3DBE
:100D18008500003F2000A000013FA100023FA20083
:100D2800033FA30022002E082000A70022002D0860
:100D38002000A60022002C082000A50022002B0875
:100D48002000A400A931942180312000230822002A
:100D5800AA00200022082200A90020002108220061
:100D6800A800200020082200A70000302000B000C2
:100D78000030AF000030AE000A30AD0022002A0873
:100D88002000B400220029082000B300220028080F
:100D98002000B200220027082000B100A8316720F7
:100DA8008031200030082200AA0020002F082200ED
:100DB800A90020002E082200A80020002D082200EB
:100DC800A7002708303E2100DD00510886005208A0
:100DD80087005D0881000130D1070030D23D013025
:100DE8002200A5070030A63D3B082100DD00DE01FA
:100DF800DD35DE0DDD35DE0D9A305D078400B83057
:100E08005E3D8500003F2000AD00013FAE00023F7F
:100E1800AF00033FB00022002E082000B4002200DB
:100E28002D082000B30022002C082000B200220068
:100E38002B082000B100A83167208031200030083D
:100E48002200AE0020002F082200AD0020002E084E
:100E58002200AC0020002D08742E210051088600C5
:100E680052088700303081000130D1070030D23D70
:100E780001302200A5070030A63DFF30B907FF303A
:100E8800BA3D39083A040319C128312F2200240831
:100E980086008701403F2100DD00413FDE005D08FC
:100EA8002200AB0021005E082200AC00890D893BBE
:100EB8008909AD00AE0002302100DD005D08220086
:100EC800A407AE1F762F0330B1040030B204AB097B
:100ED800AC09AD09AE09AB0A0319AC0A0319AD0A8E
:100EE8000319AE0A39083A04031D842F2E082D046D
:100EF8002C042B04031D842F0130B9070030BA3DA0
:100F0800BB01BB0A0A303B060319C12F3B0821006D
:100F1800DD00DE01DD35DE0DDD35DE0D9A305D07E5
:100F28008400B8305E3D8500003FDF00013FE000EF
:100F3800023FE100033FE200620822002E02031D87
:100F4800B52F2100610822002D02031DB52F2100B5
:100F5800600822002C02031DB52F21005F08220023
:100F68002B02031CC12F01302100DD005D08220087
:100F7800BB070A303B06031D8A2F3B082100DD0012
:100F8800DE01DD1BDE035E08803ADF0022003A083E
:100F9800803A21005F02031DD52F22003908210065
:100FA8005D02A3310318A22B220039082100DD00BD
:100FB8005D082200BB00A331BE2BA431E42C003411
:100FC8000034003400340034003400340034003479
:100FD80000345F340034003400340034003400340A
:100FE800003407340034073400340034003400344B
:100FF80014347F3414347F3414340034003400340F
:1010080024342A347F342A3412340034003400342F
:101018002334133408346434623400340034003424
:1010280036344934553422345034003400340034D2
:101038000034053403340034003400340034003400
:101048001C34223441340034003400340034003479
:10105800413422341C340034003400340034003469
:1010680008342A341C342A34083400340034003458
:10107800083408343E34083408340034003400346A
:10108800A0346034003400340034003400340034B8
:101098000834083408340834083400340034003480
:1010A80060346034003400340034003400340034D8
:1010B800203410340834043402340034003400344A
:1010C8003E345134493445343E340034003400341D
:1010D800003442347F344034003400340034003467
:1010E80062345134493449344634003400340034CD
:1010F800223441344934493436340034003400341D
:101108001834143412347F3410340034003400346A
:1011180027344534453445343934003400340034F8
:101128003C344A34493449343034003400340034CF
:101138000134713409340534033400340034003484
:1011480036344934493449343634003400340034B0
:1011580006344934493429341E3400340034003408
:10116800003436343634003400340034003400346B
:101178000034AC346C3400340034003400340034AF
:101188000834143422344134003400340034003438
:101198001434143414341434143400340034003443
:1011A8004134223414340834003400340034003418
:1011B8000234013451340934063400340034003424
:1011C80032344934793441343E3400340034003404
:1011D8007E340934093409347E3400340034003450
:1011E8007F344934493449343634003400340034C7
:1011F8003E34413441344134223400340034003424
:101208007F344134413422341C34003400340034F7
:101218007F3449344934493441340034003400348B
:101228007F3409340934093401340034003400347B
:101238003E34413441345134723400340034003483
:101248007F340834083408347F34003400340034E0
:1012580041347F34413400340034003400340034E5
:101268002034403441343F340134003400340034F5
:101278007F340834143422344134003400340034C8
:101288007F34403440344034403400340034003437
:101298007F3402340C3402347F3400340034003498
:1012A8007F340434083410347F340034003400347C
:1012B8003E344134413441343E3400340034003447
:1012C8007F340934093409340634003400340034D6
:1012D8003E344134513421345E3400340034003417
:1012E8007F34093419342934463400340034003446
:1012F8002634493449344934323400340034003413
:10130800013401347F3401340134003400340034B2
:101318003F344034403440343F34003400340034E7
:101328001F342034403420341F3400340034003457
:101338003F344034383440343F34003400340034CF
:1013480063341434083414346334003400340034FF
:10135800033404347834043403340034003400345F
:101368006134513449344534433400340034003452
:101378007F344134413400340034003400340034C4
:101388000234043408341034203400340034003477
:10139800413441347F3400340034003400340034A4
:1013A8000434023401340234043400340034003488
:1013B8008034803480348034803400340034003405
:1013C800013402340434003400340034003400346E
:1013D80020345434543454347834003400340034D1
:1013E8007F344834443444343834003400340034CE
:1013F800383444344434283400340034003400345D
:1014080038344434443448347F34003400340034AD
:1014180038345434543454341834003400340034D8
:1014280008347E3409340234003400340034003483
:101438001834A434A434A4347C3400340034003484
:101448007F340834043404347834003400340034ED
:1014580000347D3400340034003400340034003467
:10146800803484347D340034003400340034003453
:101478007F341034283444340034003400340034C9
:1014880041347F34403400340034003400340034B4
:101498007C34043418340434783400340034003490
:1014A8007C34083404347C34003400340034003490
:1014B800383444344434383400340034003400348C
:1014C800FC34243424341834003400340034003418
:1014D800183424342434FC34003400340034003408
:1014E80000347C34083404340034003400340034CC
:1014F8004834543454342434003400340034003430
:1015080004347F344434003400340034003400346C
:101518003C34403440347C340034003400340034EB
:101528001C342034403420341C340034003400345B
:101538003C344034303440343C34003400340034DB
:10154800443428341034283444340034003400340B
:101558001C34A034A0347C3400340034003400340B
:101568004434643454344C34443400340034003447
:101578000834363441340034003400340034003444
:1015880000347F3400340034003400340034003434
:101598004134363408340034003400340034003424
:1015A800023401340134023401340034003400348C
:1015B8000234053405340234003400340034B531C3
:1015C800DE258A31B631012608002000BD003D0322
:1015D800031DF02A0430012B02303D06031DF62AB4
:1015E8000630012B03303D06031DFC2A0830012B71
:1015F80004303D06031D052B0A30B3003308BA003A
:10160800B9013930A0000030A10002309C31022419
:101618008A3120002108B8002008B7003808B30034
:101628003308BB003708B3003308BC00B531E325E5
:101638008A3122008F1104302000B3003308A00043
:101648003208B4003408A1003108B5003508F300A9
:1016580091308400B93085000008B6314B268A31B4
:101668002000B6003608A2003930B73162272200C0
:101678008F15080020003F088039C4004408C900BD
:101688003F35C4004408CF00BE1B4F144F08031950
:101698005A2B4F0A031D582B0030BF000030BE00E4
:1016A8000030BD000030BC00BE17622B0030BF0008
:1016B8000030BE000030BD000030BC004308803957
:1016C800C4004408C9064335C4004408CE00C21B00
:1016D8004E144E0803197D2B4E0A031D7B2B003038
:1016E800C3000030C2000030C1000030C000C21783
:1016F800852B0030C3000030C2000030C10000302C
:10170800C0004E08031D4F08031D932B0030BF0077
:101718000030BE000030BD000030BC0008003C08AE
:10172800C4004408F3004208B73119278B31740804
:101738002000D5007308D4005408C400C501C601B0
:10174800C7014708CD004608CC004508CB0044082F
:10175800CA005508C400C501C601C7014708D3001F
:101768004608D2004508D1004408D0003D08C4000E
:101778004408F3004108B73119278B317408200059
:10178800D5007308D4005408C400C501C601C701B8
:101798004408CA074508CB3D4608CC3D4708CD3D1F
:1017A8005508C400C501C601C7014408D00745084B
:1017B800D13D4608D23D4708D33D3E08C400440801
:1017C800F3004008B73119278B3174082000D50081
:1017D8007308D4005408C400C501C601C7014408F1
:1017E800CA074508CB3D4608CC3D4708CD3D5508BE
:1017F800C400C501C601C7014408D0074508D13D4A
:101808004608D23D4708D33D0830CA35CB0DCC0D2C
:10181800CD0D890B092C3D08C4004408F30040088D
:10182800B73119278B3174082000D5007308D4000C
:101838005408CA075508CB3D0030CC3DCD3D3C0887
:10184800C4004408F3004108B73119278B317408E4
:101858002000D5007308D4005408CA075508CB3DAA
:101868000030CC3DCD3D0830CA35CB0DCC0DCD0D6B
:10187800890B382C3C08C4004408F3004008B731F1
:1018880019278B3174082000D5007308D400540838
:10189800CA075508CB3D0030CC3DCD3D3D08C400BE
:1018A8004408F3004208B73119278B317408200027
:1018B800D5007308D4005408D0075508D13D00302E
:1018C800D23DD33D3E08C4004408F3004108B73177
:1018D80019278B3174082000D5007308D4005408E8
:1018E800D0075508D13D0030D23DD33D3E08C40055
:1018F8004408F3004208B73119278B3174082000D7
:10190800D5007308D4005408C4005508C500C601A2
:10191800C7010830C435C50DC60DC70D890B8E2CFF
:101928004408D0074508D13D4608D23D4708D33D75
:101938004A08C4004B08C5004C08C6004D08C7003B
:101948001830C736C60CC50CC40C890BA52C440826
:10195800D0074508D13D4608D23D4708D33D083059
:10196800CA35CB0DCC0DCD0D890BB42C4F084E07C5
:10197800C400C501C50D4408823ED400FF30453D72
:10198800D500D21BDC2C0130D035D10DD20DD30DB2
:10199800890BC82CCD1B50140130CA35CB0DCC0D8A
:1019A800CD0D890BD12CFF30D407FF30D53DC52C88
:1019B800CE01CD1FF52CFF304A05C400FF304B0582
:1019C800C500FF304C05C6007F304D05C7004708ED
:1019D800460445044404031DF32C501CF52CCE0189
:1019E800CE0A4E0803191E2D0130D0070030D13D14
:1019F8000030D23D0030D33D531C1E2D5008C4008A
:101A08005108C5005208C6005308C7000130C80075
:101A1800C737C60CC50CC40CC80B0C2D4708D3001F
:101A28004608D2004508D1004408D0000130D40748
:101A38000030D53D5508803AC40080304402031D6B
:101A4800272DFF305402031C332D7F302000D30094
:101A58008030D2000030D1000030D0005D2D200051
:101A68005508803AC40080304402031D3D2D0130E2
:101A7800540203184A2D00302000D3000030D20051
:101A88000030D1000030D000C9015D2D200054087D
:101A9800C4004408CF00FF30D005FF30D1057F30A7
:101AA800D2050030D3054F18D2174F36C40044086A
:101AB800D3004908C4004408D3045308BF0052089F
:101AC800BE005108BD005008BC0008002400E80111
:101AD800E90100302500DA000030D9000030D800D4
:101AE8000030D700A030860002308700C93084005B
:101AF800023085000A302200E20016001A00E20BCC
:101B0800812DEC01ED0100302400ED000030EC00E7
:101B18000030EB000030EA00A83100208D31293078
:101B28002200E3009630E2007F30890B992DE20B0A
:101B3800992DE30B992DC9302200E200620821009B
:101B4800D80020302200E30063082100D900D330F8
:101B58002200E40064082100DA00D7302200E50002
:101B680065082100DB006A302200E60066082100D3
:101B7800DC006E30A431F5248D3121005808220094
:101B8800E700E70EE70D0F086706DF3967068F00E5
:101B98008F1622000C0EE200620C0139E2000130BF
:101BA800E206E20EE20D0C086206DF3962068C00DE
:101BB800D330E20062082100D1000C30D20000309E
:101BC800D3002030A23196228D3105302100B30098
:101BD8000030B400C930AB3110238D3121003408F6
:101BE8002200EF00210033082200EE002500370311
:101BF8003804031D182FB731C2278D312400680817
:101C08002200E2000130E235FF3E031D072E623557
:101C1800A03E86000130870021004D08C03F4E08D5
:101C2800C13F4F08C23F5008C33F01302400E807B6
:101C38000030E93D6908803A2200E2008030620203
:101C4800031D292E143024006802031C152F2400BC
:101C580069082100C200240068082100C100A030E2
:101C6800AC310C248D31210044082500DA00210014
:101C780043082500D900210042082500D80021008A
:101C880041082500D7005A082000DD002500590822
:101C98002000DC00250058082000DB00250057083C
:101CA8002000DA004330D900FA30D8000030D700DD
:101CB8000030D600903104208D31200059082100D1
:101CC800A300200058082100A20020005708210086
:101CD800A100200056082100A000B531EC258D3167
:101CE80021002308AC002208AB002108AA00200824
:101CF800A90024006D082000BF0024006C08200003
:101D0800BE0024006B082000BD0024006A082000E3
:101D1800BC0087308400B9308500003F2200E20013
:101D2800013FE30062082000AE00220063082000A3
:101D3800AF00B001B1010030AE3131268D31200045
:101D48003108C3003008C2002F08C1002E08C000A7
:101D58008B313E238D3120003F082100B000200048
:101D68003E082100AF0020003D082100AE00200001
:101D78003C082100AD00933174238D3121002C08DB
:101D88002200EB0021002B082200EA0021002A088B
:101D98002200E900210029082200E8008730840099
:101DA800B9308500003FE200013FE30062082000EF
:101DB800AE00220063082000AF00B001B10100307E
:101DC800AE3131268D3120003108D9003008D800D5
:101DD8002F08D7002E08D60022006B082000DD004F
:101DE80022006A082000DC00220069082000DB00CD
:101DF800220068082000DA00903104208D3120008C
:101E080059082400ED00200058082400EC002000A8
:101E180057082400EB00200056082400EA00E801D7
:101E2800E9012500B701B8012400EE01EF016F08B0
:101E3800803A2200E20080306202031D262F05301E
:101E480024006E0203186B2F24006E35C93E8600ED
:101E580002308700403F2200E200413FE300630870
:101E6800803AE40080306402031D3C2F283062026F
:101E78000318542F24006E35C93E860002308700AF
:101E8800403F2200E200413FE3006308803AE4005B
:101E980080306402031D522F0B3062020318592F41
:101EA80001302200EC070030ED3D01302400EE0740
:101EB8000030EF3D6F08803A2200E2008030620275
:101EC800031D692F053024006E02031C282F2500EE
:101ED8005A082100C400250059082100C300250024
:101EE80058082100C200250057082100C1004130D0
:101EF800C8002030C7000030C6000030C500AE3131
:101F0800C7268D31031C8D2F01302200EC070030CD
:101F1800ED3D22006D08803AE20080306202031D28
:101F2800972F0A306C02031C9B2F22008F1225006A
:101F380039033A04031DCD2D0C302100D1000030A7
:101F4800D20050302200E20062082100D300203085
:101F5800A131D0218D310C302200C7000030C800DB
:101F6800250056082200CC00250055082200CB0089
:101F7800250054082200CA00250053082200C90081
:101F88005030E2006208CD00C930E3006308CE009B
:101F98000530CF000030D0006F08D2006E08D100A5
:101FA80025005A082200D600250059082200D5002D
:101FB800250058082200D400250057082200D30025
:101FC80024006D082200DA0024006C082200D900E1
:101FD80024006B082200D80024006A082200D700D9
:101FE8001930DB000030DC002030AD31A3258D3105
:081FF8002500B901BA01CD2D4D
:1020020021001116080020005D088039DE005E08FC
:10201200E3005D35DE005E08EE00DC1B6E146E0828
:10202200031921286E0A031D1E280030DD0000302E
:10203200DC000030DB000030DA00DC17DD0129288B
:102042000030DD000030DC000030DB000030DA0060
:1020520059088039DE005E08E3065935DE005E0865
:10206200EF00D81B6F146F08031945286F0A031D70
:1020720042280030D9000030D8000030D7000030AC
:10208200D600D817D9014D280030D9000030D80029
:102092000030D7000030D6005908580457045604BF
:1020A200031D68280030DD000030DC000030DB005A
:1020B2000030DA008030DC047F30DD045D08D900B6
:1020C2005C08D8005B08D7005A08D60008006E08E2
:1020D200031D7C280030DD000030DC000030DB0016
:1020E2000030DA005D08D9005C08D8005B08D70030
:1020F2005A08D60008006F08DE00DF01DE09DF099A
:10210200DE0A0319DF0A6E085E07E0005F080318A3
:102112005F0AE10060087F3EE8000030613DE900AF
:102122005D08E7005C08E6005B08E5005A08E40089
:102132000030DD000030DC000030DB000030DA006F
:102142000030ED000030EC000030EB000030EA001F
:10215200EF011A306F020318E6286F080319C82826
:102162000130E435E50DE60DE70D890BB2280130AB
:10217200DA35DB0DDC0DDD0D890BB928ED1B5A14A8
:102182000130EA35EB0DEC0DED0D890BC228590833
:102192006702031DD62858086602031DD628570871
:1021A2006502031DD62856086402031CE1286D1738
:1021B2005608E4025708E53B5808E63B5908E73B56
:1021C2000130DE005E08EF07AA286708660465048E
:1021D2006404031D6A14DC1B03290130DA35DB0DAC
:1021E200DC0DDD0D890BEF28ED1B5A140130EA35A9
:1021F200EB0DEC0DED0D890BF828FF30E807FF30F1
:10220200E93DEC28EF01ED1F1C29FF306A05DE00D5
:10221200FF306B05DF00FF306C05E0007F306D059D
:10222200E100610860045F045E04031D1A295A1C60
:102232001C29EF01EF0A6F08031945290130DA075B
:102242000030DB3D0030DC3D0030DD3D5D1C4529CA
:102252005A08DE005B08DF005C08E0005D08E10070
:102262000130E200E137E00CDF0CDE0CE20B332937
:102272006108DD006008DC005F08DB005E08DA0050
:102282000130E8070030E93D6908803ADE0080301D
:102292005E02031D4E29FF306802031C5D29FF30D8
:1022A2002000E8000030E9000030DD000030DC00F2
:1022B2000030DB000030DA0020006908803ADE00DE
:1022C20080305E02031D67290130680203187529F8
:1022D2002000E801E9010030DD000030DC000030C0
:1022E200DB000030DA00E30120006808DE005E084F
:1022F200EE006E1C7E29DC1782297F30DE005E082C
:10230200DC056E36DE005E08DD006308DE005E0876
:10231200DD045D08D9005C08D8005B08D7005A08C4
:10232200D60008002200C400C001C101C201C301DD
:10233200C501C6014608803A2100EB006408803AD4
:102342006B02031DA7296308220045020318B32A62
:10235200220045082100EB000130EB35FF3E031D52
:10236200AE296B35220044072100EC006C08860080
:1023720002308700403FC100413FC200423FC300DC
:10238200433FC400220042082100ED000130ED3538
:10239200FF3E031DC8296D35220044072100EE00CF
:1023A2006E08860002308700403FC500413FC600EC
:1023B200423FC700433FC800AE31C72691310318E0
:1023C200E82922004608C3004508C200262A220046
:1023D20040082100EB000130EB35FF3E031DED29E3
:1023E2006B35220044072100EC006C0886000230A5
:1023F2008700403FC100413FC200423FC300433F0C
:10240200C400220045082100ED000130ED35FF3EF9
:10241200031D072A6D35220044072100EE006E08D5
:10242200860002308700403FC500413FC600423F60
:10243200C700433FC800AE31C72691310318262A90
:1024420022004608C1004508C0002200453521008F
:102452006907EB006B088600023087001600010452
:102462000319692A6A08860001308700FC30EB00F4
:102472002530EC00403F6B07D100413F6C3DD2005C
:102482003E30D300B930D40022004508013E21007D
:10249200D50000302200463D2100D600220045082A
:1024A2002100ED000130ED35FF3E031D542A6D354C
:1024B200220044072100EE006E08860002308700E9
:1024C200403FD700413FD800423FD900433F9E2AB8
:1024D2006A08860001308700FC30EB002530EC00F2
:1024E200403F6B07D100413F6C3DD2006030D300CA
:1024F200B930D40022004508013E2100D500003049
:102502002200463D2100D600220045082100ED00B0
:102512000130ED35FF3E031D8A2A6D352200440746
:102522002100EE006E08860002308700403FD7008F
:10253200413FD800423FD900433FDA008031B82002
:10254200913121006A088600013087005108810715
:1025520041315208813D7F3101302200C5070030F0
:10256200C63D9B2921006A08860001308700FC30A5
:10257200EB002530EC00403F6B07D100413F6C3D42
:10258200D2000030D300B930D4006808D800670800
:10259200D7006608D6006508D5008031B820913191
:1025A20021006A0886000130870051088107413105
:1025B2005208813D7F31220040082100EB000130AA
:1025C200EB35FF3E031DE12A6B3522004407210053
:1025D200EC006C08860002308700403FA900413FB2
:1025E200AA00423FAB00433FAC0022004208210058
:1025F200ED000130ED35FF3E031DFB2A6D35220053
:1026020044072100EE006E08860002308700403F3A
:10261200A000413FA100423FA200433FA300B531C9
:10262200EC25913121002308B0002208AF002108D7
:10263200AE002008AD0093317423913121002C08A3
:102642002200BF0021002B082200BE0021002A0820
:102652002200BD00210029082200BC0021006A08D6
:10266200860001308700FC30EB002530EC00403F53
:102672006B07D100413F6C3DD200C330D300B8306C
:10268200D40022004208013E2100D5000030220081
:10269200433D2100D60022004008013E2100D70020
:1026A20000302200413D2100D80022003F082100D5
:1026B200DC0022003E082100DB0022003D08210050
:1026C200DA0022003C082100D9008031B820210024
:1026D2006A0886000130870051088107413152089B
:1026E200813D7F31080021002C088039B10031087A
:1026F200BD002C35B1003108BF00AB1B3F143F08B1
:102702000319912B3F0A031D8E2B0030AC000030C1
:10271200AB000030AA000030A900AB17AC01992B26
:102722000030AC000030AB000030AA000030A9003D
:1027320030088039B1003108BE003E083D06031D55
:102742003D173035B1003108BE00AF1B3E143E08C4
:102752000319B92B3E0A031DB62B0030B00000301E
:10276200AF000030AE000030AD00AF17B001C12B9A
:102772000030B0000030AF000030AE000030AD00DD
:102782003F083E020318072C3D1FCB2B8030B100BF
:102792003108BD063F08B1003108C0003E08B10053
:1027A2003108BF004008B1003108BE002908B1005D
:1027B2003108C0002D08B1003108A9004008B1005D
:1027C2003108AD002A08B1003108C0002E08B1005E
:1027D2003108AA004008B1003108AE002B08B10050
:1027E2003108C0002F08B1003108AB004008B10029
:1027F2003108AF002C08B1003108C0003008B10028
:102802003108AC004008B1003108B000C0013F08F7
:10281200B100B201B109B209B10A0319B20A3E0804
:102822003107B30032080318320AB4003408803A80
:10283200B50080303502031D202C1A303302031CF0
:10284200542C21002C082B042A04290403192B2CB4
:1028520001302C2C0030B1003108C0000030AC0037
:102862000030AB000030AA000030A9003E08B100E1
:102872003108BF00592C401C442C40360138B100AD
:102882003108C000462C0310C00C2918C0170130B3
:10289200B100AC37AB0CAA0CA90CB10B4A2C01301D
:1028A200B1003108BF0721003E083F02031C3C2C47
:1028B2003D1B8C2C3F08031D672C0030AC00003000
:1028C200AB000030AA000030A90008002D08A907BB
:1028D2002E08AA3D2F08AB3D3008AC3D2C1C192D0B
:1028E200401C7B2C0310C00C40080138B100310899
:1028F200C0007D2C0310C00C2918C0170130B10094
:10290200AC37AB0CAA0CA90CB10B812C0130B10075
:102912003108BF07192D2C08803AB1003008803ADF
:102922003102031D9E2C2F082B02031D9E2C2E0804
:102932002A02031D9E2C2D0829020318E92CFF30C0
:10294200B100FF30B200FF30B300FF30B4002D08F9
:10295200B5002E08B6002F08B7003008B8002909C4
:10296200B9002A09BA002B09BB002C09BC00B90A1C
:102972000319BA0A0319BB0A0319BC0A3908B507B5
:102982003A08B63D3B08B73D3C08B83D3508B107AB
:102992003608B23D3708B33D3808B43D3408AC00C0
:1029A2003308AB003208AA003108A9008030B10018
:1029B2003108BD06C009C00A4008031DF12C0130D0
:1029C200A9070030AA3D0030AB3D0030AC3DF12CF0
:1029D2002D08A9022E08AA3B2F08AB3B3008AC3BBE
:1029E2002C082B042A042904031D172D4008031D5B
:1029F200172D0030AC000030AB000030AA000030D0
:102A0200A90008000130A935AA0DAB0DAC0D890B48
:102A1200042DC01B2914401C102D0314112D03106A
:102A2200C00D3F080319172D0130BF02AB1F032D44
:102A3200BE01C01F242D40087F39031D222D291CF1
:102A4200242DBE01BE0A3E080319502D0130A907EC
:102A52000030AA3D0030AB3D0030AC3D2C1C502D67
:102A62002908B1002A08B2002B08B3002C08B400D0
:102A72000130B500B437B30CB20CB10CB50B3B2D21
:102A82003408AC003308AB003208AA003108A900B0
:102A92003F0A0319502D0130B1003108BF073F0A28
:102AA200031D3F08031D602D0030AC000030AB0059
:102AB2000030AA000030A9003F080319BD013F1CE5
:102AC200642DAB17682D7F30B1003108AB053F365E
:102AD200B1003108AC00BD1F0800AC17080020008F
:102AE200EE00EE1FBB2EEE09EE0A6E08803A123E91
:102AF200031C322E0A30A2000030A3006E08F5003B
:102B0200F601F51BF6036430F3000030F400A8313F
:102B1200AA20953174082000A5007308A400A931E9
:102B22004221953120002208DA002308DB00DA3541
:102B3200DB0DDA35DB0D5A08243EDC0000305B3D4C
:102B4200DD0034305C078400B8305D3D8500003F15
:102B5200DE00013FDF00023FE000033FE1006108C9
:102B6200BF006008BE005F08BD005E08BC006430A4
:102B7200A2000030A3006E08A400A501A41BA503B7
:102B8200A9314221953120002208E2002308E30006
:102B9200E235E30DE235E30D6208483EE400003021
:102BA200633DE500343064078400B830653D85003C
:102BB200003FE600013FE700023FE800033FE90073
:102BC2006908C3006808C2006708C1006608C0003F
:102BD2008B313E23953120003F08ED003E08EC008A
:102BE2003D08EB003C08EA000A30F3000030F40034
:102BF2006E08F500F601F51BF603A831AA209531FF
:102C020074088500730884008435850D8435850D2C
:102C120034308407B830853D003F2000DA00013FA0
:102C2200DB00023FDC00033FDD005D08BF005C0803
:102C3200BE005B08BD005A08BC006D08C3006C08EA
:102C4200C2006B08C1006A08C0008B313E2320001D
:102C52003F08D9003E08D8003D08D7003C08D600FE
:102C620008006E08803A753E031C9D2E0A30F30060
:102C72000030F4006E08F500F601F51BF603A831EA
:102C8200AA20953174088500730884008435850D67
:102C92008435850D34308407B830853D003F2000EF
:102CA200DA00013FDB00023FDC00033FDD005D088C
:102CB200BF005C08BE005B08BD005A08BC000A30B9
:102CC200A2000030A3006E08A400A501A41BA50366
:102CD200A9314221953120002208DE002308DF00BD
:102CE200DE35DF0DDE35DF0D5E08243EE00000300C
:102CF2005F3DE100343060078400B830613D8500FB
:102D0200003FE200013FE300023FE400033FE50031
:102D12006508C3006408C2006308C1006208C000FD
:102D22008B313E2320003F08D9003E08D8003D08E1
:102D3200D7003C08D60008006E08DA00DB01DA355D
:102D4200DB0DDA35DB0D34305A078400B8305B3DD9
:102D52008500003FDC00013FDD00023FDE00033F53
:102D6200DF005F08D9005E08D8005D08D7005C0864
:102D7200D60008006E08803A123E031C772F0A30F4
:102D8200A2000030A3006E08F500F601F51BF60361
:102D92006430F3000030F400A831AA2095317408A1
:102DA2002000A5007308A400A9314221953120001A
:102DB2002208DA002308DB00DA35DB0DDA35DB0D19
:102DC2005A08243EDC0000305B3DDD0000305C0729
:102DD2008400B8305D3D8500003FDE00013FDF002A
:102DE200023FE000033FE1006108BF006008BE004F
:102DF2005F08BD005E08BC006430A2000030A30082
:102E02006E08A400A501A41BA503A9314221953196
:102E120020002208E2002308E300E235E30DE23558
:102E2200E30D6208483EE4000030633DE5000030F7
:102E320064078400B830653D8500003FE600013F2D
:102E4200E700023FE800033FE9006908C3006808A1
:102E5200C2006708C1006608C0008B313E2395316D
:102E620020003F08ED003E08EC003D08EB003C0866
:102E7200EA000A30F3000030F4006E08F500F601B3
:102E8200F51BF603A831AA20953174088500730852
:102E920084008435850D8435850D00308407B83073
:102EA200853D003F2000DA00013FDB00023FDC00ED
:102EB200033FDD005D08BF005C08BE005B08BD008B
:102EC2005A08BC006D08C3006C08C2006B08C10040
:102ED2006A08C0008B313E2320003F08D9003E081B
:102EE200D8003D08D7003C08D60008006E08803A9A
:102EF200753E031CE22F0A30F3000030F4006E0826
:102F0200F500F601F51BF603A831AA2095317408E5
:102F12008500730884008435850D8435850D003065
:102F22008407B830853D003F2000DA00013FDB0016
:102F3200023FDC00033FDD005D08BF005C08BE000D
:102F42005B08BD005A08BC000A30A2000030A30092
:102F52006E08A400A501A41BA503A9314221953145
:102F620020002208DE002308DF00DE35DF0DDE351B
:102F7200DF0D5E08243EE00000305F3DE1000030DE
:102F820060078400B830613D8500003FE200013FE8
:102F9200E300023FE400033FE5006508C300640864
:102FA200C2006308C1006208C0008B313E232000CA
:102FB2003F08D9003E08D8003D08D7003C08D6009B
:102FC20008006E08DA00DB01DA35DB0DDA35DB0DDD
:102FD20000305A078400B8305B3D8500003FDC00BA
:102FE200013FDD00023FDE00033FDF005F08D90042
:102FF2005E08D8005D08D7005C08D60008000034DF
:1030020000349934C534AB34CE3432340B34CF343B
:10301200D83456341D3464341634FD34D334073472
:10302200F4349E343134AC343A343534FF34C83459
:103032002C345134E9346334E234FA34273497348B
:10304200AD340E3468343C346334A534A634583479
:103052007534C134B034F334BB346A347E349034C2
:10306200593409349C343B349734A23452345F349B
:103072008134C6344434F4344F346D348A342E34BB
:103082005B34B7349E34853495341C345034E13487
:103092008334783446344A344D34D3348834293432
:1030A200AF34B0346A34823461341B34A434E6342D
:1030B20077347F34B2344D34B934D4347C34B934B7
:1030C200F63420343334123438348B34FD347634CD
:1030D2002E34EF34EB34DD34E03444342534BE3462
:1030E20002342734C7341534CC348C340934713467
:1030F200DA34E8341F34DA3414344334D134C53486
:10310200F3345C3436346E343D34F734F8340A34F4
:103112002B349334EE34A134E53438342034C234C1
:1031220007345B34C2346934C934F0340C340D349E
:10313200DF3494341A34A63411343F34D434523444
:103142005E34CB349B34F9349034603455349D343E
:1031520086340434433436344834AF348D345534F1
:10316200AA34CC346F34FE3464346734A1349A34D4
:1031720072340334B7343134BC34A8347934EB3488
:10318200A83472346D3440346634D934A3342434D0
:103192007034BD34B5348F34BE3416347B34EC34E1
:1031A2005C347534993447349234DE3457342334E2
:1031B2008434BA34413488344A3411348F347C3400
:1031C2000534E534C034D734CB344E340E34B33402
:1031D200DD342A341834183413348134D6347B3431
:1031E200F134E2343434D0343F344934FA34B43430
:1031F20029342D34EC341F34E7348634223413342A
:10320200A2348A346734B8346C342134A934DC34BF
:103212007A344534BF347734B434EE3471341434F0
:1032220056348D349334BF34983426345D34DB34D1
:103232008E3442344B3470344034E934853484342F
:103242000F341D34CA342F34C1346F344B344B34F1
:10325200D734D2341234E03419347934DC34833440
:10326200FB341A343E3428343534B134F0344C341F
:103272002334D534E634E734ED347E3428343D3417
:10328200F934A4343C34963437340F34F234F23403
:1032920021346B34E4345934EF34C0342A343A34B0
:1032A2000D34A334C8349134C33408340634F534AD
:1032B200D5346C3410345E341B34C734DE34AA3453
:1032C20054343334913401349A3498345F3465344D
:1032D2008C34FC344934CE34423457348734AD34E0
:1032E200A0343434653406346E349F34AB346234E3
:1032F2007834FB34BD34C934B63450347334D634E4
:1033020051344F3494347D349F34E4345A34193474
:10331200893480344C34B23447342B348234D1343F
:10332200A534483460347A346B34E334AE341E341A
:103332007D348734B834B534B3342C3476344134E4
:10334200FC34D8343934EA3432347334F7348E34BA
:1033520024341734E1342534EA34BC342F3446346F
:103362000834DF34CD34ED34C63474340334893454
:10337200D0341034153422341E34BB34DB34F834E8
:103382000A346134CF345334C434CA340134373448
:10339200D234AE3417349C341C340534D934FF345F
:1033A200FE3466343B3454343034CD34F534303466
:1033B2002634A934E3349B34E83402342D346F3498
:1033C200A734F6346234C43469345D34AC34A03486
:1033D2007F343934BA340B34B134923474346834AF
:1033E2005334F1349634C3349D345A345834A734A8
:1033F2008B343E344E340C344534953480340034AE
:1034020000349934C534AB34CE3432340B34CF3437
:10341200D83456341D3464341634FD34D33407346E
:10342200F4349E343134AC343A343534FF34C83455
:103432002C345134E9346334E234FA342734973487
:10344200AD340E3468343C346334A534A634583475
:103452007534C134B034F334BB346A347E349034BE
:10346200593409349C343B349734A23452345F3497
:103472008134C6344434F4344F346D348A342E34B7
:103482005B34B7349E34853495341C345034E13483
:103492008334783446344A344D34D334883429342E
:1034A200AF34B0346A34823461341B34A434E63429
:1034B20077347F34B2344D34B934D4347C34B934B3
:1034C200F63420343334123438348B34FD347634C9
:1034D2002E34EF34EB34DD34E03444342534BE345E
:1034E20002342734C7341534CC348C340934713463
:1034F200DA34E8341F34DA3414344334D134C53482
:10350200F3345C3436346E343D34F734F8340A34F0
:103512002B349334EE34A134E53438342034C234BD
:1035220007345B34C2346934C934F0340C340D349A
:10353200DF3494341A34A63411343F34D434523440
:103542005E34CB349B34F9349034603455349D343A
:1035520086340434433436344834AF348D345534ED
:10356200AA34CC346F34FE3464346734A1349A34D0
:1035720072340334B7343134BC34A8347934EB3484
:10358200A83472346D3440346634D934A3342434CC
:103592007034BD34B5348F34BE3416347B34EC34DD
:1035A2005C347534993447349234DE3457342334DE
:1035B2008434BA34413488344A3411348F347C34FC
:1035C2000534E534C034D734CB344E340E34B334FE
:1035D200DD342A341834183413348134D6347B342D
:1035E200F134E2343434D0343F344934FA34B4342C
:1035F20029342D34EC341F34E73486342234133426
:10360200A2348A346734B8346C342134A934DC34BB
:103612007A344534BF347734B434EE3471341434EC
:1036220056348D349334BF34983426345D34DB34CD
:103632008E3442344B3470344034E934853484342B
:103642000F341D34CA342F34C1346F344B344B34ED
:10365200D734D2341234E03419347934DC3483343C
:10366200FB341A343E3428343534B134F0344C341B
:103672002334D534E634E734ED347E3428343D3413
:10368200F934A4343C34963437340F34F234F234FF
:1036920021346B34E4345934EF34C0342A343A34AC
:1036A2000D34A334C8349134C33408340634F534A9
:1036B200D5346C3410345E341B34C734DE34AA344F
:1036C20054343334913401349A3498345F34653449
:1036D2008C34FC344934CE34423457348734AD34DC
:1036E200A0343434653406346E349F34AB346234DF
:1036F2007834FB34BD34C934B63450347334D634E0
:1037020051344F3494347D349F34E4345A34193470
:10371200893480344C34B23447342B348234D1343B
:10372200A534483460347A346B34E334AE341E3416
:103732007D348734B834B534B3342C3476344134E0
:10374200FC34D8343934EA3432347334F7348E34B6
:1037520024341734E1342534EA34BC342F3446346B
:103762000834DF34CD34ED34C63474340334893450
:10377200D0341034153422341E34BB34DB34F834E4
:103782000A346134CF345334C434CA340134373444
:10379200D234AE3417349C341C340534D934FF345B
:1037A200FE3466343B3454343034CD34F534303462
:1037B2002634A934E3349B34E83402342D346F3494
:1037C200A734F6346234C43469345D34AC34A03482
:1037D2007F343934BA340B34B134923474346834AB
:1037E2005334F1349634C3349D345A345834A734A4
:0E37F2008B343E344E340C34453495348034E0
:103804002000AB001030AF000030B000AE012B0838
:103814002E0203184C2C2E08A200A3012208200714
:1038240086002308213D87000108A400A501300873
:10383400A7002F08A6000730A800270DA70CA60C88
:10384400A80B1F2C24082606A90025082706AA0071
:10385400FF302905AC0000302A05AD002D08850095
:103864002C0884008435850D003084079830853D0C
:10387400003FA200013FA3002F08A500A4012208D5
:103884002406AF0023082506B0000130A200220858
:10389400AE07092C2F35A000300DA100080021002F
:1038A400A8006E302802031C552D0A302000A20007
:1038B4000030A300210028082000DA00DB015A08A8
:1038C400F5005B08F6006430F3000030F400A83122
:1038D400AA209C3174082000A5007308A400A93113
:1038E40042219C3120002208DC002308DD00DC3565
:1038F400DD0DDC35DD0D5C08243EDE0000305D3D71
:10390400DF0034305E078400B8305F3D8500003F3F
:10391400E000013FE100023FE200033FE3006308EF
:10392400BF006208BE006108BD006008BC006430CE
:10393400A2000030A300210028082000E400E501D3
:103944006408A4006508A500A93142219C31200027
:103954002208E6002308E700E635E70DE635E70D23
:103964006608483EE8000030673DE90034306807E7
:103974008400B830693D8500003FEA00013FEB0058
:10398400023FEC00033FED006D08C3006C08C20069
:103994006B08C1006A08C0008B313E239C312000B3
:1039A4003F082100A70020003E082100A6002000B7
:1039B4003D082100A50020003C082100A4000A3095
:1039C400F3000030F40028082000DA00DB015A0874
:1039D400F5005B08F600A831AA209C317408850024
:1039E400730884008435850D8435850D343084074F
:1039F400B830853D003F2000DC00013FDD00023F80
:103A0400DE00033FDF005F08BF005E08BE005D0804
:103A1400BD005C08BC00210027082000C300210071
:103A240026082000C200210025082000C100210032
:103A340024082000C0008B313E239C3120003F0825
:103A44002100A30020003E082100A20020003D0820
:103A54002100A10020003C082100A0003F302000EC
:103A6400BF000030BE000030BD000030BC002100AB
:103A740023082000C300210022082000C2002100E6
:103A840021082000C100210020082000C0008B3143
:103A94003E2320003F08D9003E08D8003D08D70047
:103AA4003C08D60008000B3021002802031CF32D2B
:103AB4000A30F3000030F40028082000DA00DB01AB
:103AC4005A08F5005B08F600A831AA209C31740856
:103AD4008500730884008435850D8435850D343064
:103AE4008407B830853D003F2000DC00013FDD0045
:103AF400023FDE00033FDF005F08BF005E08BE0038
:103B04005D08BD005C08BC000A30A2000030A300C0
:103B1400210028082000E000E1016008A4006108F9
:103B2400A500A93142219C3120002208E20023088B
:103B3400E300E235E30DE235E30D6208243EE400E0
:103B44000030633DE500343064078400B830653DDF
:103B54008500003FE600013FE700023FE800033F25
:103B6400E9006908C3006808C2006708C100660864
:103B7400C0008B313E239C3120003F082100A70068
:103B840020003E082100A60020003D082100A500D9
:103B940020003C082100A4003F302000BF0000307A
:103BA400BE000030BD000030BC002100270820000A
:103BB400C300210026082000C2002100250820009F
:103BC400C100210024082000C0008B313E232000C6
:103BD4003F08D9003E08D8003D08D7003C08D6006D
:103BE40008003F302000BF000030BE000030BD00A0
:103BF4000030BC00210028082000DA00DB01DA359F
:103C0400DB0DDA35DB0D34305A078400B8305B3D08
:103C14008500003FDC00013FDD00023FDE00033F82
:103C2400DF005F08C3005E08C2005D08C1005C08D5
:103C3400C0008B313E2320003F08D9003E08D80045
:103C44003D08D7003C08D6000800F02F750803197A
:103C54003D2E250035080138F7007708B500733587
:103C64007607F70077088600023087000130C03FEE
:103C74000030C13F080025003508FE39F7007708F9
:103C8400B50073357607F7007708860002308700A1
:103C94000030C03FC13F080075080319632E25009A
:103CA40035080238F7007708B50073357607F70052
:103CB40077088600023087000130C03F0030C13FE2
:103CC400080025003508FD39F7007708B50073357D
:103CD4007607F70077088600023087000030C03F7F
:103CE400C13F080075080319892E250035080438DA
:103CF400F7007708B50073357607F7007708860074
:103D0400023087000130C03F0030C13F0800250069
:103D14003508FB39F7007708B50073357607F700E7
:103D240077088600023087000030C03FC13F08009A
:103D340075080319AF2E250035080838F7007708F1
:103D4400B50073357607F7007708860002308700E0
:103D54000130C03F0030C13F080025003508F73965
:103D6400F7007708B50073357607F7007708860003
:103D7400023087000030C03FC13F080075080319B6
:103D8400D52E250035081038F7007708B5007335AF
:103D94007607F70077088600023087000130C03FBD
:103DA4000030C13F080025003508EF39F7007708D7
:103DB400B50073357607F700770886000230870070
:103DC4000030C03FC13F080075080319FB2E2500D1
:103DD40035082038F7007708B50073357607F70003
:103DE40077088600023087000130C03F0030C13FB1
:103DF400080025003508DF39F7007708B50073356A
:103E04007607F70077088600023087000030C03F4D
:103E1400C13F080075080319212F250035084038D3
:103E2400F7007708B50073357607F7007708860042
:103E3400023087000130C03F0030C13F0800250038
:103E44003508BF39F7007708B50073357607F700F2
:103E540077088600023087000030C03FC13F080069
:103E640075080319472F250035088038F7007708AF
:103E7400B50073357607F7007708860002308700AF
:103E84000130C03F0030C13F0800250035087F39AC
:103E9400F7007708B50073357607F70077088600D2
:103EA400023087000030C03FC13F08007508031985
:103EB4006D2F250036080138F7007708B6007335F2
:103EC4007607F70077088600023087000130C03F8C
:103ED4000030C13F080025003608FE39F700770896
:103EE400B60073357607F70077088600023087003E
:103EF4000030C03FC13F080075080319932F250007
:103F040036080238F7007708B60073357607F700ED
:103F140077088600023087000130C03F0030C13F7F
:103F2400080025003608FD39F7007708B600733518
:103F34007607F70077088600023087000030C03F1C
:103F4400C13F080075080319B92F25003608043845
:103F5400F7007708B60073357607F7007708860010
:103F6400023087000130C03F0030C13F0800250007
:103F74003608FB39F7007708B60073357607F70083
:103F840077088600023087000030C03FC13F080038
:103F940075080319DF2F250036080838F70077085D
:103FA400B60073357607F70077088600023087007D
:103FB4000130C03F0030C13F080025003608F73902
:103FC400F7007708B60073357607F70077088600A0
:103FD400023087000030C03FC13F08007408003A37
:103FE4000319F52FFF2F730884000C300402031803
:0C3FF4000800B0310435003E82000800D7
:1040020042302000BF00C830BE000030BD0000308A
:10401200BC00210066082000C300210065082000C2
:10402200C200210064082000C100210063082000B2
:10403200C0008B313E23A03120003F082100ED005B
:1040420020003E082100EC0020003D082100EB008A
:1040520020003C082100EA00670886000130870042
:10406200FC30E8002530E900403F6807D100413FBD
:10407200693DD200E930D300B830D4006D08D800D1
:104082006C08D7006B08D6006A08D5008031B820CA
:1040920021006708860001308700510881074131FD
:1040A2005208813D7F31080020002008F3002108DA
:1040B200F4002208F5000310740D750DF600760861
:1040C200AD002D08031D6E280030A3000030A200B1
:1040D2000030A1000030A00008002408F3002508E9
:1040E200F4002608F5000310740D750DF60076082D
:1040F200AC002C08031D86280030A3000030A2006B
:104102000030A1000030A0000800A117FF30A00578
:10411200FF30A1050030A205A517FF30A405FF302E
:10412200A5050030A6050030AB000030AA00003023
:10413200A9000030A8007F30AD0298302C07F300B0
:104142007308AD021830F3007308AC000130A835D3
:10415200A90DAA0DAB0D890BA82826082202031D62
:10416200B82825082102031DB82824082002031CB0
:10417200C1282408A0022508A13B2608A23B281436
:104182000130A035A10DA20D890BC2280130AC026D
:10419200031DA728AD1FE9282D08803A973E031872
:1041A200DB280030A3000030A2000030A100003064
:1041B200A00008000130AB36AA0CA90CA80C890B90
:1041C200DC280130F3007308AD0703190229DB284C
:1041D20018302D02031CFF280030A3000030A2007B
:1041E2000030A1000030A00008000130A835A90D60
:1041F200AA0DAB0D890BF7280130AD022D08031D66
:10420200F6282B08A3002A08A2002908A1002808E2
:10421200A000080020002008F3002108F400220872
:10422200F5002308F6000310750D760DF7007708E8
:10423200AD002D08031D26290030A3000030A20086
:104242000030A1000030A00008002408F300250877
:10425200F4002608F5002708F6000310750D760D08
:10426200F7007708AC002C08031D40290030A3009A
:104272000030A2000030A1000030A0000800A21708
:10428200FF30A005FF30A105FF30A2050030A305D5
:10429200A617FF30A405FF30A505FF30A6050030A4
:1042A200A7050030AB000030AA000030A9000030A2
:1042B200A8007F30AD02A0302C07F3007308AD02D6
:1042C2002030F3007308AC000130A835A90DAA0D07
:1042D200AB0D890B662927082302031D7A292608BC
:1042E2002202031D7A2925082102031D7A292408A6
:1042F2002002031C85292408A0022508A13B2608C8
:10430200A23B2708A33B28140130A035A10DA20D22
:10431200A30D890B86290130AC02031D6529AD1F4F
:10432200AE292D08803A9F3E0318A0290030A30031
:104332000030A2000030A1000030A00008000130CF
:10434200AB36AA0CA90CA80C890BA1290130F300E9
:104352007308AD070319C729A02920302D02031CB9
:10436200C4290030A3000030A2000030A1000030B8
:10437200A00008000130A835A90DAA0DAB0D890BCC
:10438200BC290130AD022D08031DBB292B08A30057
:104392002A08A2002908A1002808A000080021007C
:1043A200DF005F08860002308700403FD700413FB0
:1043B200D800423FD900433FDA00DB01DC015C0850
:1043C200803AD4005208803A5402031DEA29510867
:1043D2005B0203182D2A21005B08D4000130D4357A
:1043E200FF3E031DF02954355F07D50055088600AE
:1043F20002308700403FC100413FC200423FC3003C
:10440200433FC4005A08C8005908C7005808C600EC
:104412005708C500AE31C726A1310318272A21004B
:104422005B08D4000130D435FF3E031D142A5435F5
:104432005F07D5005508860002308700403FD7004D
:10444200413FD800423FD900433FDA00013021000A
:10445200DB070030DC3DE0292100DD01DE015E08E2
:10446200803AD4005208803A5402031D3A2A510875
:104472005D0203188C2A21005D08D4000130D43576
:10448200FF3E031D402A54355F07D50055088600BC
:1044920002308700403FC100413FC200423FC3009B
:1044A200433FC4003D30AC004C30AB00CC30AA00DE
:1044B200CD30A9005A08B0005908AF005808AE0024
:1044C2005708AD0093317423A13121002C08C80094
:1044D2002B08C7002A08C6002908C500AE31C72626
:1044E200A1310030031801302100D6005E08F4002B
:1044F2005D08F3005608D4005408F5005308D500AF
:104502005508F6009E312726A13101302100DD0732
:104512000030DE3D302AB1302100D40054082000A2
:10452200B1000130AF31612708002200BB00B801A1
:10453200B901FF302100D40054082200BA00203013
:104542008600033087002030840001308500183057
:104552002100D40016001A00D40BAB2AB7319127E0
:10456200A23121005308C2005208C10022003B08B8
:10457200A831F020A23121005108860002308700C4
:104582004108C03F4208C13F4308C23F4408C33FFD
:104592002000BE01BE0A20302100D40054082000B1
:1045A200BF000030A6317326A2312100D500550884
:1045B2002200BA000130B8070030B93D3A080319A9
:1045C200EF2A3908803A2100D40080305402031DBA
:1045D200ED2A0B3022003802031CC92A2200BC013A
:1045E200BD013D08803A2100D40080305402031DF1
:1045F200FD2A0C3022003C02031808003F30200044
:10460200BF008030BE000030BD000030BC0046302C
:10461200D9001C30D8004030D7000030D60022002C
:104622003C35203E860001308700403F2100D40007
:10463200413FD50054082000AE002100550820005B
:10464200AF00B001B1010030AE313126A2312000FD
:104652003108DD003008DC002F08DB002E08DA000C
:1046620090310420A23120005908C3005808C2002A
:104672005708C1005608C0008B313E23A2312200E8
:104682003C082100D6000130D635FF3E031D452BE4
:10469200563522003B072100D7005708860002301A
:1046A200870020003C08C03F3D08C13F3E08C23F92
:1046B2003F08C33F22003C082100D4000130D4351A
:1046C200FF3E031D602B543522003B072100D5001D
:1046D2005508860002308700403FC100413FC200BA
:1046E200423FC300433FC4003D30C800CC30C70046
:1046F200CC30C600CD30C500AE31C726A23103187A
:104702009C2B22003C082100D4000130D435FF3E0E
:10471200031D872B543522003B072100D500550885
:104722008600023087000030C03F0030C13F0030B9
:10473200C23F0030C33F01302200BC070030BD3D04
:10474200F22A22003B082100DD00DE01DD1BDE0330
:1047520022003A08803A2100DF005E08803A5F02B8
:10476200031DB62B5D08220039020318BE2B22005E
:104772003B08B900BA01B91BBA032200330834045A
:104782000319D52B033031052100DD000030220052
:1047920032052100DE005D085E040319D52BFF30CF
:1047A2002200B307FF30B43D2200321FF12B3A083A
:1047B200803A2100DD0022003408803A21005D02A7
:1047C200031DE62B2200330839020318EE2B2200C8
:1047D2003908B3023A08B43BF12B2200B301B40109
:1047E2003B082100DD00DE01DD1BDE035E08803AAE
:1047F200DF0022003408803A21005F02031D052CED
:104802002200330821005D020318162C22003B0807
:104812002100DD00DE01DD1BDE035D082200B302A4
:1048220021005E082200B43B192C2200B301B4011E
:10483200311D512C033031052100DD0000302200F2
:1048420032052100DE005D085E040319372C510891
:104852008600520887002D3081000130D1070030D8
:10486200D23D01302200A5070030A63D22003308C8
:1048720034040319892C210051088600520887004C
:10488200303081000130D1070030D23D01302200AA
:10489200A5070030A63DFF30B307FF30B43D382CEA
:1048A2003308340403196D2C210051088600520884
:1048B2008700203081000130D1070030D23D013025
:1048C2002200A5070030A63DFF30B307FF30B43DFC
:1048D20033083404031D552C033031052100DD005B
:1048E2000030220032052100DE005D085E0403195B
:1048F200892C51088600520887002D308100013032
:10490200D1070030D23D01302200A5070030A63D7C
:10491200FF302200B907FF30BA3D390A03193A0ABB
:104922000319F32C00302000B0000030AF0000303B
:10493200AE000A30AD0022003A0885003908840032
:104942008435850D8435850D9A308407B830853DD0
:10495200003F2000A000013FA100023FA200033F50
:10496200A30022002E082000A70022002D0820000C
:10497200A60022002C082000A50022002B082000FF
:10498200A400A9319421A33120002308B4002208F5
:10499200B3002108B2002008B100A8316720A3317A
:1049A20020002D08303E2100DD005D082200BB0002
:1049B2002100510886005208870022003B0881002E
:1049C20001302100812C2100510886005208870005
:1049D2008101220026082100D200220025082100A0
:1049E200D10008008031C1282100E1005A08DD0011
:1049F2005D08D1000C30D2000030D3005908A2313A
:104A02009622A4312100E201E3016308803ADD002D
:104A120080305D02031D0F2D0C30620203186D2DD4
:104A220040302100C4008630C3006630C2006630C8
:104A3200C1006208DD000130DD35FF3E031D1D2D82
:104A42005D355907DE005E08860002308700403F70
:104A5200C500413FC600423FC700433FC800AE31D8
:104A6200C726A431031C592D21006208DD00013044
:104A7200DD35FF3E031D392D5D355907DE005E0829
:104A8200860002308700403FC100413FC200423FE2
:104A9200C300433FC4004030C8004630C700663000
:104AA200C6006630C500AE31C726A43103185D2D9D
:104AB2002100D801D901080001302100E2070030AD
:104AC200E33D6308803ADD0080305D02031D6B2DFB
:104AD2000C306202031C112D0C302100C100003089
:104AE200C2005908A831F020A43121005A088600DA
:104AF200023087004108C03F4208C13F4308C23F1D
:104B02004408C33F41302000D9004030D800003073
:104B1200D7000030D600C2302100AC001930AB0003
:104B22009930AA009A30A9005A08860002308700FC
:104B3200403FAD00413FAE00423FAF00433FB000B7
:104B420093317423A43121002C082000DD002100C0
:104B52002B082000DC0021002A082000DB002100B5
:104B620029082000DA0090310420A43121005C08D9
:104B720086000230870020005608C03F5708C13F18
:104B82005808C23F5908C33F05302100B300003026
:104B9200B4005808AB311023A4312100610886000B
:104BA200013087003308C03F3408C13FE401E5010A
:104BB2006508803ADD0080305D02031DE22D05307C
:104BC20064020318262E210064355807DD005D08B3
:104BD200860002308700403FDE00413FDF005F0871
:104BE200803AE00080306002031DF92D05305E023C
:104BF200031C122E210064355807DD005D08860073
:104C020002308700403FDE00413FDF005F08803A0C
:104C1200E00080306002031D102E29305E02031C6A
:104C2200162E2100D801D901080001302100E40725
:104C32000030E53D6508803ADD0080305D02031DED
:104C4200242E05306402031CE42DB731C227A4319F
:104C520021005B088600023087004D08C03F4E08E5
:104C6200C13F4F08C23F5008C33F5B088600023075
:104C72008700403FC100413FC200423FC300433F63
:104C8200C400C030C8000030C7000030C600003089
:104C9200C500AE31C726A431031C692E4030210065
:104CA200C4000030C3000030C2000030C1005B0805
:104CB200860002308700403FC500413FC600423FA8
:104CC200C700433FC800AE31C726A43103186D2E7A
:104CD2002100D801D901080001302100D80000309C
:104CE200D90008002000D400CD01DA015408031DC8
:104CF200422FD901D90A053059020318FE2FDA01D1
:104D02003E08C0004008B1004530C1004108B20071
:104D120059088A31E922A6312000D5013E08550200
:104D220003183D2FD60192308400B9308500000867
:104D320056020318F12E5A08013E453E86008701AD
:104D42000108C000C1014008C100C0015A08453E27
:104D52008600870101084007CE0041080318410A76
:104D6200CF001830C0004008F3005508B6314B267A
:104D7200A63120003F07C1005908FF3EF300FF3073
:104D820003180030F40092308400B9308500000826
:104D9200C200C3014208F5004308F600B631DC2622
:104DA200A63173082000560709074107C4004408CA
:104DB2008600013087004E08C03F4F08C13F5A08A5
:104DC200023EC0004008DA000130C0004008D607A9
:104DD20092308400B930850000085602031C9C2ED4
:104DE2005A08013E453E860087010108C000C10104
:104DF2005A08453E860087010108C200C3014208E5
:104E0200C300C20140084207D0004108433DD1001F
:104E120094308400B93085000008C0004008F300D7
:104E22005508B6314B26A631453E2000A000003081
:104E3200A10093308400B930850000089C3102241F
:104E4200A63120002108D3002008D20053085106C1
:104E5200031D2D2F520850060319332FFF30C000B7
:104E62004008CD005A08023EC0004008DA00013076
:104E7200C0004008D5078F2E0130C0004008D90776
:104E82007C2E3E08C0004008B1004530C1004108F8
:104E9200B20054088A31E922A6312000D7013E0827
:104EA20057020318FE2FD80192308400B9308500D2
:104EB200000858020318B22F5A08013E453E8600E8
:104EC20087010108C000C1014008C100C0015A08A1
:104ED200453E8600870101084007CE0041080318BD
:104EE200410ACF001830C0004008F3005708B6311D
:104EF2004B26A63120003F07C1005408FF3EF300B5
:104F0200FF3003180030F40092308400B93085007D
:104F12000008C200C3014208F5004308F600B6319A
:104F2200DC26A63173082000580709074107C40090
:104F320044088600013087004E08C03F4F08C13F39
:104F42005A08023EC0004008DA000130C0004008A2
:104F5200D80792308400B930850000085802031C3B
:104F62005D2F5A08013E453E860087010108C000B8
:104F7200C1015A08453E860087010108C200C301EB
:104F82004208C300C20140084207D0004108433D25
:104F9200D10094308400B93085000008C000400878
:104FA200F3005708B6314B26A631453E2000A0003B
:104FB2000030A10093308400B930850000089C3194
:104FC2000224A63120002108D3002008D200530871
:104FD2005106031DEE2F520850060319F42FFF301D
:104FE200C0004008CD005A08023EC0004008DA0066
:104FF2000130C0004008D707502F4D08080021009B
:105002000F128F120C148B170B178A31E322A8315F
:1050120021008C1222008C1621000C12B631BE2601
:10502200A831B6313026A83121000D178D17B631BF
:105032006D26A83121008E120E168E118F11B631F7
:105042007E26A831B6315C2608002100E801E9017C
:10505200E801E9016308FF3EE500FF30643DE60038
:105062006908803AE7006608803A6702031D3B2818
:105072006508680203185428FC302100D10025304D
:10508200D2007A30D300B930D4008031B820A831B0
:1050920090310120A8312100111A4C280130E80773
:1050A2000030E93D2B28FC302100D1002530D20010
:1050B2006F30D300B930D4008031B820A83190319C
:1050C2000120A8312100111E0800632820003008A9
:1050D2002F042E042D040319A128F501F50AB01B93
:1050E2007E280130AD35AE0DAF0DB00D890B7328A2
:1050F2000130F4007408F507702830083402031DEB
:105102008C282F083302031D8C282E083202031D1F
:105112008C282D083102031C96282D08B1022E0876
:10512200B23B2F08B33B3008B43B0130B036AF0C72
:10513200AE0CAD0C890B97280130F502031D7E28B9
:105142003408B0003308AF003208AE003108AD00B9
:1051520008002000A101F61FB528F509F609F50A95
:105162000319F60AA101A10AF41FBC28F309F409E4
:10517200F30A0319F40A730874040319E328A0015B
:10518200A00AF41BCE280130F335F40D890BC52893
:105192000130F7007708A007C22874087602031DC1
:1051A200D42873087502031CDA287308F502740800
:1051B200F63B0130F436F30C890BDB280130A002F8
:1051C200031DCE2821080319EB28F509F609F50A73
:1051D2000319F60A7608F4007508F30008002100A6
:1051E200C7000030CB000030CA000030C9000030D8
:1051F200C800CC01CD014D08803AC5004208803A72
:105202004502031D062941084C02031838292100D2
:105212004C08C5000130C535FF3E031D0C2945353C
:105222004707C6004608860002308700403FA900B3
:10523200413FAA00423FAB00433FAC004B08B000E5
:105242004A08AF004908AE004808AD009331742304
:10525200A83121002C08CB002B08CA002A08C9005B
:105262002908C8000130CC070030CD3DFC282100C0
:105272004B08C4004A08C3004908C2004808C100DC
:1052820008002000A801A31F4D29A209A309A20A10
:105292000319A30AA801A80AA51F5829A409A50948
:1052A200A40A0319A50A0130A6002608A806A90126
:1052B200AA012208230403198729A701A70AA31B0D
:1052C2006C290130A235A30D890B63290130A60098
:1052D2002608A70760290130A935AA0D890B6D2977
:1052E20023082502031D772922082402031C7E2994
:1052F2002208A4022308A53B29140130A336A20CDC
:10530200890B7F290130A702031D6C292808031984
:105312008F29A909AA09A90A0319AA0A2A08A30016
:105322002908A200080000302000AB000030AA00CB
:105332000030A9000030A800230822042104200420
:105342000319DE29AC01AC0AA31BB3290130A03535
:10535200A10DA20DA30D890BA8290130F30073083A
:10536200AC07A5290130A835A90DAA0DAB0D890BF3
:10537200B42923082702031DC82922082602031D77
:10538200C82921082502031DC82920082402031C5C
:10539200D3292008A4022108A53B2208A63B230802
:1053A200A73B28140130A336A20CA10CA00C890B38
:1053B200D4290130AC02031DB3292B08A3002A080B
:1053C200A2002908A1002808A00008002000AD00C2
:1053D2002D08A000A00DA00D21001D082000200610
:1053E2008339200621009D001D14A0300032890B54
:1053F200F72921009D149D18FC291C082000A000FB
:10540200A1012008A7002108A80021001B082000F4
:10541200A000A1012008A9002108AA002A08A100D1
:105422002908A0000430A200210DA10CA00CA20B9F
:10543200152AFF302005A3000F302105A4002808FB
:10544200A6002708A500A50EA60EF030A605250881
:105452000F39A604F030A50523082504AB00240863
:105462002604AC0021001D1020002C08F4002B089B
:10547200F30008002000A00020360139F60076086B
:10548200A1002108023EF60076082500C700200090
:1054920020080139F6000630F635FF3E031D4D2A7D
:1054A2007635F7007708A1007308F6000330F63569
:1054B200FF3E031D582A763521077407603EF70028
:1054C20077082500C800200020360139F60076084A
:1054D200A1002108043EF60076082500C500200040
:1054E20020080139F6000630F635FF3E031D752A05
:1054F2007635F7007708A10021087507603EF600AF
:1055020076082500C600200020360139F60076080C
:10551200A1002108043EF60076082500C300200001
:1055220020080139F6000630F635FF3E031D952AA4
:105532007635F7007708A1002108693EF600760863
:105542002500C40008002100EB00EC01ED016D080C
:10555200803AE8006608803A6802031DB22A6508AC
:105562006C020318EB2A21006708860001308700CD
:10557200FC30E8002530E900403F6807D100413F98
:10558200693DD2005130D300B930D4006C08013EDD
:10559200D50000306D3DD6006C356B07EA006A0815
:1055A200860002308700403FD700413FD80080315B
:1055B200B820AA312100670886000130870051080F
:1055C200810741315208813D7F310130EC070030C3
:1055D200ED3DA82A21006708860001308700FC30D3
:1055E200E8002530E900403F6807D100413F693DAE
:1055F200D2001730D300B930D4006408D600630853
:10560200D5008031B820210067088600013087006C
:105612005108810741315208813D7F310800210044
:10562200BB00B901BA0122008D1225002A08A93156
:10563200E721AB3174082100AC007308AB00AC3138
:105642009324AB3121002C08BA002B08B9003B0887
:105652008600023087003908C03F3A08C13FBC01CA
:10566200BD013D08803AB5003408803A3502031D79
:105672003C2B33083C020318852B21003C08AA3E30
:105682008600023087000108A931E721AB31740896
:105692002100AC007308AB00AC319324AB31210084
:1056A2003C353B07B50035088600023087002B08E1
:1056B200C03F2C08C13F3C353B07B500350886008A
:1056C20002308700403FB600413FB7003A08803AB7
:1056D200B8003708803A3802031D712B36083902A8
:1056E20003187F2B21003C353B07B50035088600A7
:1056F20002308700403FB900413FBA00013021002B
:10570200BC070030BD3D322B22008D1621003A0825
:10571200B4003908B300080021002008A4002108C1
:10572200A5002208A6002308A7000310260D270DB6
:10573200A8002808AA002A08031DA82B0030A300ED
:105742000030A2000030A1000030A00008002008B4
:10575200A4002108A5002208A6002308A7001F30E4
:10576200A736A60CA50CA40C890BB12B2408A80003
:105772002808A900A217FF30A005FF30A105FF30BD
:10578200A2050030A3059630AA02AA1FE42B2A081C
:10579200803A973E0318D62B0030A3000030A200B7
:1057A2000030A1000030A00008000130A336A20C96
:1057B200A10CA00C890BD72B0130A4002408AA0746
:1057C2000319FD2BD62B20302A02031CFA2B0030A2
:1057D200A3000030A2000030A1000030A0000800A9
:1057E2000130A035A10DA20DA30D890BF22B0130C2
:1057F200AA022A08031DF12B290803190800A0098F
:10580200A109A209A309A00A0319A10A0319A20A5C
:105812000319A30A08002100C700CC01CD01003002
:10582200CB000030CA000030C9000030C800CC01F3
:10583200CD014D08803AC5004208803A4502031D59
:10584200242C41084C020318562C21004C08C50098
:105852000130C535FF3E031D2A2C45354707C600DA
:105862004608860001308700403FA900413FAA0058
:10587200423FAB00433FAC004B08B0004A08AF00C8
:105882004908AE004808AD0093317423AC312100C1
:105892002C08CB002B08CA002A08C9002908C80016
:1058A2000130CC070030CD3D1A2C210041082000E8
:1058B200AE00210042082000AF00890D893B890912
:1058C200B000B1000130AE313126AC3120003108D8
:1058D200D9003008D8002F08D7002E08D6002100A2
:1058E2004B082000DD0021004A082000DC002100D6
:1058F20049082000DB00210048082000DA0090312E
:105902000420200059082100C4002000580821006A
:10591200C300200057082100C200200056082100C1
:10592200C100080040302000BF00A030BE0000309F
:10593200BD000030BC004530D9008030D8000030B6
:10594200D7000030D60021002B082000AE00210035
:105952002C082000AF00890D893B8909B000B100F5
:105962000130AE313126AC3120003108DD00300883
:10597200DC002F08DB002E08DA0090310420AC3165
:1059820020005908C3005808C2005708C100560831
:10599200C0008B313E23AC3120003F082100B20011
:1059A20020003E082100B10020003D082100B00087
:1059B20020003C082100AF0032082000C300210073
:1059C20031082000C200210030082000C10021005F
:1059D2002F082000C0004130BF002030BE00003040
:1059E200BD000030BC008B313E23AC3120003F08AB
:1059F2002100A30020003E082100A20020003D0853
:105A02002100A10020003C082100A000AB318D2321
:105A12002100210885002008840068308407B830FE
:105A2200853D0008AD00AE012D08AB002E08AC008C
:105A32000800C0302100AC002030AB000030AA00CA
:105A42000030A90040302000BF00A030BE0000306E
:105A5200BD000030BC004530D9007F30D800F030A6
:105A6200D7000030D600210044082000DD002100CC
:105A720043082000DC00210042082000DB00210056
:105A820041082000DA0090310420AD31200059088D
:105A9200C3005808C2005708C1005608C0008B3125
:105AA2003E23AD3120003F082100B00020003E0817
:105AB2002100AF0020003D082100AE0020003C087C
:105AC2002100AD0093317423AD3121002C08CC00AC
:105AD2002B08CB002A08CA002908C9003D30200043
