:0400000080317628AD
:100008007E14803120007F08F1000B198B1E3C28DC
:1000180001302200DD070030DE3D5E08803AF00046
:1000280080307002031D1A2803305D02031C272844
:1000380001302200DB000030DC00DD01DE01013090
:10004800DF070030E03D22006008803AF000A7306A
:100058007002031D312810305F02031C3B28013059
:100068002400EE000030EF002200DF01E0010B1158
:100078002100911C49282000911C492801302200A8
:10008800DB000030DC00200091102000111E6928E0
:100098002100111E69287A08A03E860002308700D8
:1000A8000108031964287A08A03E860002308700F8
:1000B800010823009A000130FA070030FB3D692847
:1000C800FA01FB01B731F52780312000911D712815
:1000D8002100911D71282000911171082000FF0056
:1000E8007E100900803178282C308400A8308500E3
:1000F8006A308600013087000630A831262080311A
:1001080032308400A8308500D23086000230870063
:100118000730A83126208031FA01FB012100EC01CB
:10012800ED015B308400013085000F30A8312020BC
:1001380080312400EE01EF01A030840002308500F8
:100148003230A831202080312030840003308500EF
:100158001830A83120207E1020008A31E52A22009C
:10016800B900D3302100DB005B082200A400210085
:100178005208DC005108DB00D10A0319D20A5B08D7
:1001880084005C0885000008DD005D082200BA00D4
:100198003A080319962F25303A060319E4283A0835
:1001A8002100DB0022003908860002308700210088
:1001B8005B0881000130DB005B082200B907BB281F
:1001C800B101B201AF01B001F02822002F150130B2
:1001D8002100D1070030D23D210051088400520887
:1001E80085000008303A0319E928FA2851088400E4
:1001F800520885000008903101208031031C3A29FB
:100208002200B101B2010A30F2000030F3002200EE
:100218003208F5003108F400A831CB20803173088A
:100228002200B2007208B10021005108840052086F
:1002380085000008D03EDB00FF3003180030DC00EA
:100248005B082200B10721005C082200B23D0130A2
:100258002100D1070030D23D5108840052088500A2
:100268000008903101208031031807292100510826
:1002780084005208850012002E3A031D82292200AC
:10028800301701302100D1070030D23D2200B701DC
:10029800B8012100510884005208850000089031F7
:1002A80001208031031C892921005108840052084B
:1002B80085000008DB00DC0122003808F30037085D
:1002C800F2000A30F4000030F500A831CB2080316C
:1002D80021005B087207DD005C08733DDE005D08E5
:1002E800D03E2200B700FF3021005E3D2200B8005A
:1002F80001302100D1070030D23D4D292200B7013D
:10030800B801301689293015A52921005208DC00CA
:100318005108DB00D10A0319D20A5B0884005C0883
:10032800850000082200BA00003A0319962F643AA3
:100338000319A529023A031987290F3A0319A52990
:10034800BB2800302F052100DB00073022003005D4
:100358002100DC005B085C040319FF2E2200301E1C
:10036800B9290630B7000030B80024088600870194
:10037800403FB300413FB400423FB500433FB600A1
:1003880004302100DB005B082200A40736082100A6
:10039800C400220035082100C300220034082100CF
:1003A800C200220033082100C1000030C80000301C
:1003B800C7000030C6000030C500A031B22080312F
:1003C80003180D2A220036082000EF002200350805
:1003D8002000EE00220034082000ED00220033083F
:1003E8002000EC009C310024803120006F0822009E
:1003F800B60020006E082200B50020006D0822001B
:10040800B40020006C082200B3000330AF040030B1
:10041800B0042200AD01AE013608350434043304BB
:100428000319EB2A33082100DB00220034082100DD
:10043800DC00220035082100DD00220036082100FA
:10044800DE0003105D0D5E0D823E2200AD00FF3020
:1004580003180030AE00FF30AD07FF30AE3D03306B
:10046800F2000030F3002E08F5002D08F400A83142
:10047800CB20803173082200AE007208AD000A302C
:100488002000A0000030A10022002E082000A300B8
:1004980022002D082000A200AB31AD2380312000BE
:1004A80021082200AE00200020082200AD00AE1F67
:1004B800612AFF30AD07FF30AE3D2D03FF3A8D3185
:1004C80070258031200055082200A800200054081B
:1004D8002200A700200053082200A600200052088E
:1004E8002200A50036082000BB00220035082000A5
:1004F800BA00220034082000B90022003308200086
:10050800B800220028082000BF0022002708200089
:10051800BE00220026082000BD0022002508200079
:10052800BC009531D425803120003B082200A8006A
:1005380020003A082200A700200039082200A6005F
:10054800200038082200A50028082100C400220045
:1005580027082100C300220026082100C20022002B
:1005680025082100C1003F30C8008030C700003096
:10057800C6000030C500A031B22080310318C92A56
:10058800FF302200AD07FF30EA2A220028082100A8
:10059800C400220027082100C300220026082100E9
:1005A800C200220025082100C1004130C8002030C7
:1005B800C7000030C6000030C500A031B22080312D
:1005C800031CEB2A01302200AD070030AE3D2200AB
:1005D8003808803A2100DB0080305B02031DF72ACF
:1005E8000D30220037020318312B220037089231D0
:1005F80002228031200055082100AC002000540858
:100608002100AB00200053082100AA002000520856
:100618002100A900220036082100B0002200350878
:100628002100AF00220034082100AE002200330868
:100638002100AD009331D823803121002C082200FD
:10064800B60021002B082200B50021002A0822004C
:10065800B400210029082200B30022002E08803AA5
:100668002100DB0080305B02031D3D2B0A30220095
:100678002D0203186D2B2200360835043404330488
:100688000319CA2B36082000EE0022003508200086
:10069800ED00220034082000EC002200330820007E
:1006A800EB00A0311920803120006E086D046C0425
:1006B8006B04031DCA2B22002E08803A2100DB00A0
:1006C80080305B02031D6B2B023022002D02031CBD
:1006D800CA2B220028082100C40022002708210074
:1006E800C300220026082100C2002200250821009C
:1006F800C1004030C8008930C7007030C6005F3084
:10070800C500A031B220803103188C2BF7308D2B17
:10071800F8302200AD07FF30AE3D2D088D31702531
:100728008031200055082200A8002000540822002B
:10073800A700200053082200A6002000520822002B
:10074800A5003608F5003508F4003408F30033082E
:10075800F2002808F9002708F8002608F7002508FD
:10076800F600A3316123803175082200AC007408BB
:10077800AB007308AA007208A9000030B600003068
:10078800B5000030B4000030B300352C2200360824
:100798002000EE00220035082000ED002200340879
:1007A8002000EC00220033082000EB00A0311920C3
:1007B800803120006E082200AC0020006D08220065
:1007C800AB0020006C082200AA0020006B08220061
:1007D800A9002C082000B10022002B082000B0003E
:1007E80022002A082000AF00220029082000AE00BD
:1007F8000030AF316A278031200031082100C40061
:10080800200030082100C30020002F082100C2006A
:1008180020002E082100C100220036082100C8004F
:10082800220035082100C700220034082100C60034
:10083800220033082100C500A9310421803121009C
:1008480044082200B600210043082200B500210018
:1008580042082200B400210041082200B300AD0183
:10086800AE01BA01BA0A0A303A060319722C3A08DC
:100878002100DB00DC01DB35DC0DDB35DC0D9A30DB
:100888005B078400B0305C3D8500003FDD00013F20
:10089800DE00023FDF00033FE000600822002C0278
:1008A800031D662C21005F0822002B02031D662C05
:1008B80021005E0822002A02031D662C21005D0823
:1008C80022002902031C722C01302100DB005B0886
:1008D8002200BA070A303A06031D3B2C3A082100C9
:1008E800DB00DC01DB1BDC032200370821005B078F
:1008F800DD002200380821005C3DDE0022002D08C2
:1009080021005D07DF0022002E0821005E3DE00087
:100918005F082200B102210060082200B23B3708BC
:10092800380403199B2CFF30B107FF30B23D033068
:100938002F052100DB000030220030052100DC00FB
:100948005B085C040319AD2CFF302200B107FF30AF
:10095800B23D22002F1D032D03302F052100DB009F
:100968000030220030052100DC005B085C0403191C
:10097800CC2C2D30DB00220039088600023087009D
:1009880021005B0881000130DB005B082200B90709
:1009980022003208803A2100DB0080305B02031D10
:1009A800D82C013022003102031C2E2D30302100BA
:1009B800DB002200390886000230870021005B082E
:1009C80081000130DB005B082200B907FF30B10766
:1009D800FF30B23DCC2C20302100DB00220039084A
:1009E80086000230870021005B0881000130DB00AF
:1009F8005B082200B907FF30B107FF30B23D220083
:100A08003208803A2100DB0080305B02031D0F2D85
:100A18000130220031020318EF2C033022002F0589
:100A28002100DB000030220030052100DC005B08DB
:100A38005C0403192E2D2D30DB00220039088600B6
:100A48000230870021005B0881000130DB005B0871
:100A58002200B907FF302100DB005B082200BA073B
:100A68003A0A0319A62D3A082100DB00DC01DB3520
:100A7800DC0DDB35DC0D9A305B078400B0305C3D63
:100A88008500003FF200013FF300023FF400033FFE
:100A9800F50022002C08F9002B08F8002A08F700B6
:100AA8002908F600AB31FF23803175082200A80021
:100AB8007408A7007308A6007208A500003020007B
:100AC800A9000030A8000030A7000A30A6002200C4
:100AD80028082000AD00220027082000AC002200D2
:100AE80026082000AB00220025082000AA00AA3111
:100AF80041228031200029082200A800200028086F
:100B08002200A700200027082200A60020002608AF
:100B18002200A5002508303E2100202D303021007C
:100B2800DB002200390886000230870021005B08BC
:100B380081000130DB005B082200B907FF30AD07F8
:100B4800FF30AE3D2E08803A2100DB0080305B028A
:100B5800031DB12D013022002D020318922D220011
:100B68003808803A2100DB0080305B02031DBF2D6E
:100B7800093022003702031CC32D0830C52D22007E
:100B880037082100DB005B082200BA003A08210080
:100B9800DB00DC01DB1BDC035B082200B702210061
:100BA8005C082200B83B3A080319EA2D2E302100D0
:100BB800DB002200390886000230870021005B082C
:100BC80081000130DB005B082200B9073A088D314B
:100BD80070258031200055082200A3002000540809
:100BE8002200A200200053082200A1002000520881
:100BF8002200A00023082000BF00220022082000B5
:100C0800BE00220021082000BD002200200820008C
:100C1800BC00220036082000BB0022003508200056
:100C2800BA00220034082000B9002200330820004E
:100C3800B8009531D425803120003B08EE003A08F1
:100C4800ED003908EC003808EB00A031192080319C
:100C580020006E082200AC0020006D082200AB00C6
:100C680020006C082200AA0020006B082200A900BE
:100C7800FF302100DB005B082200BA073A0A03199B
:100C8800FA2E3A082100DB00DC01DB35DC0DDB3510
:100C9800DC0D9A305B078400B0305C3D8500003F76
:100CA800F200013FF300023FF400033FF500220089
:100CB8002C08F9002B08F8002A08F7002908F60084
:100CC800AB31FF23803175082200A8007408A70003
:100CD8007308A6007208A50000302000A9000030A3
:100CE800A8000030A7000A30A6002200280820002B
:100CF800AD00220027082000AC00220026082000B2
:100D0800AB00220025082000AA00AA314122803128
:100D1800200029082200A800200028082200A70097
:100D2800200027082200A600200026082200A5008F
:100D38002508303E2100DB002200390886000230F9
:100D4800870021005B0881000130DB005B0822007E
:100D5800B9073A082100DB00DC01DB35DC0DDB35A7
:100D6800DC0D9A305B078400B0305C3D8500003FA5
:100D78002000A600013FA700023FA800033FA900EA
:100D880022002C082000AD0022002B082000AC0017
:100D980022002A082000AB00220029082000AA000F
:100DA800AA3141228031200029082200AC0020000D
:100DB80028082200AB00200027082200AA002000F3
:100DC80026083A2E30302100DB0022003908860040
:100DD8000230870021005B0881000130DB005B08DE
:100DE8002200B907FF30B707FF30B83D370838048D
:100DF8000319BB28E62E2200240886008701403FFD
:100E08002100DB00413FDC005B082200A900210033
:100E18005C082200AA00890D893B8909AB00AC0057
:100E280002302100DB005B082200A407AC1F2B2F37
:100E38000330AF040030B004A909AA09AB09AC0912
:100E4800A90A0319AA0A0319AB0A0319AC0A370835
:100E58003804031D392F2C082B042A042904031DE8
:100E6800392F0130B7070030B83DBA01BA0A0A3045
:100E78003A060319762F3A082100DB00DC01DB353E
:100E8800DC0DDB35DC0D9A305B078400B0305C3D4F
:100E98008500003FDD00013FDE00023FDF00033F29
:100EA800E000600822002C02031D6A2F21005F0861
:100EB80022002B02031D6A2F21005E0822002A024D
:100EC800031D6A2F21005D0822002902031C762FCA
:100ED80001302100DB005B082200BA070A303A061D
:100EE800031D3F2F3A082100DB00DC01DB1BDC037C
:100EF8005C08803ADD0022003808803A21005D0253
:100F0800031D8A2F2200370821005B02A531031830
:100F1800562D220037082100DB005B082200BA00AA
:100F2800A531722DA631882E0034003400340034E7
:100F38000034003400340034003400345F340034AA
:100F480000340034003400340034003407340034F2
:100F58000734003400340034003414347F3414343B
:100F68007F34143400340034003424342A347F3479
:100F78002A3412340034003400342334133408344F
:100F8800643462340034003400343634493455341F
:100F9800223450340034003400340034053403342F
:100FA800003400340034003400341C34223441341A
:100FB80000340034003400340034413422341C340A
:100FC8000034003400340034003408342A341C342B
:100FD8002A340834003400340034083408343E34E9
:100FE80008340834003400340034A0346034003449
:100FF8000034003400340034003408340834083431
:101008000834083400340034003460346034003468
:1010180000340034003400340034203410340834F0
:10102800043402340034003400343E34513449343A
:1010380045343E34003400340034003442347F34C4
:1010480040340034003400340034623451344934BC
:1010580049344634003400340034223441344934AD
:10106800493436340034003400341834143412341B
:101078007F34103400340034003427344534453488
:10108800453439340034003400343C344A3449346B
:1010980049343034003400340034013471340934B4
:1010A80005340334003400340034363449344934C8
:1010B8004934363400340034003406344934493471
:1010C80029341E34003400340034003436343634C5
:1010D800003400340034003400340034AC346C3450
:1010E800003400340034003400340834143422341A
:1010F80041340034003400340034143414341434CB
:101108001434143400340034003441342234143498
:1011180008340034003400340034023401345134CB
:101128000934063400340034003432344934793414
:1011380041343E340034003400347E3409340934F8
:1011480009347E340034003400347F34493449345F
:10115800493436340034003400343E3441344134A8
:10116800413422340034003400347F344134413473
:1011780022341C340034003400347F344934493478
:10118800493441340034003400347F34093409349C
:10119800093401340034003400343E3441344134DD
:1011A800513472340034003400347F340834083445
:1011B80008347F3400340034003441347F344134FF
:1011C80000340034003400340034203440344134D6
:1011D8003F3401340034003400347F34083414348C
:1011E800223441340034003400347F3440344034F5
:1011F800403440340034003400347F3402340C343A
:1012080002347F340034003400347F34043408342A
:1012180010347F340034003400343E3441344134D7
:1012280041343E340034003400347F340934093406
:10123800093406340034003400343E344134513427
:1012480021345E340034003400347F3409341934D6
:1012580029344634003400340034263449344934BF
:1012680049343234003400340034013401347F34DA
:10127800013401340034003400343F344034403405
:1012880040343F340034003400341F3420344034B8
:1012980020341F340034003400343F3440343834B0
:1012A80040343F3400340034003463341434083498
:1012B8001434633400340034003403340434783490
:1012C8000434033400340034003461345134493474
:1012D800453443340034003400347F3441344134DD
:1012E8000034003400340034003402340434083448
:1012F80010342034003400340034413441347F3415
:10130800003400340034003400340434023401342E
:10131800023404340034003400348034803480349F
:10132800803480340034003400340134023404340E
:10133800003400340034003400342034543454343D
:10134800543478340034003400347F34483444341E
:1013580044343834003400340034383444344434A9
:1013680028340034003400340034383444344434ED
:1013780048347F340034003400343834543454341E
:101388005434183400340034003408347E340934BA
:10139800023400340034003400341834A434A43443
:1013A800A4347C340034003400347F3408340434EA
:1013B8000434783400340034003400347D3400348C
:1013C80000340034003400340034803484347D34F4
:1013D800003400340034003400347F3410342834AE
:1013E8004434003400340034003441347F34403411
:1013F800003400340034003400347C3404341834AD
:10140800043478340034003400347C340834043430
:101418007C340034003400340034383444344434E8
:1014280038340034003400340034FC342434243498
:10143800183400340034003400341834243424348C
:10144800FC34003400340034003400347C34083474
:1014580004340034003400340034483454345434F0
:101468002434003400340034003404347F344434E9
:10147800003400340034003400343C344034403408
:101488007C3400340034003400341C3420344034BC
:1014980020341C340034003400343C3440343034BC
:1014A80040343C340034003400344434283410349C
:1014B800283444340034003400341C34A034A034BC
:1014C8007C340034003400340034443464345434FC
:1014D8004C34443400340034003408343634413455
:1014E8000034003400340034003400347F340034D5
:1014F80000340034003400340034413436340834C5
:10150800003400340034003400340234013401342F
:101518000234013400340034003402340534053414
:081528000234003400340034E9
:101534002100E600E701E8016808803AE500640854
:10154400803A6502031DA82A630867020318D12A9A
:101554003E302100D100B130D2006708013ED300F3
:101564000030683DD40067356607E50065088600ED
:1015740002308700403FD500413FD6002200610879
:10158400A03E8031B3208A31B731F8278A31210057
:10159400111AC92A0130E7070030E83D9E2A1730A6
:1015A4002100D100B130D2006208D4006108D30018
:1015B400A0308031B3208A31B731F8278A31210035
:1015C400111E0800E12A2400DE01DF010030ED00D5
:1015D4000030EC000030EB000030EA00DA01DB01FF
:1015E4000030E3000030E2000030E1000030E000B1
:1015F400A93143218A3129302300A1009630A0006B
:101604007F30890B032BA00B032BA10B032B503032
:101614002300A00020082100E60020302300A100C0
:1016240021082100E70064302300A20022082100E1
:10163400E8006A302300A30023082100E900603099
:101644002300A40024082100EA005C309E317226A5
:101654008A31210066082300A500A50EA50D2200ED
:101664000F0823002506DF39250622008F008F1678
:1016740022000C0E2300A000200C0139A000013030
:10168400A006A00EA00D22000C0823002006DF39BE
:10169400200622008C0064302300A00020082100D2
:1016A400DF000C30E0000030E1002030A4312624BB
:1016B4008A3105302100AF000030B0005030AD3128
:1016C4005A258A31210030082400DD0021002F082A
:1016D4002400DC0022005B035C04031D932CAA316C
:1016E40003228A3124005E082300A0000130A035C3
:1016F400FF3E031D792B2035A03E86000330870072
:1017040021004D08C03F4E08C13F4F08C23F50085A
:10171400C33F01302400DE070030DF3D5F08803A1C
:101724002300A00080302002031D9B2B14302400D2
:101734005E02031C902C0C302100D1000030D2003A
:101744002030A231A0228A3124005F082100C20087
:1017540024005E082100C100A030AE315A268A312F
:10176400210044082400ED00210043082400EC007B
:10177400210042082400EB00210041082400EA0073
:101784006D082000D90024006C082000D800240033
:101794006B082000D70024006A082000D6004330DC
:1017A400D500FA30D4000030D3000030D20090319C
:1017B40073208A3120005508EF005408EE005308C6
:1017C400ED005208EC009C3100248A3120006F089F
:1017D4002100AC0020006E082100AB0020006D0841
:1017E4002100AA0020006C082100A900240063083D
:1017F4002000BB00240062082000BA002400610815
:101804002000B900240060082000B80004308400DF
:10181400B8308500003F2300A000013FA10020084C
:101824002000AE00230021082000AF00B001B10168
:101834000030AF316A278A3120003108BF003008F8
:10184400BE002F08BD002E08BC009531D4258A3176
:1018540020003B082100B00020003A082100AF001E
:10186400200039082100AE00200038082100AD0016
:101874009331D8238A3121002C082300A9002100A8
:101884002B082300A80021002A082300A700210018
:1018940029082300A60004308400B8308500003FE6
:1018A400A000013FA10020082000AE002300210871
:1018B4002000AF00B001B1010030AF316A278A3196
:1018C40020003108D5003008D4002F08D3002E089A
:1018D400D200230029082000D90023002808200072
:1018E400D800230027082000D70023002608200062
:1018F400D600903173208A31200055082400E3007B
:10190400200054082400E200200053082400E100D1
:10191400200052082400E000DE01DF012200DB0188
:10192400DC012400E801E9016908803A2300A000F1
:1019340080302002031DA12C053024006802031806
:10194400E62C24006835503E860002308700403F74
:101954002300A000413FA1002108803AA20080306A
:101964002202031DB72C283020020318CF2C240098
:101974006835503E860002308700403F2300A000B7
:10198400413FA1002108803AA20080302202031DB9
:10199400CD2C0B3020020318D42C01302400DA079C
:1019A4000030DB3D01302400E8070030E93D6908E0
:1019B400803A2300A00080302002031DE42C05306F
:1019C40024006802031CA32C24006D082100C40019
:1019D40024006C082100C30024006B082100C2000D
:1019E40024006A082100C1004130C8002030C7002B
:1019F4000030C6000030C500A031B2208A31031C7B
:101A0400082D01302400DA070030DB3D24005B0898
:101A1400803A2300A00080302002031D142D0A30D8
:101A240024005A02031C182D22008F1224006E0376
:101A34006F04031D3A2B0C302200C6000030C7008F
:101A4400240067082200CB00240066082200CA0094
:101A5400240065082200C900240064082200C8008C
:101A640050302300A00020082200CC000530CD0017
:101A74000030CE0024005D082200D00024005C0861
:101A84002200CF0024006D082200D40024006C083A
:101A94002200D30024006B082200D20024006A082C
:101AA4002200D100240063082200D8002400620828
:101AB4002200D700240061082200D6002400600818
:101AC4002200D5001630D9000030DA0020309031E1
:101AD4000F208A312400EE01EF013A2B2000EA00A6
:101AE400EA1FBB2EEA09EA0A6A08803A123E031C7E
:101AF400322E0A30A0000030A1006A08F400F5017B
:101B0400F41BF5036430F2000030F300AA31C7225D
:101B14008D3173082000A3007208A200AB31AD23FD
:101B24008D3120002008D6002108D700D635D70DE6
:101B3400D635D70D5608243ED8000030573DD9007D
:101B4400343058078400B030593D8500003FDA0036
:101B5400013FDB00023FDC00033FDD005D08BB000A
:101B64005C08BA005B08B9005A08B8006430A000E9
:101B74000030A1006A08A200A301A21BA303AB3199
:101B8400AD238D3120002008DE002108DF00DE3582
:101B9400DF0DDE35DF0D5E08483EE00000305F3DBE
:101BA400E100343060078400B030613D8500003FBF
:101BB400E200013FE300023FE400033FE500650863
:101BC400BF006408BE006308BD006208BC00953114
:101BD400D4258D3120003B08E9003A08E800390893
:101BE400E7003808E6000A30F2000030F3006A0823
:101BF400F400F501F41BF503AA31C7228D317308F3
:101C04008500720884008435850D8435850D343053
:101C14008407B030853D003F2000D600013FD70047
:101C2400023FD800033FD9005908BB005808BA0046
:101C34005708B9005608B8006908BF006808BE0014
:101C44006708BD006608BC009531D42520003B0818
:101C5400D5003A08D4003908D3003808D200080067
:101C64006A08803A753E031C9D2E0A30F20000304B
:101C7400F3006A08F400F501F41BF503AA31C72246
:101C84008D3173088500720884008435850D843590
:101C9400850D34308407B030853D003F2000D600E8
:101CA400013FD700023FD800033FD9005908BB00C9
:101CB4005808BA005708B9005608B8000A30A000FE
:101CC4000030A1006A08A200A301A21BA303AB3148
:101CD400AD238D3120002008DA002108DB00DA353D
:101CE400DB0DDA35DB0D5A08243EDC0000305B3DA9
:101CF400DD0034305C078400B0305D3D8500003F7A
:101D0400DE00013FDF00023FE000033FE100610825
:101D1400BF006008BE005F08BD005E08BC009531CE
:101D2400D42520003B08D5003A08D4003908D30054
:101D34003808D20008006A08D600D701D635D70D76
:101D4400D635D70D343056078400B030573D850062
:101D5400003FD800013FD900023FDA00033FDB0017
:101D64005B08D5005A08D4005908D3005808D2009B
:101D740008006A08803A123E031C772F0A30A0003C
:101D84000030A1006A08F400F501F41BF503643087
:101D9400F2000030F300AA31C7228D31730820000D
:101DA400A3007208A200AB31AD238D3120002008BE
:101DB400D6002108D700D635D70DD635D70D56080D
:101DC400243ED8000030573DD90000305807840025
:101DD400B030593D8500003FDA00013FDB00023F8F
:101DE400DC00033FDD005D08BB005C08BA005B0853
:101DF400B9005A08B8006430A0000030A1006A0895
:101E0400A200A301A21BA303AB31AD238D3120009B
:101E14002008DE002108DF00DE35DF0DDE35DF0DB2
:101E24005E08483EE00000305F3DE100003060079E
:101E34008400B030613D8500003FE200013FE300D3
:101E4400023FE400033FE5006508BF006408BE00EC
:101E54006308BD006208BC009531D4258D31200093
:101E64003B08E9003A08E8003908E7003808E600CA
:101E74000A30F2000030F3006A08F400F501F41BA4
:101E8400F503AA31C7228D317308850072088400D6
:101E94008435850D8435850D00308407B030853D4B
:101EA400003F2000D600013FD700023FD800033F87
:101EB400D9005908BB005808BA005708B900560899
:101EC400B8006908BF006808BE006708BD0066085E
:101ED400BC009531D42520003B08D5003A08D40035
:101EE4003908D3003808D20008006A08803A753EE1
:101EF400031CE22F0A30F2000030F3006A08F400F9
:101F0400F501F41BF503AA31C7228D31730885004E
:101F1400720884008435850D8435850D003084076E
:101F2400B030853D003F2000D600013FD700023F7E
:101F3400D800033FD9005908BB005808BA00570815
:101F4400B9005608B8000A30A0000030A1006A08A1
:101F5400A200A301A21BA303AB31AD238D3120004A
:101F64002008DA002108DB00DA35DB0DDA35DB0D79
:101F74005A08243EDC0000305B3DDD0000305C0785
:101F84008400B0305D3D8500003FDE00013FDF008E
:101F9400023FE000033FE1006108BF006008BE00AB
:101FA4005F08BD005E08BC009531D42520003B08C5
:101FB400D5003A08D4003908D3003808D200080004
:101FC4006A08D600D701D635D70DD635D70D0030DF
:101FD40056078400B030573D8500003FD800013FCC
:101FE400D900023FDA00033FDB005B08D5005A0842
:0C1FF400D4005908D3005808D20008009F
:10200200F300F2013A30730203180D2830307302E4
:10201200031C0D28F201F20A720C08002100EB00E9
:1020220022005A082100E200220059082100E100A2
:10203200A931C8219031220047082100E200220084
:1020420046082100E10022004B082100E6002200A0
:102052004A082100E500220049082100E40022008C
:1020620048082100E3006B08A6318E269031220039
:1020720050082100E20022004F082100E100220066
:102082004E082100E40022004D082100E300220056
:102092004C088A319A229031220054082100E4002F
:1020A200220053082100E300220052082100E2002E
:1020B200220051082100E100A031012090312200CC
:1020C20058082100E400220057082100E300220002
:1020D20056082100E200220055082100E100AA3141
:1020E20084220800200059088039DA005A08DF00EB
:1020F2005935DA005A08EA00D81B6A146A0803192B
:1021020090286A0A031D8D280030D9000030D800BB
:102112000030D7000030D600D817D90198280030F7
:10212200D9000030D8000030D7000030D600550862
:102132008039DA005A08DF065535DA005A08EB0012
:10214200D41B6B146B080319B4286B0A031DB12846
:102152000030D5000030D4000030D3000030D2006F
:10216200D417D501BC280030D5000030D40000308F
:10217200D3000030D2005508540453045204031D06
:10218200D7280030D9000030D8000030D700003006
:10219200D6008030D8047F30D9045908D5005808B9
:1021A200D4005708D3005608D20008006A08031D5D
:1021B200EB280030D9000030D8000030D7000030C2
:1021C200D6005908D5005808D4005708D30056083D
:1021D200D20008006B08DA00DB01DA09DB09DA0A4F
:1021E2000319DB0A6A085A07DC005B0803185B0A5A
:1021F200DD005C087F3EE40000305D3DE5005908EB
:10220200E3005808E2005708E1005608E0000030F9
:10221200D9000030D8000030D7000030D60000309E
:10222200E9000030E8000030E7000030E600EB0192
:102232001A306B02031855296B080319372901302C
:10224200E035E10DE20DE30D890B21290130D63590
:10225200D70DD80DD90D890B2829E91B5614013049
:10226200E635E70DE80DE90D890B312955086302C2
:10227200031D452954086202031D452953086102C2
:10228200031D452952086002031C50296917520890
:10229200E0025308E13B5408E23B5508E33B0130BE
:1022A200DA005A08EB071929630862046104600422
:1022B200031D6614D81B72290130D635D70DD80DEF
:1022C200D90D890B5E29E91B56140130E635E70D5D
:1022D200E80DE90D890B6729FF30E407FF30E53D82
:1022E2005B29EB01E91F8B29FF306605DA00FF301D
:1022F2006705DB00FF306805DC007F306905DD0023
:102302005D085C045B045A04031D8929561C8B2951
:10231200EB01EB0A6B080319B4290130D607003030
:10232200D73D0030D83D0030D93D591CB42956085C
:10233200DA005708DB005808DC005908DD000130DC
:10234200DE00DD37DC0CDB0CDA0CDE0BA2295D08CB
:10235200D9005C08D8005B08D7005A08D6000130C3
:10236200E4070030E53D6508803ADA0080305A0221
:10237200031DBD29FF306402031CCC29FF3020005D
:10238200E4000030E5000030D9000030D800003011
:10239200D7000030D60020006508803ADA0080308D
:1023A2005A02031DD629013064020318E4292000D1
:1023B200E401E5010030D9000030D8000030D70038
:1023C2000030D600DF0120006408DA005A08EA0073
:1023D2006A1CED29D817F1297F30DA005A08D8058E
:1023E2006A36DA005A08D9005F08DA005A08D904B6
:1023F2005908D5005808D4005708D3005608D2000F
:1024020008002100A8006E302802031C062B0A30A7
:102412002000A0000030A100210028082000D600E2
:10242200D7015608F4005708F5006430F200003076
:10243200F300AA31C722923173082000A300720868
:10244200A200AB31AD23923120002008D800210830
:10245200D900D835D90DD835D90D5808243EDA001F
:102462000030593DDB0034305A078400B0305B3D08
:102472008500003FDC00013FDD00023FDE00033F3C
:10248200DF005F08BB005E08BA005D08B9005C08A7
:10249200B8006430A0000030A1002100280820000C
:1024A200E000E1016008A2006108A300AB31AD23A6
:1024B200923120002008E2002108E300E235E30D1A
:1024C200E235E30D6208483EE4000030633DE5007A
:1024D200343064078400B030653D8500003FE6007B
:1024E200013FE700023FE800033FE9006908BF003F
:1024F2006808BE006708BD006608BC009531D42597
:10250200923120003B082100A70020003A08210058
:10251200A600200039082100A5002000380821006B
:10252200A4000A30F2000030F30028082000D60090
:10253200D7015608F4005708F500AA31C722923194
:1025420073088500720884008435850D8435850DF5
:1025520034308407B030853D003F2000D800013F71
:10256200D900023FDA00033FDB005B08BB005A08D8
:10257200BA005908B9005808B800210027082000FD
:10258200BF00210026082000BE00210025082000EF
:10259200BD00210024082000BC009531D4259231D1
:1025A20020003B082100A30020003A082100A200DD
:1025B200200039082100A100200038082100A000D5
:1025C2003F302000BB000030BA000030B9000030BC
:1025D200B800210023082000BF00210022082000AB
:1025E200BE00210021082000BD002100200820009B
:1025F200BC009531D42520003B08D5003A08D40010
:102602003908D3003808D20008000B302100280214
:10261200031CA42B0A30F2000030F300280820002B
:10262200D600D7015608F4005708F500AA31C72290
:10263200923173088500720884008435850D8435D3
:10264200850D34308407B030853D003F2000D8002E
:10265200013FD900023FDA00033FDB005B08BB0009
:102662005A08BA005908B9005808B8000A30A00040
:102672000030A100210028082000DC00DD015C08F8
:10268200A2005D08A300AB31AD23923120002008E7
:10269200DE002108DF00DE35DF0DDE35DF0D5E08EE
:1026A200243EE00000305F3DE100343060078400EA
:1026B200B030613D8500003FE200013FE300023F90
:1026C200E400033FE5006508BF006408BE0063083C
:1026D200BD006208BC009531D425923120003B0830
:1026E2002100A70020003A082100A6002000390896
:1026F2002100A500200038082100A4003F3020005E
:10270200BB000030BA000030B9000030B800210030
:1027120027082000BF00210026082000BE0021005B
:1027220025082000BD00210024082000BC009531AE
:10273200D42520003B08D5003A08D4003908D3003C
:102742003808D20008003F302000BB000030BA0039
:102752000030B9000030B800210028082000D6005F
:10276200D701D635D70DD635D70D3430560784006C
:10277200B030573D8500003FD800013FD900023FED
:10278200DA00033FDB005B08BF005A08BE005908AD
:10279200BD005808BC009531D42520003B08D50067
:1027A2003A08D4003908D3003808D20008002100C2
:1027B2002C088039B1003108BD002C35B100310838
:1027C200BF00AB1B3F143F080319F52B3F0A031D43
:1027D200F22B0030AC000030AB000030AA00003019
:1027E200A900AB17AC01FD2B0030AC000030AB00F0
:1027F2000030AA000030A90030088039B100310849
:10280200BE003E083D06031D3D173035B1003108BC
:10281200BE00AF1B3E143E0803191D2C3E0A031DC9
:102822001A2C0030B0000030AF000030AE00003093
:10283200AD00AF17B001252C0030B0000030AF0062
:102842000030AE000030AD003F083E0203186B2C92
:102852003D1F2F2C8030B1003108BD063F08B1006A
:102862003108C0003E08B1003108BF004008B10085
:102872003108BE002908B1003108C0002D08B1009E
:102882003108A9004008B1003108AD002A08B100A2
:102892003108C0002E08B1003108AA004008B1007A
:1028A2003108AE002B08B1003108C0002F08B1007A
:1028B2003108AB004008B1003108AF002C08B1006C
:1028C2003108C0003008B1003108AC004008B10046
:1028D2003108B000C0013F08B100B201B109B2092C
:1028E200B10A0319B20A3E083107B30032080318CD
:1028F200320AB4003408803AB50080303502031D34
:10290200842C1A303302031CB82C21002C082B040F
:102912002A04290403198F2C0130902C0030B100B5
:102922003108C0000030AC000030AB000030AA001B
:102932000030A9003E08B1003108BF00BD2C401C88
:10294200A82C40360138B1003108C000AA2C03106F
:10295200C00C2918C0170130B100AC37AB0CAA0C5F
:10296200A90CB10BAE2C0130B1003108BF07210018
:102972003E083F02031CA02C3D1BF02C3F08031D08
:10298200CB2C0030AC000030AB000030AA0000308D
:10299200A90008002D08A9072E08AA3D2F08AB3D63
:1029A2003008AC3D2C1C7D2D401CDF2C0310C00CCC
:1029B20040080138B1003108C000E12C0310C00CFE
:1029C2002918C0170130B100AC37AB0CAA0CA90C06
:1029D200B10BE52C0130B1003108BF077D2D2C0869
:1029E200803AB1003008803A3102031D022D2F08CF
:1029F2002B02031D022D2E082A02031D022D2D0873
:102A0200290203184D2DFF30B100FF30B200FF3014
:102A1200B300FF30B4002D08B5002E08B6002F0811
:102A2200B7003008B8002909B9002A09BA002B09F1
:102A3200BB002C09BC00B90A0319BA0A0319BB0A64
:102A42000319BC0A3908B5073A08B63D3B08B73D39
:102A52003C08B83D3508B1073608B23D3708B33DEA
:102A62003808B43D3408AC003308AB003208AA0081
:102A72003108A9008030B1003108BD06C009C00A82
:102A82004008031D552D0130A9070030AA3D003032
:102A9200AB3D0030AC3D552D2D08A9022E08AA3BB6
:102AA2002F08AB3B3008AC3B2C082B042A0429042A
:102AB200031D7B2D4008031D7B2D0030AC00003030
:102AC200AB000030AA000030A90008000130A9358F
:102AD200AA0DAB0DAC0D890B682DC01B2914401C2F
:102AE200742D0314752D0310C00D3F0803197B2D9F
:102AF2000130BF02AB1F672DBE01C01F882D4008E9
:102B02007F39031D862D291C882DBE01BE0A3E0871
:102B12000319B42D0130A9070030AA3D0030AB3DA6
:102B22000030AC3D2C1CB42D2908B1002A08B2009B
:102B32002B08B3002C08B4000130B500B437B30C35
:102B4200B20CB10CB50B9F2D3408AC003308AB00AE
:102B52003208AA003108A9003F0A0319B42D013036
:102B6200B1003108BF073F0A031D3F08031DC42DF2
:102B72000030AC000030AB000030AA000030A900E9
:102B82003F080319BD013F1CC82DAB17CC2D7F3068
:102B9200B1003108AB053F36B1003108AC00BD1FB2
:102BA2000800AC17080020003B088039C00040082C
:102BB200C5003B35C0004008CB00BA1B4B144B0884
:102BC2000319F02D4B0A031DEE2D0030BB0000301F
:102BD200BA000030B9000030B800BA17F82D003042
:102BE200BB000030BA000030B9000030B8003F0826
:102BF2008039C0004008C5063F35C0004008C60005
:102C0200BE1B461446080319132E460A031D112E35
:102C12000030BF000030BE000030BD000030BC00FC
:102C2200BE171B2E0030BF000030BE000030BD00BA
:102C32000030BC004608031D4B08031D292E00303E
:102C4200BB000030BA000030B9000030B800080004
:102C52003808C0004008F2003E08A931232195310E
:102C620073082000D1007208D0005008C000C101D2
:102C7200C201C3014308CA004208C9004108C80092
:102C82004008C7005108C000C101C201C301430886
:102C9200CF004208CE004108CD004008CC003908E0
:102CA200C0004008F2003D08A93123219531730884
:102CB2002000D1007208D0005008C000C101C2013A
:102CC200C3014008C7074108C83D4208C93D43083F
:102CD200CA3D5108C000C101C201C3014008CC076E
:102CE2004108CD3D4208CE3D4308CF3D3A08C000E1
:102CF2004008F2003C08A9312321953173082000D5
:102D0200D1007208D0005008C000C101C201C30145
:102D12004008C7074108C83D4208C93D4308CA3DAB
:102D22005108C000C101C201C3014008CC074108DB
:102D3200CD3D4208CE3D4308CF3D0830C735C80DD2
:102D4200C90DCA0D890B9F2E3908C0004008F20038
:102D52003C08A9312321953173082000D100720863
:102D6200D0005008C7075108C83D0030C93DCA3DD0
:102D72003808C0004008F2003D08A93123219531EE
:102D820073082000D1007208D0005008C70751080C
:102D9200C83D0030C93DCA3D0830C735C80DC90D10
:102DA200CA0D890BCE2E3808C0004008F2003C083C
:102DB200A9312321953173082000D1007208D00077
:102DC2005008C7075108C83D0030C93DCA3D3908FF
:102DD200C0004008F2003E08A93123219531730852
:102DE2002000D1007208D0005008CC075108CD3D18
:102DF2000030CE3DCF3D3A08C0004008F2003D0809
:102E0200A9312321953173082000D1007208D00026
:102E12005008CC075108CD3D0030CE3DCF3D3A0899
:102E2200C0004008F2003E08A93123219531730801
:102E32002000D1007208D0005008C0005108C10023
:102E4200C201C3010830C035C10DC20DC30D890BCB
:102E5200242F4008CC074108CD3D4208CE3D43080F
:102E6200CF3D4708C0004808C1004908C2004A08CF
:102E7200C3001830C336C20CC10CC00C890B3B2FE7
:102E82004008CC074108CD3D4208CE3D4308CF3D26
:102E92000830C735C80DC90DCA0D890B4A2F4B081A
:102EA2004607C000C101C10D4008823ED000FF307C
:102EB200413DD100CE1B722F0130CC35CD0DCE0D50
:102EC200CF0D890B5E2FCA1B4C140130C735C80DBC
:102ED200C90DCA0D890B672FFF30D007FF30D13DD6
:102EE2005B2FC601CA1F8B2FFF304705C000FF3082
:102EF2004805C100FF304905C2007F304A05C300C2
:102F02004308420441044004031D892F4C1C8B2FAB
:102F1200C601C60A46080319B42F0130CC07003097
:102F2200CD3D0030CE3D0030CF3D4F1CB42F4C087C
:102F3200C0004D08C1004E08C2004F08C300013056
:102F4200C400C337C20CC10CC00CC40BA22F43086F
:102F5200CF004208CE004108CD004008CC0001302D
:102F6200D0070030D13D5108803AC0008030400285
:102F7200031DBD2FFF305002031CC92F7F302000DC
:102F8200CF008030CE000030CD000030CC00F32FD7
:102F920020005108803AC00080304002031DD32F28
:102FA200013050020318E02F00302000CF00003023
:102FB200CE000030CD000030CC00C501F32F200040
:102FC2005008C0004008CB00FF30CC05FF30CD05D3
:102FD2007F30CE050030CF054B18CE174B36C000E0
:102FE2004008CF004508C0004008CF044F08BB008E
:102FF2004E08BA004D08B9004C08B8000800003469
:1030020000349934C534AB34CE3432340B34CF343B
:10301200D83456341D3464341634FD34D334073472
:10302200F4349E343134AC343A343534FF34C83459
:103032002C345134E9346334E234FA34273497348B
:10304200AD340E3468343C346334A534A634583479
:103052007534C134B034F334BB346A347E349034C2
:10306200593409349C343B349734A23452345F349B
:103072008134C6344434F4344F346D348A342E34BB
:103082005B34B7349E34853495341C345034E13487
:103092008334783446344A344D34D3348834293432
:1030A200AF34B0346A34823461341B34A434E6342D
:1030B20077347F34B2344D34B934D4347C34B934B7
:1030C200F63420343334123438348B34FD347634CD
:1030D2002E34EF34EB34DD34E03444342534BE3462
:1030E20002342734C7341534CC348C340934713467
:1030F200DA34E8341F34DA3414344334D134C53486
:10310200F3345C3436346E343D34F734F8340A34F4
:103112002B349334EE34A134E53438342034C234C1
:1031220007345B34C2346934C934F0340C340D349E
:10313200DF3494341A34A63411343F34D434523444
:103142005E34CB349B34F9349034603455349D343E
:1031520086340434433436344834AF348D345534F1
:10316200AA34CC346F34FE3464346734A1349A34D4
:1031720072340334B7343134BC34A8347934EB3488
:10318200A83472346D3440346634D934A3342434D0
:103192007034BD34B5348F34BE3416347B34EC34E1
:1031A2005C347534993447349234DE3457342334E2
:1031B2008434BA34413488344A3411348F347C3400
:1031C2000534E534C034D734CB344E340E34B33402
:1031D200DD342A341834183413348134D6347B3431
:1031E200F134E2343434D0343F344934FA34B43430
:1031F20029342D34EC341F34E7348634223413342A
:10320200A2348A346734B8346C342134A934DC34BF
:103212007A344534BF347734B434EE3471341434F0
:1032220056348D349334BF34983426345D34DB34D1
:103232008E3442344B3470344034E934853484342F
:103242000F341D34CA342F34C1346F344B344B34F1
:10325200D734D2341234E03419347934DC34833440
:10326200FB341A343E3428343534B134F0344C341F
:103272002334D534E634E734ED347E3428343D3417
:10328200F934A4343C34963437340F34F234F23403
:1032920021346B34E4345934EF34C0342A343A34B0
:1032A2000D34A334C8349134C33408340634F534AD
:1032B200D5346C3410345E341B34C734DE34AA3453
:1032C20054343334913401349A3498345F3465344D
:1032D2008C34FC344934CE34423457348734AD34E0
:1032E200A0343434653406346E349F34AB346234E3
:1032F2007834FB34BD34C934B63450347334D634E4
:1033020051344F3494347D349F34E4345A34193474
:10331200893480344C34B23447342B348234D1343F
:10332200A534483460347A346B34E334AE341E341A
:103332007D348734B834B534B3342C3476344134E4
:10334200FC34D8343934EA3432347334F7348E34BA
:1033520024341734E1342534EA34BC342F3446346F
:103362000834DF34CD34ED34C63474340334893454
:10337200D0341034153422341E34BB34DB34F834E8
:103382000A346134CF345334C434CA340134373448
:10339200D234AE3417349C341C340534D934FF345F
:1033A200FE3466343B3454343034CD34F534303466
:1033B2002634A934E3349B34E83402342D346F3498
:1033C200A734F6346234C43469345D34AC34A03486
:1033D2007F343934BA340B34B134923474346834AF
:1033E2005334F1349634C3349D345A345834A734A8
:1033F2008B343E344E340C344534953480340034AE
:1034020000349934C534AB34CE3432340B34CF3437
:10341200D83456341D3464341634FD34D33407346E
:10342200F4349E343134AC343A343534FF34C83455
:103432002C345134E9346334E234FA342734973487
:10344200AD340E3468343C346334A534A634583475
:103452007534C134B034F334BB346A347E349034BE
:10346200593409349C343B349734A23452345F3497
:103472008134C6344434F4344F346D348A342E34B7
:103482005B34B7349E34853495341C345034E13483
:103492008334783446344A344D34D334883429342E
:1034A200AF34B0346A34823461341B34A434E63429
:1034B20077347F34B2344D34B934D4347C34B934B3
:1034C200F63420343334123438348B34FD347634C9
:1034D2002E34EF34EB34DD34E03444342534BE345E
:1034E20002342734C7341534CC348C340934713463
:1034F200DA34E8341F34DA3414344334D134C53482
:10350200F3345C3436346E343D34F734F8340A34F0
:103512002B349334EE34A134E53438342034C234BD
:1035220007345B34C2346934C934F0340C340D349A
:10353200DF3494341A34A63411343F34D434523440
:103542005E34CB349B34F9349034603455349D343A
:1035520086340434433436344834AF348D345534ED
:10356200AA34CC346F34FE3464346734A1349A34D0
:1035720072340334B7343134BC34A8347934EB3484
:10358200A83472346D3440346634D934A3342434CC
:103592007034BD34B5348F34BE3416347B34EC34DD
:1035A2005C347534993447349234DE3457342334DE
:1035B2008434BA34413488344A3411348F347C34FC
:1035C2000534E534C034D734CB344E340E34B334FE
:1035D200DD342A341834183413348134D6347B342D
:1035E200F134E2343434D0343F344934FA34B4342C
:1035F20029342D34EC341F34E73486342234133426
:10360200A2348A346734B8346C342134A934DC34BB
:103612007A344534BF347734B434EE3471341434EC
:1036220056348D349334BF34983426345D34DB34CD
:103632008E3442344B3470344034E934853484342B
:103642000F341D34CA342F34C1346F344B344B34ED
:10365200D734D2341234E03419347934DC3483343C
:10366200FB341A343E3428343534B134F0344C341B
:103672002334D534E634E734ED347E3428343D3413
:10368200F934A4343C34963437340F34F234F234FF
:1036920021346B34E4345934EF34C0342A343A34AC
:1036A2000D34A334C8349134C33408340634F534A9
:1036B200D5346C3410345E341B34C734DE34AA344F
:1036C20054343334913401349A3498345F34653449
:1036D2008C34FC344934CE34423457348734AD34DC
:1036E200A0343434653406346E349F34AB346234DF
:1036F2007834FB34BD34C934B63450347334D634E0
:1037020051344F3494347D349F34E4345A34193470
:10371200893480344C34B23447342B348234D1343B
:10372200A534483460347A346B34E334AE341E3416
:103732007D348734B834B534B3342C3476344134E0
:10374200FC34D8343934EA3432347334F7348E34B6
:1037520024341734E1342534EA34BC342F3446346B
:103762000834DF34CD34ED34C63474340334893450
:10377200D0341034153422341E34BB34DB34F834E4
:103782000A346134CF345334C434CA340134373444
:10379200D234AE3417349C341C340534D934FF345B
:1037A200FE3466343B3454343034CD34F534303462
:1037B2002634A934E3349B34E83402342D346F3494
:1037C200A734F6346234C43469345D34AC34A03482
:1037D2007F343934BA340B34B134923474346834AB
:1037E2005334F1349634C3349D345A345834A734A4
:1037F2008B343E344E340C344534953480342000BE
:103802006F086E046D046C04031908008030EF0623
:103812000800D72C74080319152C22006E080138F1
:10382200F5007508EE00080022006E08FE39F5006A
:103832007508EE00080074080319262C22006E0891
:103842000238F5007508EE00080022006E08FD3906
:10385200F5007508EE00080074080319372C2200E1
:103862006E080438F5007508EE00080022006E08A4
:10387200FB39F5007508EE00080074080319482C9E
:1038820022006E080838F5007508EE0008002200D4
:103892006E08F739F5007508EE0008007408031980
:1038A200592C22006E081038F5007508EE00080049
:1038B20022006E08EF39F5007508EE000800740862
:1038C20003196A2C22006E082038F5007508EE00F4
:1038D200080022006E08DF39F5007508EE000800C6
:1038E200740803197B2C22006E084038F500750815
:1038F200EE00080022006E08BF39F5007508EE00E0
:103902000800740803198C2C22006E088038F50018
:103912007508EE00080022006E087F39F500750870
:10392200EE000800740803199D2C22006F0801386C
:10393200F5007508EF00080022006F08FE39F50057
:103942007508EF00080074080319AE2C22006F08F6
:103952000238F5007508EF00080022006F08FD39F3
:10396200F5007508EF00080074080319BF2C220047
:103972006F080438F5007508EF00080022006F0890
:10398200FB39F5007508EF00080074080319D02C04
:1039920022006F080838F5007508EF0008002200C1
:1039A2006F08F739F5007508EF0008007308003A50
:1039B2000319DC2CE62C720884000C300402031874
:1039C2000800A8310435003E820008002000D20021
:1039D200CB01D8015208031DB52DD701D70A0530F6
:1039E20057020318702ED8013C08BE003E08AF00F3
:1039F2004330BF003F08B0005708AC31A6249C31C9
:103A02002000D3013C0853020318B02DD4010F301B
:103A12008400B8308500000854020318652D580848
:103A2200013E433E860087010108BE00BF013E08F9
:103A3200BF00BE015808433E8600870101083E07C9
:103A4200CC003F0803183F0ACD001830BE003E08E4
:103A5200F2005308A83171209C3120003D07BF00BD
:103A62005708FF3EF200FF3003180030F3000F301A
:103A72008400B83085000008C000C1014008F4008D
:103A82004108F500A831CB209C3172082000540770
:103A920009073F07C20042088600013087004C0830
:103AA200C03F4D08C13F5808023EBE003E08D80044
:103AB2000130BE003E08D4070F308400B8308500C4
:103AC20000085402031C102D5808013E433E860094
:103AD20087010108BE00BF015808433E86008701E6
:103AE2000108C000C1014008C100C0013E084007F2
:103AF200CE003F08413DCF0011308400B830850030
:103B02000008BE003E08F2005308A83171209C3123
:103B1200433EF6000030F70010308400B8308500D4
:103B22000008AB310C239C3177082000D1007608C5
:103B3200D00051084F06031DA02D50084E06031950
:103B4200A62DFF30BE003E08CB005808023EBE0044
:103B52003E08D8000130BE003E08D307032D0130D5
:103B6200BE003E08D707F02C3C08BE003E08AF005E
:103B72004330BF003F08B0005208AC31A6249C314C
:103B82002000D5013C0855020318702ED6010F30D3
:103B92008400B8308500000856020318252E580804
:103BA200013E433E860087010108BE00BF013E0878
:103BB200BF00BE015808433E8600870101083E0748
:103BC200CC003F0803183F0ACD001830BE003E0863
:103BD200F2005508A83171209C3120003D07BF003A
:103BE2005208FF3EF200FF3003180030F3000F309E
:103BF2008400B83085000008C000C1014008F4000C
:103C02004108F500A831CB209C31720820005607EC
:103C120009073F07C20042088600013087004C08AE
:103C2200C03F4D08C13F5808023EBE003E08D800C2
:103C32000130BE003E08D6070F308400B830850040
:103C420000085602031CD02D5808013E433E860050
:103C520087010108BE00BF015808433E8600870164
:103C62000108C000C1014008C100C0013E08400770
:103C7200CE003F08413DCF0011308400B8308500AE
:103C82000008BE003E08F2005508A83171209C31A0
:103C9200433EF6000030F70010308400B830850053
:103CA2000008AB310C239C3177082000D100760844
:103CB200D00051084F06031D602E50084E0603190E
:103CC200662EFF30BE003E08CB005808023EBE0002
:103CD2003E08D8000130BE003E08D507C32D4B0870
:103CE20008002200C200210068082200BE003E082F
:103CF2002100DF000C30E0000030E1006708A43151
:103D020026249E312200C301C4014408803ABE0029
:103D120080303E02031D8F2E0C3043020318F42E16
:103D220040302100C4008630C3006630C2006630D5
:103D3200C10022004308BE000130BE35FF3E031D14
:103D42009E2E3E35210067072200BF003F088600F5
:103D520002308700403F2100C500413FC600423F7C
:103D6200C700433FC800A031B2209E31031CE02EA1
:103D720022004308BE000130BE35FF3E031DBD2EAA
:103D82003E35210067072200BF003F08860002304F
:103D92008700403F2100C100413FC200423FC300B3
:103DA200433FC4004030C8004630C7006630C600FA
:103DB2006630C500A031B2209E310318E42E2100E6
:103DC200E601E701080001302200C3070030C43DCC
:103DD2004408803ABE0080303E02031DF22E0C30B1
:103DE2004302031C912E0C302100C1000030C2009E
:103DF2006708AB315B239E312100680886000230E0
:103E020087004108C03F4208C13F4308C23F4408FF
:103E1200C33F41302000D5004030D4000030D300F1
:103E22000030D200C2302100AC001930AB00993012
:103E3200AA009A30A9006808860002308700403F35
:103E4200AD00413FAE00423FAF00433FB00093316F
:103E5200D8239E3121002C082000D90021002B08F4
:103E62002000D80021002A082000D70021002908BC
:103E72002000D600903173209E3121006A0886000E
:103E82000230870020005208C03F5308C13F540847
:103E9200C23F5508C33F05302100AF000030B000DB
:103EA2006608AD315A259E31220042088600023052
:103EB200870021002F08C03F3008C13F2200C50102
:103EC200C6014608803ABE0080303E02031D6B2FB9
:103ED200053045020318B32F22004535210066073D
:103EE2002200BE003E08860002308700403FBF002D
:103EF200413FC0004008803AC10080304102031DAA
:103F0200842F05303F02031C9F2F220045352100DC
:103F120066072200BE003E08860002308700403F4E
:103F2200BF00413FC0004008803AC10080304102DA
:103F3200031D9D2F29303F02031CA32F2100E60100
:103F4200E701080001302200C5070030C63D4608DF
:103F5200803ABE0080303E02031DB12F053045027B
:103F6200031C6D2FAA3103229E31210069088600AD
:103F7200023087004D08C03F4E08C13F4F08C23F84
:103F82005008C33F6908860002308700403FC100E5
:103F9200413FC200423FC300433FC400C030C8009B
:103FA2000030C7000030C6000030C500A031B2208A
:103FB2009E31031CF62F40302100C4000030C300A4
:103FC2000030C2000030C10069088600023087005C
:103FD200403FC500413FC600423FC700433FC800C3
:103FE200A031B2209E310318FA2F2100E601E70129
:0E3FF200080001302100E6000030E700080062
:104002002B302100D100B130D2006408D600630801
:10401200D5006208D4006108D300A0308031B320FB
:10402200A031B731F827A0312100111E0800152850
:1040320020006B082100A00020006C082100A100D4
:1040420020006D082100A20020006E082100A300BC
:104052000310220D230DA4002408A6002608031D28
:104062003C2800302000EE000030ED000030EC0073
:104072000030EB00080020006B082100A0002000A7
:104082006C082100A10020006D082100A200200080
:104092006E082100A3001F30A336A20CA10CA00CB5
:1040A200890B4D282008A4002408A5002000ED1744
:1040B200FF30EB05FF30EC05FF30ED050030EE057B
:1040C20096302100A602A61F85282608803A973E30
:1040D2000318752800302000EE000030ED0000309B
:1040E200EC000030EB00080001302000EE36ED0C51
:1040F200EC0CEB0C890B762801302100A000200883
:10410200A6070319A228752820302602031C9E2820
:1041120000302000EE000030ED000030EC000030F6
:10412200EB00080001302000EB35EC0DED0DEE0D3B
:10413200890B942801302100A60221002608031DC4
:1041420093282508031908002000EB09EC09ED0962
:10415200EE09EB0A0319EC0A0319ED0A0319EE0A38
:104162000800003021004105C90000304205CA00A4
:1041720080304305CB007F304405CC004C084B0413
:104182004A044904031DCD280030C4000030C30096
:104192000030C2000030C10000304505C9000030C7
:1041A2004605CA0080304705CB007F304805CC0069
:1041B2004C084B044A044904031DE7280030C80098
:1041C2000030C7000030C6000030C500C41F1029EF
:1041D2000030C9000030CA000030CB008030CC0073
:1041E2004109CD004209CE004309CF004409D00065
:1041F200CD0A0319CE0A0319CF0A0319D00A4D08B2
:10420200C9074E08CA3D4F08CB3D5008CC3D4C086B
:10421200C4004B08C3004A08C2004908C100C81FB5
:1042220039290030C9000030CA000030CB0080308C
:10423200CC004509CD004609CE004709CF00480908
:10424200D000CD0A0319CE0A0319CF0A0319D00AE6
:104252004D08C9074E08CA3D4F08CB3D5008CC3D1A
:104262004C08C8004B08C7004A08C6004908C500E8
:104272008030C4068030C80648084402031D080086
:1042820047084302031D080046084202031D0800B6
:104292004508410208002000C0004008AF0002307B
:1042A200AF35FF3E031D51292F35043EB0003008C3
:1042B200BF00B301B401B40A3D30AF002F08B5000E
:1042C2006E30AF002F08B6000430AF002F08C500D3
:1042D2004008AF002F08C40044080319DA29C301BB
:1042E20009308400B8308500000843020318A5296C
:1042F2000630AF002F08F2004408FF3EA8317120BB
:10430200A13179072000B00043083007B10031081D
:104312008600013087000108B2004508333E86005E
:104322008701320881004508013EAF002F08C50011
:104332000130AF002F08C30709308400B830850070
:1043420000084302031C79290630AF002F08F2004F
:104352004408FF3EA8317120A1317907F6000130EF
:10436200F70009308400B83085000008AB310C2317
:10437200A13177082000C2007608C1004208AF00D0
:104382004508333E860087012F0881004108AF00AF
:104392004508013E333E860087012F08810045080B
:1043A200023EAF002F08C5000130C4024408031DBD
:1043B2007029A8313920A13122008F113330200019
:1043C200AF002F08F5003F08A831B62022008F1554
:1043D200080072082000A0007308A1007408A2005F
:1043E2000310210D220DA3002308A9002908031D93
:1043F200032A0030F5000030F4000030F3000030F2
:10440200F20008007608A0007708A1007808A20050
:104412000310210D220DA3002308A8002808031D64
:104422001B2A0030F5000030F4000030F3000030A9
:10443200F2000800F317FF30F205FF30F3050030F9
:10444200F405F717FF30F605FF30F7050030F805E1
:104452000030A7000030A6000030A5000030A40004
:104462007F30A90298302807A0002008A90218303E
:10447200A0002008A8000130A435A50DA60DA70DA7
:10448200890B3D2A78087402031D4D2A77087302AE
:10449200031D4D2A76087202031C562A7608F20280
:1044A2007708F33B7808F43B24140130F235F30D1E
:1044B200F40D890B572A0130A802031D3C2AA91FBB
:1044C2007E2A2908803A973E0318702A0030F500A8
:1044D2000030F4000030F3000030F2000800013038
:1044E200A736A60CA50CA40C890B712A0130A000DA
:1044F2002008A9070319972A702A18302902031CD9
:10450200942A0030F5000030F4000030F30000304F
:10451200F20008000130A435A50DA60DA70D890BE8
:104522008C2A0130A9022908031D8B2A2708F500CD
:104532002608F4002508F3002408F20008002100F0
:10454200DE005E08860002308700403FD600413F11
:10455200D700423FD800433FD900DA01DB015B08B4
:10456200803AD3005208803A5302031DBA2A5108F6
:104572005A020318FD2A21005A08D3000130D3350C
:10458200FF3E031DC02A53355E07D400540886003F
:1045920002308700403FC100413FC200423FC3009A
:1045A200433FC4005908C8005808C7005708C6004E
:1045B2005608C500A031B220A2310318F72A210003
:1045C2005A08D3000130D335FF3E031DE42A533588
:1045D2005E07D4005408860002308700403FD600B0
:1045E200413FD700423FD800433FD900013021006C
:1045F200DA070030DB3DB02A2100DC01DD015D0875
:10460200803AD3005208803A5302031D0A2B510804
:104612005C020318582B21005C08D3000130D3350B
:10462200FF3E031D102B53355E07D400540886004D
:1046320002308700403FC100413FC200423FC300F9
:10464200433FC4003D30AC004C30AB00CC30AA003C
:10465200CD30A9005908B0005808AF005708AE0085
:104662005608AD009331D823A23121002C08C8008E
:104672002B08C7002A08C6002908C500A031B220AD
:10468200A2310030031801302100D5005D08F3008B
:104692005C08F2005508D3005308F4009C310A2448
:1046A200A23101302100DC070030DD3D002B6A30F1
:1046B2002100D3005308F9000130A1314C21080038
:1046C20072082000A0007308A1007408A2007508F7
:1046D200A3000310220D230DA4002408AA002A0817
:1046E200031D7C2B0030F5000030F4000030F30095
:1046F2000030F20008007608A0007708A1007808D0
:10470200A2007908A3000310220D230DA40024089F
:10471200A9002908031D962B0030F5000030F40093
:104722000030F3000030F2000800F417FF30F20509
:10473200FF30F305FF30F4050030F505F817FF30C0
:10474200F605FF30F705FF30F8050030F9050030B7
:10475200A8000030A7000030A6000030A5007F307E
:10476200AA02A0302907A0002008AA022030A00037
:104772002008A9000130A535A60DA70DA80D890BAB
:10478200BC2B79087502031DD02B78087402031D17
:10479200D02B77087302031DD02B76087202031CFC
:1047A200DB2B7608F2027708F33B7808F43B7908B2
:1047B200F53B25140130F235F30DF40DF50D890B9F
:1047C200DC2B0130A902031DBB2BAA1F042C2A08D3
:1047D200803A9F3E0318F62B0030F5000030F400BB
:1047E2000030F3000030F20008000130A836A70CB8
:1047F200A60CA50C890BF72B0130A0002008AA07F4
:1048020003191D2CF62B20302A02031C1A2C00300F
:10481200F5000030F4000030F3000030F200080030
:104822000130A535A60DA70DA80D890B122C01305C
:10483200AA022A08031D112C2808F5002708F400F3
:104842002608F3002508F20008002200BB00B90187
:10485200BA01FF302100E20062082200B8002030D5
:104862008600033087002030840001308500183034
:104872002100E20016001A00E20B3B2CA93198211C
:10488200A43121006108C2006008C10022003B0877
:10489200AB315B23A43121005F0886000230870020
:1048A2004108C03F4208C13F4308C23F4408C33FDA
:1048B2002000BC01BC0A20302100E2006208200076
:1048C200BD0000309C31E724A4312100E3006308DD
:1048D2002200B8000130B9070030BA3D3808031988
:1048E2007F2C3A08803A2100E20080306202031DE8
:1048F2007D2C0B3022003902031C592C2200BC01F2
:10490200BD013D08803A2100E20080306202031DB1
:104912008D2C0C3022003C0203183E2D3F3020002B
:10492200BB008030BA000030B9000030B800463019
:10493200D5001C30D4004030D3000030D200220019
:104942003C35203E860001308700403F2100E200D6
:10495200413FE30062082000AE002100630820000E
:10496200AF00B001B1010030AF316A27A43120009D
:104972003108D9003008D8002F08D7002E08D600F9
:1049820090317320A43120005508BF005408BE00A6
:104992005308BD005208BC009531D425A431220031
:1049A2003C082100E4000130E435FF3E031DD52C14
:1049B200643522003B072100E500650886000230CD
:1049C200870020003808C03F3908C13F3A08C23F7B
:1049D2003B08C33F22003C082100E2000130E235DF
:1049E200FF3E031DF02C623522003B072100E3004D
:1049F2006308860002308700403FC100413FC20089
:104A0200423FC300433FC4003D30C800CC30C70022
:104A1200CC30C600CD30C500A031B220A43103187D
:104A22002C2D22003C082100E2000130E235FF3E3D
:104A3200031D172D623522003B072100E3006308A6
:104A42008600023087000030C03F0030C13F003096
:104A5200C23F0030C33F01302200BC070030BD3DE1
:104A62003D08803A2100E20080306202031D3C2DA5
:104A72000C3022003C02031C8F2C22003A08803AA0
:104A82002100E20080306202031D4A2D0B30220019
:104A920039020318080021006108D2006008D10021
:104AA20022003B08A231A022080022003A0821007D
:104AB200DB00DC01DB1BDC0322003808803A21002A
:104AC200DD005C08803A5D02031D6A2D5B0822004E
:104AD20037020318722D22003A08B700B801B71B3B
:104AE200B8032200310832040319892D03302F053F
:104AF2002100DB000030220030052100DC005B08D1
:104B02005C040319892DFF302200B107FF30B23D4A
:104B12002200301FA52D3808803A2100DB00220038
:104B22003208803A21005B02031D9A2D22003108CF
:104B320037020318A22D22003708B1023808B23B0F
:104B4200A52D2200B101B2013A082100DB00DC01EF
:104B5200DB1BDC035C08803ADD0022003208803A6D
:104B620021005D02031DB92D2200310821005B02E4
:104B72000318CA2D22003A082100DB00DC01DB1BEE
:104B8200DC035B082200B10221005C082200B23B78
:104B9200CD2D2200B101B2012F1D052E03302F05AC
:104BA2002100DB000030220030052100DC005B0820
:104BB2005C040319EB2D2D30DB002200390886003E
:104BC2000230870021005B0881000130DB005B08B6
:104BD2002200B90722003108320403193D2E303079
:104BE2002100DB0022003908860002308700210004
:104BF2005B0881000130DB005B082200B907FF304F
:104C0200B107FF30B23DEC2D310832040319212ED9
:104C120020302100DB0022003908860002308700A4
:104C220021005B0881000130DB005B082200B9072C
:104C3200FF30B107FF30B23D31083204031D092EA7
:104C420003302F052100DB00003022003005210057
:104C5200DC005B085C0403193D2E2D30DB002200D2
:104C6200390886000230870021005B08810001308C
:104C7200DB005B082200B907FF302200B707FF30D4
:104C8200B83D370A0319380A80310319BB280030AE
:104C92002000A9000030A8000030A7000A30A600BA
:104CA200220038088500370884008435850D843554
:104CB200850D9A308407B030853D003FF200013FF8
:104CC200F300023FF400033FF5002C08F9002B0823
:104CD200F8002A08F7002908F600AB31FF23A531B6
:104CE20075082000AD007408AC007308AB007208B0
:104CF200AA00AA314122A53120002608303E210017
:104D0200DB005B082200BA003A0821002F2E390886
:104D1200860002308700810108002200C300BF0123
:104D2200C001C101C201C401C5014508803A210088
:104D3200E7006208803A6702031DA22E6108220082
:104D4200440203185A2F220044082100E7000130D0
:104D5200E735FF3E031DA92E6735220043072100D8
:104D6200E8006808860002308700403FC100413FEA
:104D7200C200423FC300433FC40022004108210059
:104D8200E9000130E935FF3E031DC32E69352200DB
:104D920043072100EA006A08860002308700403F8C
:104DA200C500413FC600423FC700433FC800A03193
:104DB200B220A6310318E32E22004508C20044089F
:104DC200C100212F22003F082100E7000130E73512
:104DD200FF3E031DE82E6735220043072100E8004D
:104DE2006808860002308700403FC100413FC20090
:104DF200423FC300433FC400220044082100E900AF
:104E02000130E935FF3E031D022F693522004307B9
:104E12002100EA006A08860002308700403FC50090
:104E2200413FC600423FC700433FC800A031B22005
:104E3200A6310318212F22004508C0004408BF00F4
:104E42004D302100D100B130D20022004408013E91
:104E52002100D30000302200453D2100D400220071
:104E620044082100E7000130E735FF3E031D352FDE
:104E72006735220043072100E800680886000230F7
:104E82008700403FD500413FD600423FD700433F15
:104E9200D800A0308031B320A631B731F827A6312F
:104EA2002100111A512F01302200C4070030C53DE4
:104EB200962E00302100D100B130D2006608D60013
:104EC2006508D5006408D4006308D300A03080319F
:104ED200B320A631B731F827A6312100111A6E2F5F
:104EE20022003F082100E7000130E735FF3E031DA5
:104EF200762F6735220043072100E8006808860004
:104F020002308700403FA900413FAA00423FAB0068
:104F1200433FAC00220041082100E9000130E9359D
:104F2200FF3E031D902F6935220043072100EA004E
:104F32006A08860002308700403F2000EC00413FB3
:104F4200ED00423FEE00433FEF009C310024A631CA
:104F520020006F082100B00020006E082100AF0081
:104F620020006D082100AE0020006C082100AD0079
:104F72009331D823A63121002C082200BE00210043
:104F82002B082200BD0021002A082200BC002100BB
:104F920029082200BB00C3302100D100B030D2006A
:104FA20022004108013E2100D30000302200423D90
:104FB2002100D40022003F08013E2100D50000302C
:104FC2002200403D2100D60022003E082100DA00E6
:104FD20022003D082100D90022003C082100D8000F
:104FE20022003B082100D700A0308031B320A63137
:104FF200B731F827A6312100111E0800FC2F9C3181
:105002000B2C9C311C2C9C312D2C9C313E2C9C3128
:105012004F2C9C31602C9C31712C9C31822C9C3108
:0E502200932C9C31A42C9C31B52C9C31C62CB7
:10503400B731FB27A831A8314D2008006400800156
:105044000131890B21280034FE0012001E00FE0BE2
:1050540027280034003490341F34C434003490348E
:105064000C340A34083409340B348D3414342200DB
:105074008F110530890B3C28000022008F15080091
:10508400F400740824009100141C46281108F2004E
:105094007208F3000800063025009A0021009114DC
:1050A400FE3020009B004F309C000800F300730882
:1050B40024009100141C5C281108F2007208F4000A
:1050C4007408080023001E139E161E121E111D13C1
:1050D4009D179C0102309B00200011120800F5006E
:1050E400F401751C79287208F3007308F40703109F
:1050F400F20D0310F50C7508031D732874080800DD
:10510400F201F20AF301F4010230AC31FB24A831BC
:105114006A302000C6004608F9000130A1314C2154
:10512400080022009D151D162100911192112000E6
:10513400911192114F302400920028309500C03014
:105144009400080022008F159D121D129D11240049
:10515400171294171417123095002100911520008E
:105164009111240095160800F700F80177087802D9
:105174000318080078087507F6007608860087018A
:105184000108A8314220A8310130F6007608F8075A
:10519400B828F601F701721CD3287408F6077508BD
:1051A400F73D0130F435F50D890BD4280130F33681
:1051B400F20C890BD92872087304031DCD287708D3
:1051C400F3007608F200080021008D120C148C14F0
:1051D4000C158C150D148D140D158D150D168F14BD
:1051E4000F3023008C001F308D0001308F00210010
:1051F4008F1424008F0121009D0160309E000F3028
:105204009F00080080302100C4064808AC0047080D
:10521400AB004608AA004508A9004408B0004308AA
:10522400AF004208AE004108AD009331D8232100FD
:105234002C08C4002B08C3002A08C2002908C10096
:1052440008002000A400A001A1017208F400F501E7
:105254007408A2007508A300241C34292208A0079E
:105264002308A13D0130A235A30D890B3529031074
:10527400A40C2408031D2E292108F3002008F200A1
:10528400080021000F128F120C148B170B17A83172
:105294001A20A93121008C1222008C1621000C1234
:1052A400A831E620A931A8316420A93121000D17C5
:1052B4008D17A8319320A93121008E120E168E115C
:1052C4008F11A831A420A931A83182200800200020
:1052D400A400A201760822020318802922082407C8
:1052E400A0002008860087010108A8314220A931C6
:1052F40001302000A0002008A2076C29A30178082F
:10530400230203180800FF30A8315820A9312000D7
:10531400A00023087707A100210886008701200840
:1053240081000130A0002008A307812921006C0816
:10533400F90079082000AF0021006D08F900790810
:105344002000B000EC30F6000030F7000230AB3142
:105354000C23A93177082000B4007608B300340880
:10536400F9007908B1003308F9007908B200A831CE
:105374003920A93122008F112F30F9007908F50066
:105384000430A831B62022008F1508002100E60160
:10539400E701E601E7016108FF3EE300FF30623DFB
:1053A400E4006708803AE5006408803A6502031D5A
:1053B400DD29630866020318F32967302100D10050
:1053C400B130D200A0308031B320A931B731F827F1
:1053D400A9312100111AEB290130E6070030E73D1D
:1053E400CD295C302100D100B130D200A030803111
:1053F400B320A931B731F827A9312100111E0800C3
:10540400FF297530AC315224AA3172082000AE0055
:105414007308AF00890D893B8909B000B1000130E0
:10542400AF316A27AA31200031082100D4002000BE
:1054340030082100D30020002F082100D2002000D2
:105444002E082100D1005408C4005308C300520898
:10545400C2005108C100AE31E12621004408D40045
:105464004308D3004208D2004108D1005408D000B8
:105474005308CF005208CE005108CD000800200088
:10548400290828042704260403197B2AAF01AF0A3C
:10549400A91B582A0130A635A70DA80DA90D890B03
:1054A4004D2A0130AE002E08AF074A2A29082D02E2
:1054B400031D662A28082C02031D662A27082B02CE
:1054C400031D662A26082A02031C702A2608AA023B
:1054D4002708AB3B2808AC3B2908AD3B0130A93673
:1054E400A80CA70CA60C890B712A0130AF02031D6E
:1054F400582A2D08A9002C08A8002B08A7002A0860
:10550400A600080042302000BB00C830BA000030BA
:10551400B9000030B800210064082000BF00210059
:1055240063082000BE00210062082000BD002100A5
:1055340061082000BC009531D425AA3120003B0825
:105544002100E80020003A082100E7002000390883
:105554002100E600200038082100E500E930D100F0
:10556400B030D2006808D6006708D5006608D400B9
:105574006508D300A0308031B320AA31B731F827B1
:10558400AA312100111E0800C32AF801F51FD12AEF
:10559400F409F509F40A0319F50AF801F80AF31FE6
:1055A400D82AF209F309F20A0319F30A72087304F8
:1055B4000319FF2AF701F70AF31BEA2A0130F2352F
:1055C400F30D890BE12A0130F6007608F707DE2A8D
:1055D40073087502031DF02A72087402031CF62A6C
:1055E4007208F4027308F53B0130F336F20C890BB0
:1055F400F72A0130F702031DEA2A78080319072B5A
:10560400F409F509F40A0319F50A7508F300740896
:10561400F20008002000A9001030AD000030AE00F8
:10562400AC0129082C020318562B2C08A000A10158
:105634002008760786002108773D87000108A2002C
:10564400A3012E08A5002D08A4000730A600250DEF
:10565400A50CA40CA60B292B22082406A7002308BA
:105664002506A800FF302705AA0000302805AB0056
:105674002B0885002A0884008435850D00308407B2
:105684009830853D003FA000013FA1002D08A300F4
:10569400A20120082206AD0021082306AE00013035
:1056A400A0002008AC07132B2D35F6002E0DF700B3
:1056B40008002100C7000030CB000030CA000030D1
:1056C400C9000030C800CC01CD014D08803AC500A6
:1056D4004208803A4502031D712B41084C0203180D
:1056E400A32B21004C08C5000130C535FF3E031D26
:1056F400772B45354707C6004608860002308700E9
:10570400403FA900413FAA00423FAB00433FAC00E9
:105714004B08B0004A08AF004908AE004808AD0085
:105724009331D823AB3121002C08CB002B08CA00BD
:105734002A08C9002908C8000130CC070030CD3D33
:10574400672B21004B08C4004A08C3004908C20063
:105754004808C10008002000A501A11FB82BA0091A
:10576400A109A00A0319A10AA501A50AA31FC32B15
:10577400A209A309A20A0319A30A0130F9007908AE
:10578400A506A601A701200821040319F22BA401F0
:10579400A40AA11BD72B0130A035A10D890BCE2B58
:1057A4000130F9007908A407CB2B0130A635A70DE9
:1057B400890BD82B21082302031DE22B2008220287
:1057C400031CE92B2008A2022108A33B2614013064
:1057D400A136A00C890BEA2B0130A402031DD72BA0
:1057E40025080319FA2BA609A709A60A0319A70A6B
:1057F4002708A1002608A000080000302000A4000B
:105804000030A3000030A2000030A1007508740429
:10581400730472040319492CA501A50AF51B1E2C57
:105824000130F235F30DF40DF50D890B132C013015
:10583400A0002008A507102C0130A135A20DA30D4E
:10584400A40D890B1F2C75087902031D332C7408D1
:105854007802031D332C73087702031D332C72085E
:105864007602031C3E2C7208F6027308F73B740898
:10587400F83B7508F93B21140130F536F40CF30CB0
:10588400F20C890B3F2C0130A502031D1E2C2408A9
:10589400F5002308F4002208F3002108F2000800B0
:1058A4002000A7002708A000A00DA00D21001D08BE
:1058B400200020068339200621009D001D14A030FD
:1058C4000032890B622C21009D149D18672C1C0842
:1058D4002000A000A1012008A8002108A90021009F
:1058E4001B082000A000A1012008AA002108AB0089
:1058F4002B08A1002A08A0000430A200210DA10C4D
:10590400A00CA20B802CFF302005A3000F30210532
:10591400A4002908A6002808A500A50EA60EF030AC
:10592400A60525080F39A604F030A505230825048B
:10593400AC0024082604AD0021001D1020002D0811
:10594400F3002C08F20008002000BB003B03031DF9
:10595400AD2C0430BE2C02303B06031DB32C0630A4
:10596400BE2C03303B06031DB92C0830BE2C04307A
:105974003B06031DC22C0A30B1003108B800B70140
:105984003730F6000030F7000230AB310C23AC3175
:1059940077082000B6007608B5003608B100310853
:1059A400B9003508B1003108BA00A8313920AC314A
:1059B40022008F1104302000B1003108F6003008B5
:1059C400B2003208F7002F08B3003308F2000E309B
:1059D4008400B83085000008A8317120AC31200063
:1059E400B4003408F8003730A931692122008F153A
:1059F4000800F70077360139F5007508F8007808D3
:105A0400023EF50075082100EC0077080139F50025
:105A14000630F535FF3E031D0B2D7535F60076086F
:105A2400F8007208F5000330F535FF3E031D162D0E
:105A3400753578077307603EF6007608ED00773613
:105A44000139F5007508F8007808043EF50075087A
:105A54002200E80077080139F5000630F535FF3EED
:105A6400031D302D7535F6007608F80078087407A4
:105A7400603EF5007508E90077360139F5007508D0
:105A8400F8007808043EF5007508E6007708013947
:105A9400F5000630F535FF3E031D4C2D7535F60037
:105AA4007608F8007808693EF5007508E7000800F4
:105AB4002100B700B501B60122008D12250052085D
:105AC400AC315224AD3173082100A8007208A7003C
:105AD400AD31D925AD3121002808B6002708B5001D
