:0400000080317528AE
:100008007E14803120007F08F1000B198B1E3B28DD
:1000180001302300C4070030C53D4508803AF00090
:1000280080307002031D1A2803304402031C27285D
:1000380001302300C0000030C100C401C5010130F7
:10004800C6070030C73D23004708803AF000A730B4
:100058007002031D312810304602031C3A28013073
:100068002300C2000030C300C601C7010B112100E4
:10007800911C48282000911C482801302300C0000A
:100088000030C100200091102000111E68282100B6
:10009800111E68287A08A03E8600023087000108F1
:1000A800031963287A08A03E8600023087000108F9
:1000B80023009A000130FA070030FB3D6828FA0156
:1000C800FB01AD31E62580312000911D702821000B
:1000D800911D70282000911171082000FF007E10EA
:1000E8000900803177280E308400AE308500D83082
:1000F8008600013087000730AD31FA258031FA01DA
:10010800FB0162308400013085000D30AD31F425EB
:100118008031A0308400013085003830AD31F425BD
:10012800803120308400023085003030AD31F42534
:100138008031A0308400023085003230AD31F425A2
:10014800803120308400033085005030AD31F425F3
:100158007E1020009D319E2D2100B400B41F452A39
:10016800B409B40A3408803A123E031CA0290A30A4
:100178002000A0000030A10021003408F400F5019F
:10018800F41BF5036430F2000030F300A031F720CF
:10019800803173082000A3007208A200A131DD217C
:1001A8008031200020082100A00020002108210023
:1001B800A100A035A10DA035A10D2008243EA20064
:1001C8000030213DA300343022078400B030233DA5
:1001D8008500003FA400013FA500023FA600033FA1
:1001E800A70027082000D500210026082000D400F9
:1001F800210025082000D300210024082000D20077
:100208006430A0000030A100210034082000A200C2
:10021800A301A21BA303A131DD2180312000200806
:100228002100A800200021082100A900A835A90D57
:10023800A835A90D2808483EAA000030293DAB0082
:1002480034302A078400B0302B3D8500003FAC00D5
:10025800013FAD00023FAE00033FAF002F08200072
:10026800D90021002E082000D80021002D082000E8
:10027800D70021002C082000D6008331D5238031F7
:10028800200055082100B300200054082100B200C6
:10029800200053082100B100200052082100B000BE
:1002A8000A30F2000030F3003408F400F501F41BC2
:1002B800F503A031F72080317308850072088400A7
:1002C8008435850D8435850D34308407B030853DFF
:1002D800003F2100A000013FA100023FA200033F10
:1002E800A30023082000D500210022082000D40004
:1002F800210021082000D300210020082000D2007E
:10030800210033082000D900210032082000D8003D
:10031800210031082000D700210030082000D60035
:100328008331D52320005508EF005408EE00530808
:10033800ED005208EC00080021003408803A753EB0
:10034800031C1F2A0A30F2000030F3003408F400BE
:10035800F501F41BF503A031F720803173088500FF
:10036800720884008435850D8435850D3430840702
:10037800B030853D003F2100A000013FA100023FB1
:10038800A200033FA30023082000D5002100220873
:100398002000D400210021082000D30021002008DB
:1003A8002000D2000A30A0000030A100210034084B
:1003B8002000A200A301A21BA303A131DD218031EB
:1003C800200020082100A400200021082100A50009
:1003D800A435A50DA435A50D2408243EA60000309B
:1003E800253DA700343026078400B030273D85001E
:1003F800003FA800013FA900023FAA00033FAB004D
:100408002B082000D90021002A082000D80021004C
:1004180029082000D700210028082000D6008331B1
:10042800D52320005508EF005408EE005308ED00CE
:100438005208EC00080021003408A000A101A035F2
:10044800A10DA035A10D343020078400B030213D26
:100458008500003FA200013FA300023FA400033F24
:10046800A50025082000EF00210024082000EE0048
:10047800210023082000ED00210022082000EC00C4
:10048800080021003408803A123E031C302B0A3041
:100498002000A0000030A10021003408F400F5017C
:1004A800F41BF5036430F2000030F300A031F720AC
:1004B800803173082000A3007208A200A131DD2159
:1004C8008031200020082100A00020002108210000
:1004D800A100A035A10DA035A10D2008243EA20041
:1004E8000030213DA300003022078400B030233DB6
:1004F8008500003FA400013FA500023FA600033F7E
:10050800A70027082000D500210026082000D400D5
:10051800210025082000D300210024082000D20053
:100528006430A0000030A100210034082000A2009F
:10053800A301A21BA303A131DD21803120002008E3
:100548002100A800200021082100A900A835A90D34
:10055800A835A90D2808483EAA000030293DAB005F
:1005680000302A078400B0302B3D8500003FAC00E6
:10057800013FAD00023FAE00033FAF002F0820004F
:10058800D90021002E082000D80021002D082000C5
:10059800D70021002C082000D6008331D5238031D4
:1005A800200055082100B300200054082100B200A3
:1005B800200053082100B100200052082100B0009B
:1005C8000A30F2000030F3003408F400F501F41B9F
:1005D800F503A031F7208031730885007208840084
:1005E8008435850D8435850D00308407B030853D10
:1005F800003F2100A000013FA100023FA200033FED
:10060800A30023082000D500210022082000D400E0
:10061800210021082000D300210020082000D2005A
:10062800210033082000D900210032082000D8001A
:10063800210031082000D700210030082000D60012
:100648008331D52320005508EF005408EE005308E5
:10065800ED005208EC00080021003408803A753E8D
:10066800031CAF2B0A30F2000030F3003408F4000A
:10067800F501F41BF503A031F720803173088500DC
:10068800720884008435850D8435850D0030840713
:10069800B030853D003F2100A000013FA100023F8E
:1006A800A200033FA30023082000D5002100220850
:1006B8002000D400210021082000D30021002008B8
:1006C8002000D2000A30A0000030A1002100340828
:1006D8002000A200A301A21BA303A131DD218031C8
:1006E800200020082100A400200021082100A500E6
:1006F800A435A50DA435A50D2408243EA600003078
:10070800253DA700003026078400B030273D85002E
:10071800003FA800013FA900023FAA00033FAB0029
:100728002B082000D90021002A082000D800210029
:1007380029082000D700210028082000D60083318E
:10074800D52320005508EF005408EE005308ED00AB
:100758005208EC00080021003408A000A101A035CF
:10076800A10DA035A10D003020078400B030213D37
:100778008500003FA200013FA300023FA400033F01
:10078800A50025082000EF00210024082000EE0025
:10079800210023082000ED00210022082000EC00A1
:1007A8000800200055088039DA005A08DF0055355E
:1007B800DA005A08E500D41B651465080319F12B03
:1007C800650A031DEF2B0030D5000030D40000303F
:1007D800D3000030D200D417F92B0030D5000030F8
:1007E800D4000030D3000030D20059088039DA0034
:1007F8005A08DF065935DA005A08E000D81B601499
:1008080060080319142C600A031D122C0030D9004B
:100818000030D8000030D7000030D600D8171C2C84
:100828000030D9000030D8000030D7000030D600A2
:100838006008031D6508031D2A2C0030D500003010
:10084800D4000030D3000030D20008005208DA008B
:100858005A08F2005808AE31EE268331730820009A
:10086800EB007208EA006A08DA00DB01DC01DD014E
:100878005D08E4005C08E3005B08E2005A08E10058
:100888006B08DA00DB01DC01DD015D08E9005C08CA
:10089800E8005B08E7005A08E6005308DA005A083F
:1008A800F2005708AE31EE26833173082000EB00C2
:1008B8007208EA006A08DA00DB01DC01DD015A0887
:1008C800E1075B08E23D5C08E33D5D08E43D6B0839
:1008D800DA00DB01DC01DD015A08E6075B08E73DC9
:1008E8005C08E83D5D08E93D5408DA005A08F20062
:1008F8005608AE31EE26833173082000EB007208EB
:10090800EA006A08DA00DB01DC01DD015A08E107C8
:100918005B08E23D5C08E33D5D08E43D6B08DA00F6
:10092800DB01DC01DD015A08E6075B08E73D5C08EE
:10093800E83D5D08E93D0830E135E20DE30DE40DE1
:10094800890BA02C5308DA005A08F2005608AE3179
:10095800EE26833173082000EB007208EA006A086B
:10096800E1076B08E23D0030E33DE43D5208DA0060
:100978005A08F2005708AE31EE268331730820007A
:10098800EB007208EA006A08E1076B08E23D0030F4
:10099800E33DE43D0830E135E20DE30DE40D890B5C
:1009A800CF2C5208DA005A08F2005608AE31EE266B
:1009B800833173082000EB007208EA006A08E10737
:1009C8006B08E23D0030E33DE43D5308DA005A0885
:1009D800F2005808AE31EE26833173082000EB0090
:1009E8007208EA006A08E6076B08E73D0030E83D50
:1009F800E93D5408DA005A08F2005708AE31EE26ED
:100A0800833173082000EB007208EA006A08E607E1
:100A18006B08E73D0030E83DE93D5408DA005A0824
:100A2800F2005808AE31EE26833173082000EB003F
:100A38007208EA006A08DA006B08DB00DC01DD01F5
:100A48000830DA35DB0DDC0DDD0D890B252D5A0854
:100A5800E6075B08E73D5C08E83D5D08E93D61089D
:100A6800DA006208DB006308DC006408DD00183087
:100A7800DD36DC0CDB0CDA0C890B3C2D5A08E6075A
:100A88005B08E73D5C08E83D5D08E93D0830E13575
:100A9800E20DE30DE40D890B4B2D65086007DA00C4
:100AA800DB01DB0D5A08823EEA00FF305B3DEB00BC
:100AB800E81B732D0130E635E70DE80DE90D890BCC
:100AC8005F2DE41B66140130E135E20DE30DE40D02
:100AD800890B682DFF30EA07FF30EB3D5C2DE00104
:100AE800E41F8C2DFF306105DA00FF306205DB0062
:100AF800FF306305DC007F306405DD005D085C04C1
:100B08005B045A04031D8A2D661C8C2DE001E00A43
:100B180060080319B52D0130E6070030E73D0030C5
:100B2800E83D0030E93D691CB52D6608DA00670824
:100B3800DB006808DC006908DD000130DE00DD3715
:100B4800DC0CDB0CDA0CDE0BA32D5D08E9005C087D
:100B5800E8005B08E7005A08E6000130EA070030C1
:100B6800EB3D6B08803ADA0080305A02031DBE2D37
:100B7800FF306A02031CCA2D7F302000E900803054
:100B8800E8000030E7000030E600F42D20006B0894
:100B9800803ADA0080305A02031DD42D01306A02EF
:100BA8000318E12D00302000E9000030E800003093
:100BB800E7000030E600DF01F42D20006A08DA00C3
:100BC8005A08E500FF30E605FF30E7057F30E80505
:100BD8000030E9056518E8176536DA005A08E900B3
:100BE8005F08DA005A08E9046908D5006808D400E3
:100BF8006708D3006608D200080021004008803941
:100C0800C5004508D1004035C5004508D300BF1BC5
:100C18005314530803191E2E530A031D1B2E0030AC
:100C2800C0000030BF000030BE000030BD00BF175C
:100C3800C001262E0030C0000030BF000030BE00CA
:100C48000030BD0044088039C5004508D20052086C
:100C58005106031D51174435C5004508D200C31B72
:100C6800521452080319462E520A031D432E00300F
:100C7800C4000030C3000030C2000030C100C317F8
:100C8800C4014E2E0030C4000030C3000030C20042
:100C98000030C100530852020318942E511F582ED9
:100CA8008030C5004508D1065308C5004508D40062
:100CB8005208C5004508D3005408C5004508D200AD
:100CC8003D08C5004508D4004108C5004508BD00D9
:100CD8005408C5004508C1003E08C5004508D400B1
:100CE8004208C5004508BE005408C5004508C200B2
:100CF8003F08C5004508D4004308C5004508BF00A3
:100D08005408C5004508C3004008C5004508D4007C
:100D18004408C5004508C0005408C5004508C4007B
:100D2800D4015308C500C601C509C609C50A031977
:100D3800C60A52084507C70046080318460AC800ED
:100D48004808803AC90080304902031DAD2E1A3088
:100D58004702031CE12E210040083F043E043D04E5
:100D68000319B82E0130B92E0030C5004508D4004B
:100D78000030C0000030BF000030BE000030BD00B1
:100D88005208C5004508D300E62E541CD12E54360F
:100D98000138C5004508D400D32E0310D40C3D18E3
:100DA800D4170130C500C037BF0CBE0CBD0CC50B35
:100DB800D72E0130C5004508D30721005208530239
:100DC800031CC92E511B192F5308031DF42E003084
:100DD800C0000030BF000030BE000030BD00080079
:100DE8004108BD074208BE3D4308BF3D4408C03D19
:100DF800401CA62F541C082F0310D40C540801388B
:100E0800C5004508D4000A2F0310D40C3D18D41788
:100E18000130C500C037BF0CBE0CBD0CC50B0E2F72
:100E28000130C5004508D307A62F4008803AC50001
:100E38004408803A4502031D2B2F43083F02031D37
:100E48002B2F42083E02031D2B2F41083D02031899
:100E5800762FFF30C500FF30C600FF30C700FF30D7
:100E6800C8004108C9004208CA004308CB0044082A
:100E7800CC003D09CD003E09CE003F09CF00400916
:100E8800D000CD0A0319CE0A0319CF0A0319D00AD4
:100E98004D08C9074E08CA3D4F08CB3D5008CC3D08
:100EA8004908C5074A08C63D4B08C73D4C08C83D18
:100EB8004808C0004708BF004608BE004508BD00F6
:100EC8008030C5004508D106D409D40A5408031D4A
:100ED8007E2F0130BD070030BE3D0030BF3D0030E1
:100EE800C03D7E2F4108BD024208BE3B4308BF3BC0
:100EF8004408C03B40083F043E043D04031DA42FA2
:100F08005408031DA42F0030C0000030BF0000307B
:100F1800BE000030BD0008000130BD35BE0DBF0D5C
:100F2800C00D890B912FD41B3D14541C9D2F031405
:100F38009E2F0310D40D53080319A42F0130D30298
:100F4800BF1F902FD201D41FB12F54087F39031D22
:100F5800AF2F3D1CB12FD201D20A52080319DD2F41
:100F68000130BD070030BE3D0030BF3D0030C03D00
:100F7800401CDD2F3D08C5003E08C6003F08C700DD
:100F88004008C8000130C900C837C70CC60CC50CDA
:100F9800C90BC82F4808C0004708BF004608BE0054
:100FA8004508BD00530A0319DD2F0130C500450867
:100FB800D307530A031D5308031DED2F0030C0004B
:100FC8000030BF000030BE000030BD0053080319D8
:100FD800D101531CF12FBF17F52F7F30C5004508ED
:100FE800BF055336C5004508C000D11F0800C0170B
:100FF8000800210011160800063025009A0021007B
:101008009114FE3020009B004F309C000800220005
:10101800B900DF302100E70067082200A4002100A2
:101028005E08E8005D08E700DD0A0319DE0A6708C4
:101038008400680885000008E90069082200BA00F1
:101048003A080319FA2F25303A0603193C283A08BA
:101058002100E700220039088600023087002100BD
:10106800670881000130E70067082200B9071328E4
:10107800B101B201AF01B001482822002F1501309B
:101088002100DD070030DE3D21005D0884005E0898
:1010980085000008303A0319412852285D08840069
:1010A8005E0885000008AE313F268831031C92286F
:1010B8002200B101B2010A30F2000030F300220030
:1010C8003208F5003108F400AE31962688317308ED
:1010D8002200B2007208B10021005D0884005E0899
:1010E80085000008D03EE700FF3003180030E80014
:1010F80067082200B107210068082200B23D0130CC
:101108002100DD070030DE3D5D0884005E088500B3
:101118000008AE313F26883103185F2821005D089A
:1011280084005E08850012002E3A031DDA2822008A
:10113800301701302100DD070030DE3D2200B70105
:10114800B80121005D0884005E0885000008AE3102
:101158003F268831031CE12821005D0884005E08D1
:1011680085000008E700E80122003808F300370886
:10117800F2000A30F4000030F500AE3196268831CE
:10118800210067087207E9006808733DEA006908EA
:10119800D03E2200B700FF3021006A3D2200B8008F
:1011A80001302100DD070030DE3DA5282200B7010F
:1011B800B8013016E1283015FD2821005E08E80046
:1011C8005D08E700DD0A0319DE0A6708840068087D
:1011D800850000082200BA00003A0319FA2F643A81
:1011E8000319FD28023A0319DF280F3A0319FD28CD
:1011F800132800302F052100E700073022003005B2
:101208002100E800670868040319342E2200301E04
:1012180011290630B7000030B8002408860087017D
:10122800403FB300413FB400423FB500433FB600E2
:1012380004302100E70067082200A4073608F500FB
:101248003508F4003408F3003308F2000030F900E0
:101258000030F8000030F7000030F600A631B02664
:1012680088310318502922003608F5003508F400A3
:101278003408F3003308F2009C31002488317508E3
:101288002200B6007408B5007308B4007208B300F1
:101298000330AF040030B0042200AD01AE013608BF
:1012A8003504340433040319202A33082100E700E5
:1012B800220034082100E800220035082100E90056
:1012C800220036082100EA000310690D6A0D823EEB
:1012D8002200AD00FF3003180030AE00FF30AD072C
:1012E800FF30AE3D0330F2000030F3002E08F50069
:1012F8002D08F400AE319626883173082200AE001E
:101308007208AD000A302000A0000030A1002200C1
:101318002E082000A30022002D082000A200A131E1
:10132800DD218831200021082200AE00200020089D
:101338002200AD00AE1FA429FF30AD07FF30AE3D3F
:101348002D03FF3A8031B020883120006F08220039
:10135800A80020006E082200A70020006D082200C7
:10136800A60020006C082200A50036082000D50041
:10137800220035082000D400220034082000D300C1
:10138800220033082000D200220028082000D900BB
:10139800220027082000D800220026082000D700B5
:1013A800220025082000D6008331D523883120006B
:1013B80055082200A800200054082200A700200099
:1013C80053082200A600200052082200A500280881
:1013D800F5002708F4002608F3002508F2003F303E
:1013E800F9008030F8000030F7000030F600A63130
:1013F800B02688310318052AFF302200AD07FF30D8
:101408001F2A22002808F5002708F4002608F30000
:101418002508F2004130F9002030F8000030F700CC
:101428000030F600A631B0268831031C202A01308E
:101438002200AD070030AE3D22003808803A210076
:10144800E70080306702031D2C2A0D302200370286
:101458000318662A220037089531F72588312000BD
:101468006F082100C00020006E082100BF00200086
:101478006D082100BE0020006C082100BD0022007C
:1014880036082100C400220035082100C3002200CC
:1014980034082100C200220033082100C10086312F
:1014A80001268831210040082200B60021003F08AB
:1014B8002200B50021003E082200B40021003D08AA
:1014C8002200B30022002E08803A2100E700803075
:1014D8006702031D722A0A3022002D020318A22A6D
:1014E800220036083504340433040319F82A360870
:1014F8002100B800220035082100B7002200340876
:101508002100B600220033082100B500A33185234D
:10151800883121003808370436043504031DF82AB9
:1015280022002E08803A2100E70080306702031D60
:10153800A02A023022002D02031CF82A22002808C3
:10154800F5002708F4002608F3002508F2004030CB
:10155800F9008930F8007030F7005F30F600A631E6
:10156800B02688310318BA2AF730BB2AF83022008F
:10157800AD07FF30AE3D2D088031B0208831200006
:101588006F082200A80020006E082200A700200093
:101598006D082200A60020006C082200A50036086D
:1015A800F5003508F4003408F3003308F200280881
:1015B800F9002708F8002608F7002508F6009C31EE
:1015C8000924883175082200AC007408AB00730840
:1015D800AA007208A9000030B6000030B50000303B
:1015E800B4000030B300632B220036082100B80095
:1015F800220035082100B700220034082100B60077
:10160800220033082100B500A33185238831210049
:1016180038082200AC00210037082200AB00210066
:1016280036082200AA00210035082200A9002C084B
:101638002000B10022002B082000B00022002A0858
:101648002000AF00220029082000AE000030A6319B
:101658001A268831200031082100D80020003008DF
:101668002100D70020002F082100D60020002E08D6
:101678002100D500220036082100DC0022003508B0
:101688002100DB00220034082100DA0022003308A0
:101698002100D900AE31CF26883121005808220018
:1016A800B600210057082200B50021005608220084
:1016B800B400210055082200B300AD01AE01BA0103
:1016C800BA0A0A303A060319A02B3A082100E700A3
:1016D800E801E735E80DE735E80D9A30670784003B
:1016E800B030683D8500003FE900013FEA00023F55
:1016F800EB00033FEC006C0822002C02031D942B26
:1017080021006B0822002B02031D942B21006A087C
:1017180022002A02031D942B2100690822002902B5
:10172800031CA02B01302100E70067082200BA073C
:101738000A303A06031D692B3A082100E700E80140
:10174800E71BE8032200370821006707E9002200A9
:1017580038082100683DEA0022002D0821006907A9
:10176800EB0022002E0821006A3DEC006B082200E5
:10177800B10221006C082200B23B37083804031973
:10178800C92BFF30B107FF30B23D03302F052100D0
:10179800E7000030220030052100E80067086804EF
:1017A8000319DB2BFF302200B107FF30B23D2200C6
:1017B8002F1D312C03302F052100E70000302200B7
:1017C80030052100E800670868040319FA2B2D305A
:1017D800E7002200390886000230870021006708E8
:1017E80081000130E70067082200B90722003208AB
:1017F800803A2100E70080306702031D062C013083
:1018080022003102031C5C2C30302100E70022004A
:1018180039088600023087002100670881000130FE
:10182800E70067082200B907FF30B107FF30B23D73
:10183800FA2B20302100E700220039088600023008
:1018480087002100670881000130E700670822004F
:10185800B907FF30B107FF30B23D22003208803AA5
:101868002100E70080306702031D3D2C0130220073
:10187800310203181D2C033022002F052100E70038
:101888000030220030052100E800670868040319C9
:101898005C2C2D30E70022003908860002308700D2
:1018A8002100670881000130E70067082200B907B6
:1018B800FF302100E70067082200BA073A0A031937
:1018C800D42C3A082100E700E801E735E80DE735B0
:1018D800E80D9A3067078400B030683D8500003F06
:1018E800F200013FF300023FF400033FF50022003D
:1018F8002C08F9002B08F8002A08F7002908F60038
:10190800A2312F22883175082200A8007408A70088
:101918007308A6007208A50000302000A900003056
:10192800A8000030A7000A30A600220028082000DE
:10193800AD00220027082000AC0022002608200065
:10194800AB00220025082000AA00A031B42088316D
:10195800200029082200A800200028082200A7004B
:10196800200027082200A600200026082200A50043
:101978002508303E21004E2C30302100E70022009F
:10198800390886000230870021006708810001308D
:10199800E70067082200B907FF30AD07FF30AE3D0A
:1019A8002E08803A2100E70080306702031DDF2CF3
:1019B800013022002D020318C02C22003808803A7A
:1019C8002100E70080306702031DED2C093022005A
:1019D8003702031CF12C0830F32C220037082100B1
:1019E800E70067082200BA003A082100E700E8018A
:1019F800E71BE80367082200B702210068082200F5
:101A0800B83B3A080319182D2E302100E7002200B0
:101A180039088600023087002100670881000130FC
:101A2800E70067082200B9073A088031B0208831FA
:101A380020006F082200A30020006E082200A200E8
:101A480020006D082200A10020006C082200A000E0
:101A580023082000D900220022082000D8002200F4
:101A680021082000D700220020082000D6002200EC
:101A780036082000D500220035082000D4002200B6
:101A880034082000D300220033082000D20083311C
:101A9800D5238831200055082100B80020005408BB
:101AA8002100B700200053082100B600200052088A
:101AB8002100B500A3318523883121003808220090
:101AC800AC00210037082200AB00210036082200B4
:101AD800AA00210035082200A900FF302100E700F4
:101AE80067082200BA073A0A03192F2E3A0821007C
:101AF800E700E801E735E80DE735E80D9A306707B4
:101B08008400B030683D8500003FF200013FF300DB
:101B1800023FF400033FF50022002C08F9002B08CF
:101B2800F8002A08F7002908F600A2312F22883188
:101B380075082200A8007408A7007308A600720898
:101B4800A50000302000A9000030A8000030A70040
:101B58000A30A600220028082000AD00220027082D
:101B68002000AC00220026082000AB002200250837
:101B78002000AA00A031B4208831200029082200C2
:101B8800A800200028082200A7002000270822001B
:101B9800A600200026082200A5002508303E2100C6
:101BA800E700220039088600023087002100670814
:101BB80081000130E70067082200B9073A082100D0
:101BC800E700E801E735E80DE735E80D9A306707E3
:101BD8008400B030683D8500003F2000A600013F2A
:101BE800A700023FA800033FA90022002C082000FC
:101BF800AD0022002B082000AC0022002A0820009B
:101C0800AB00220029082000AA00A031B4208831A6
:101C1800200029082200AC00200028082200AB0080
:101C2800200027082200AA00200026086F2D303047
:101C38002100E700220039088600023087002100D1
:101C4800670881000130E70067082200B907FF3004
:101C5800B707FF30B83D37083804031913281B2E7F
:101C68002200240886008701403F2100E700413F09
:101C7800E80067082200A900210068082200AA00DD
:101C8800890D893B8909AB00AC0002302100E700CF
:101C980067082200A407AC1F602E0330AF04003091
:101CA800B004A909AA09AB09AC09A90A0319AA0A27
:101CB8000319AB0A0319AC0A37083804031D6E2E42
:101CC8002C082B042A042904031D6E2E0130B707A3
:101CD8000030B83DBA01BA0A0A303A060319AB2EE9
:101CE8003A082100E700E801E735E80DE735E80D97
:101CF8009A3067078400B030683D8500003FE900EE
:101D0800013FEA00023FEB00033FEC006C082200B1
:101D18002C02031D9F2E21006B0822002B02031D9D
:101D28009F2E21006A0822002A02031D9F2E2100EF
:101D3800690822002902031CAB2E01302100E700AC
:101D480067082200BA070A303A06031D742E3A08BB
:101D58002100E700E801E71BE8036808803AE9008A
:101D680022003808803A21006902031DBF2E220094
:101D78003708210067020318C92E220037082100FE
:101D8800E70067082200BA00E52E22003A08210081
:101D9800E700E801E71BE80322003808803A210041
:101DA800E9006808803A6902031DDD2E67082200F1
:101DB80037020318E52E22003A08B700B801B71B0E
:101DC800B8032200310832040319FC2E03302F0512
:101DD8002100E7000030220030052100E8006708F4
:101DE80068040319FC2EFF302200B107FF30B23D12
:101DF8002200301F182F3808803A2100E7002200FF
:101E08003208803A21006702031D0D2F2200310895
:101E180037020318152F22003708B1023808B23BE1
:101E2800182F2200B101B2013A082100E700E801A9
:101E3800E71BE8036808803AE90022003208803A84
:101E480021006902031D2C2F22003108210067029E
:101E580003183D2F22003A082100E700E801E71B9C
:101E6800E80367082200B102210068082200B23B9B
:101E7800402F2200B101B2012F1D782F03302F050A
:101E88002100E7000030220030052100E800670843
:101E9800680403195E2F2D30E700220039088600F8
:101EA800023087002100670881000130E7006708D9
:101EB8002200B9072200310832040319B02F30304C
:101EC8002100E7002200390886000230870021003F
:101ED800670881000130E70067082200B907FF3072
:101EE800B107FF30B23D5F2F310832040319942F38
:101EF80020302100E70022003908860002308700E0
:101F08002100670881000130E70067082200B9074F
:101F1800FF30B107FF30B23D31083204031D7C2F7A
:101F280003302F052100E700003022003005210092
:101F3800E800670868040319B02F2D30E700220075
:101F480039088600023087002100670881000130C7
:101F5800E70067082200B907FF302200B707FF3003
:101F6800B83D370A0319380A03191328003020002E
:101F7800A9000030A8000030A7000A30A6002200FF
:101F880038088500370884008435850D8435850D2B
:101F98009A308407B030853D003FF200013FF300DE
:101FA800023FF400033FF5002C08F9002B08F80065
:101FB8002A08F7002908F600A2312F22883175086F
:101FC8002000AD007408AC007308AB007208AA00CA
:101FD800A031B420883120002608303E2100E700D7
:101FE80067082200BA003A082100A22F39088600A3
:101FF80002308700810108000034003400340034C6
:102008000034003400340034003400345F340034C9
:102018000034003400340034003400340734003411
:102028000734003400340034003414347F3414345A
:102038007F34143400340034003424342A347F3498
:102048002A3412340034003400342334133408346E
:10205800643462340034003400343634493455343E
:10206800223450340034003400340034053403344E
:10207800003400340034003400341C342234413439
:1020880000340034003400340034413422341C3429
:102098000034003400340034003408342A341C344A
:1020A8002A340834003400340034083408343E3408
:1020B80008340834003400340034A0346034003468
:1020C8000034003400340034003408340834083450
:1020D8000834083400340034003460346034003488
:1020E8000034003400340034003420341034083410
:1020F800043402340034003400343E34513449345A
:1021080045343E34003400340034003442347F34E3
:1021180040340034003400340034623451344934DB
:1021280049344634003400340034223441344934CC
:10213800493436340034003400341834143412343A
:102148007F341034003400340034273445344534A7
:10215800453439340034003400343C344A3449348A
:1021680049343034003400340034013471340934D3
:1021780005340334003400340034363449344934E7
:102188004934363400340034003406344934493490
:1021980029341E34003400340034003436343634E4
:1021A800003400340034003400340034AC346C346F
:1021B8000034003400340034003408341434223439
:1021C80041340034003400340034143414341434EA
:1021D80014341434003400340034413422341434B8
:1021E80008340034003400340034023401345134EB
:1021F8000934063400340034003432344934793434
:1022080041343E340034003400347E340934093417
:1022180009347E340034003400347F34493449347E
:10222800493436340034003400343E3441344134C7
:10223800413422340034003400347F344134413492
:1022480022341C340034003400347F344934493497
:10225800493441340034003400347F3409340934BB
:10226800093401340034003400343E3441344134FC
:10227800513472340034003400347F340834083464
:1022880008347F3400340034003441347F3441341E
:1022980000340034003400340034203440344134F5
:1022A8003F3401340034003400347F3408341434AB
:1022B800223441340034003400347F344034403414
:1022C800403440340034003400347F3402340C3459
:1022D80002347F340034003400347F34043408344A
:1022E80010347F340034003400343E3441344134F7
:1022F80041343E340034003400347F340934093426
:10230800093406340034003400343E344134513446
:1023180021345E340034003400347F3409341934F5
:1023280029344634003400340034263449344934DE
:1023380049343234003400340034013401347F34F9
:10234800013401340034003400343F344034403424
:1023580040343F340034003400341F3420344034D7
:1023680020341F340034003400343F3440343834CF
:1023780040343F34003400340034633414340834B7
:1023880014346334003400340034033404347834AF
:102398000434033400340034003461345134493493
:1023A800453443340034003400347F3441344134FC
:1023B8000034003400340034003402340434083467
:1023C80010342034003400340034413441347F3434
:1023D800003400340034003400340434023401344E
:1023E80002340434003400340034803480348034BF
:1023F800803480340034003400340134023404342E
:10240800003400340034003400342034543454345C
:10241800543478340034003400347F34483444343D
:1024280044343834003400340034383444344434C8
:10243800283400340034003400343834443444340C
:1024480048347F340034003400343834543454343D
:102458005434183400340034003408347E340934D9
:10246800023400340034003400341834A434A43462
:10247800A4347C340034003400347F340834043409
:102488000434783400340034003400347D340034AB
:1024980000340034003400340034803484347D3413
:1024A800003400340034003400347F3410342834CD
:1024B8004434003400340034003441347F34403430
:1024C800003400340034003400347C3404341834CC
:1024D800043478340034003400347C340834043450
:1024E8007C34003400340034003438344434443408
:1024F80038340034003400340034FC3424342434B8
:1025080018340034003400340034183424342434AB
:10251800FC34003400340034003400347C34083493
:10252800043400340034003400344834543454340F
:102538002434003400340034003404347F34443408
:10254800003400340034003400343C344034403427
:102558007C3400340034003400341C3420344034DB
:1025680020341C340034003400343C3440343034DB
:1025780040343C34003400340034443428341034BB
:10258800283444340034003400341C34A034A034DB
:102598007C3400340034003400344434643454341B
:1025A8004C34443400340034003408343634413474
:1025B8000034003400340034003400347F340034F4
:1025C80000340034003400340034413436340834E4
:1025D800003400340034003400340234013401344F
:1025E8000234013400340034003402340534053434
:1025F800023400340034003423001E139E161E12C9
:102608001E111D139D179C0102309B002000111202
:1026180008002200CD00C901CA01CB01CC01CE01BE
:10262800CF014F08803AC1003C08803A4102031D9F
:102638001F2B3B084E020318C72B22004E08C1006F
:102648000130C135FF3E031D252B41354D07C20022
:102658004208860002308700403FF200413FF30005
:10266800423FF400433FF5004B08C3000130C33537
:10267800FF3E031D3B2B43354D07C400440886002D
:1026880002308700403FF600413FF700423FF80024
:10269800433FF900A631B02693310318592B220085
:1026A8004F08CC004E08CB00902B22004908C100EF
:1026B8000130C135FF3E031D5D2B41354D07C2007A
:1026C8004208860002308700403FF200413FF30095
:1026D800423FF400433FF5004E08C3000130C335C4
:1026E800FF3E031D732B43354D07C4004408860085
:1026F80002308700403FF600413FF700423FF800B4
:10270800433FF900A631B02693310318902B2200DD
:102718004F08CA004E08C90036302100DD00B1302C
:10272800DE0022004E08013E2100DF0000302200BA
:102738004F3D2100E00022004E08C1000130C135A4
:10274800FF3E031DA32B41354D07C20042088600FA
:1027580002308700403F2100E100413FE200423F54
:10276800E300433FE400A03088310B2093318731E8
:10277800FD2793312100111ABE2B01302200CE070C
:102788000030CF3D152BE9302100DD00B030DE00F0
:10279800220040082100E20022003F082100E10059
:1027A80022003E082100E00022003D082100DF0051
:1027B800A03088310B2093318731FD2793312100D8
:1027C800111AE32B22004908C1000130C135FF3E30
:1027D800031DEA2B41354D07C2004208860002302E
:1027E8008700403F2100BD00413FBE00423FBF007F
:1027F800433FC00022004B08C3000130C335FF3EF1
:10280800031D022C43354D07C400440886000230DE
:102818008700403FF200413FF300423FF400433F4E
:10282800F5009C310024933175082100C400740818
:10283800C3007308C2007208C100863101269331B3
:10284800210040082200C80021003F082200C700DC
:1028580021003E082200C60021003D082200C500D4
:10286800C3302100DD00B030DE0022004B08013EFD
:102878002100DF00003022004C3D2100E000220052
:102888004908013E2100E100003022004A3D2100B4
:10289800E200220048082100E60022004708210043
:1028A800E500220046082100E40022004508210036
:1028B800E300A03088310B2093318731FD27933115
:1028C8002100111E0800642C20003F088039C00038
:1028D8004008C5003F35C0004008D000BE1B50145A
:1028E80050080319852C500A031D822C0030BF00A4
:1028F8000030BE000030BD000030BC00BE17BF0174
:102908008D2C0030BF000030BE000030BD0000300C
:10291800BC003B088039C0004008C5063B35C000F4
:102928004008D100BA1B511451080319A92C510AA7
:10293800031DA62C0030BB000030BA000030B900DF
:102948000030B800BA17BB01B12C0030BB00003012
:10295800BA000030B9000030B8003B083A04390426
:102968003804031DCC2C0030BF000030BE000030FE
:10297800BD000030BC008030BE047F30BF043F087B
:10298800BB003E08BA003D08B9003C08B800080082
:102998005008031DE02C0030BF000030BE0000309E
:1029A800BD000030BC003F08BB003E08BA003D082F
:1029B800B9003C08B80008005108C000C101C009AE
:1029C800C109C00A0319C10A50084007C2004108DA
:1029D8000318410AC30042087F3ECA000030433D45
:1029E800CB003F08C9003E08C8003D08C7003C08A6
:1029F800C6000030BF000030BE000030BD0000300F
:102A0800BC000030CF000030CE000030CD000030D8
:102A1800CC00D1011A30510203184A2D510803196C
:102A28002C2D0130C635C70DC80DC90D890B162DC3
:102A38000130BC35BD0DBE0DBF0D890B1D2DCF1B43
:102A48003C140130CC35CD0DCE0DCF0D890B262D84
:102A58003B084902031D3A2D3A084802031D3A2D46
:102A680039084702031D3A2D38084602031C452D34
:102A78004F173808C6023908C73B3A08C83B3B0815
:102A8800C93B0130C0004008D1070E2D4908480451
:102A980047044604031D4C14BE1B672D0130BC358A
:102AA800BD0DBE0DBF0D890B532DCF1B3C1401303E
:102AB800CC35CD0DCE0DCF0D890B5C2DFF30CA075F
:102AC800FF30CB3D502DD101CF1F802DFF304C055D
:102AD800C000FF304D05C100FF304E05C2007F30F9
:102AE8004F05C3004308420441044004031D7E2DE2
:102AF8003C1C802DD101D10A51080319A92D0130A0
:102B0800BC070030BD3D0030BE3D0030BF3D3F1C1E
:102B1800A92D3C08C0003D08C1003E08C2003F087E
:102B2800C3000130C400C337C20CC10CC00CC40BB5
:102B3800972D4308BF004208BE004108BD00400869
:102B4800BC000130CA070030CB3D4B08803AC000BA
:102B580080304002031DB22DFF304A02031CC12DF4
:102B6800FF302000CA000030CB000030BF0000302A
:102B7800BE000030BD000030BC0020004B08803A89
:102B8800C00080304002031DCB2D01304A020318DB
:102B9800D92D2000CA01CB010030BF000030BE0093
:102BA8000030BD000030BC00C50120004A08C0004C
:102BB8004008D000501CE22DBE17E62D7F30C00023
:102BC8004008BE055036C0004008BF004508C00098
:102BD8004008BF043F08BB003E08BA003D08B900E2
:102BE8003C08B80008002100BC006E303C02031C01
:102BF800162F0A302000A0000030A10021003C0858
:102C0800A000A1012008F4002108F5006430F200BA
:102C18000030F300A031F720953173082000A3009D
:102C28007208A200A131DD21953120002008210081
:102C3800A200200021082100A300A235A30DA2357F
:102C4800A30D2208243EA4000030233DA500343003
:102C580024078400B030253D8500003FA600013FD1
:102C6800A700023FA800033FA90029082000D500BB
:102C7800210028082000D400210027082000D300C4
:102C8800210026082000D2006430A0000030A100F6
:102C980021003C08AA00AB012A082000A20021005C
:102CA8002B082000A300A131DD2195312000200848
:102CB8002100AC00200021082100AD00AC35AD0D8D
:102CC800AC35AD0D2C08483EAE0000302D3DAF00B0
:102CD80034302E078400B0302F3D8500003FB0000F
:102CE800013FB100023FB200033FB30033082000A8
:102CF800D900210032082000D80021003108200026
:102D0800D700210030082000D6008331D523953123
:102D1800200055082100BB00200054082100BA00FB
:102D2800200053082100B900200052082100B800F3
:102D38000A30F2000030F3003C08A000A10120088E
:102D4800F4002108F500A031F720953173088500BB
:102D5800720884008435850D8435850D34308407E8
:102D6800B030853D003F2100A200013FA300023F93
:102D7800A400033FA50025082000D5002100240851
:102D88002000D400210023082000D30021002208BD
:102D98002000D20021003B082000D90021003A0879
:102DA8002000D800210039082000D7002100380869
:102DB8002000D6008331D523953120005508210005
:102DC800B700200054082100B60020005308210055
:102DD800B500200052082100B4003F302000D50083
:102DE8000030D4000030D3000030D2002100370872
:102DF8002000D900210036082000D800210035081D
:102E08002000D700210034082000D6008331D523C4
:102E180020005508EF005408EE005308ED00520852
:102E2800EC0008000B3021003C02031CC62F0A30BE
:102E3800F2000030F3003C08A000A1012008F400D3
:102E48002108F500A031F720953173088500720834
:102E580084008435850D8435850D34308407B03081
:102E6800853D003F2100A200013FA300023FA400CE
:102E7800033FA50025082000D500210024082000D4
:102E8800D400210023082000D300210022082000BC
:102E9800D2000A30A0000030A10021003C08A600A2
:102EA800A70126082000A200210027082000A3006F
:102EB800A131DD219531200020082100A800200043
:102EC80021082100A900A835A90DA835A90D2808B1
:102ED800243EAA000030293DAB0034302A07840084
:102EE800B0302B3D8500003FAC00013FAD00023FF4
:102EF800AE00033FAF002F082000D90021002E08A4
:102F08002000D80021002D082000D70021002C081F
:102F18002000D6008331D5239531200055082100A3
:102F2800BB00200054082100BA00200053082100EB
:102F3800B900200052082100B8003F302000D50019
:102F48000030D4000030D3000030D20021003B080C
:102F58002000D90021003A082000D80021003908B3
:102F68002000D700210038082000D6008331D5235F
:102F780020005508EF005408EE005308ED005208F1
:102F8800EC0008003F302000D5000030D4000030AD
:102F9800D3000030D20021003C08A000A101A035D8
:102FA800A10DA035A10D343020078400B030213D9B
:102FB8008500003FA200013FA300023FA400033F99
:102FC800A50025082000D900210024082000D800E9
:102FD800210023082000D700210022082000D60065
:102FE8008331D52320005508EF005408EE0053081C
:102FF800ED005208EC000800003400349934C53460
:10300800AB34CE3432340B34CF34D83456341D3448
:1030180064341634FD34D3340734F4349E343134F4
:10302800AC343A343534FF34C8342C345134E934B0
:103038006334E234FA3427349734AD340E346834C8
:103048003C346334A534A63458347534C134B034B0
:10305800F334BB346A347E349034593409349C34A4
:103068003B349734A23452345F348134C634443408
:10307800F4344F346D348A342E345B34B7349E3490
:10308800853495341C345034E134833478344634F0
:103098004A344D34D33488342934AF34B0346A34A4
:1030A800823461341B34A434E63477347F34B23448
:1030B8004D34B934D4347C34B934F6342034333410
:1030C800123438348B34FD3476342E34EF34EB3408
:1030D800DD34E03444342534BE3402342734C73474
:1030E8001534CC348C3409347134DA34E8341F3470
:1030F800DA3414344334D134C534F3345C343634DC
:103108006E343D34F734F8340A342B349334EE34C7
:10311800A134E53438342034C23407345B34C23443
:103128006934C934F0340C340D34DF3494341A342F
:10313800A63411343F34D43452345E34CB349B3407
:10314800F9349034603455349D348634043443342F
:1031580036344834AF348D345534AA34CC346F34D3
:10316800FE3464346734A1349A3472340334B73487
:103178003134BC34A8347934EB34A83472346D3427
:1031880040346634D934A33424347034BD34B5346F
:103198008F34BE3416347B34EC345C347534993453
:1031A80047349234DE34573423348434BA344134C7
:1031B80088344A3411348F347C340534E534C034CF
:1031C800D734CB344E340E34B334DD342A34183487
:1031D800183413348134D6347B34F134E234343443
:1031E800D0343F344934FA34B43429342D34EC34EF
:1031F8001F34E734863422341334A2348A346734D3
:10320800B8346C342134A934DC347A344534BF34CE
:103218007734B434EE347134143456348D349334F2
:10322800BF34983426345D34DB348E3442344B3426
:1032380070344034E934853484340F341D34CA344E
:103248002F34C134B63404344B34D734D234123426
:10325800E03419347934DC348334FB341A343E34A2
:1032680028343534B134F0344C342334D534E6348E
:10327800E734ED347E3428343D34F934A4343C3416
:10328800963437340F34F234F23421346B34E43466
:103298005934EF34C0342A343A340D34A334C834A2
:1032A8009134C33408340634F534D5346C341034CE
:1032B8005E341B34C734DE34AA3454343334913486
:1032C80001349A3498345F3465348C34FC3449348E
:1032D800CE34423457348734AD34A0343434653472
:1032E80006346E349F34AB3462347834FB34BD34E6
:1032F800C934B63450347334D63451344F349434DA
:103308007D349F34E4345A341934893480344C344D
:10331800B23447342B348234D134A5344834603441
:103328007A346B34E334AE341E347D348734B834A5
:10333800B534B3342C3476344134FC34D83439348D
:10334800EA3432347334F7348E3424341734E134A5
:103358002534EA34BC342F3446340834DF34CD34D1
:10336800ED34C634743403348934D034103415340D
:1033780022341E34BB34DB34F8340A346134CF349D
:103388005334C434CA3401343734D234AE341734E5
:103398009C341C340534D934FF34FE3466343B3451
:1033A80054343034CD34F53430342634A934E3344D
:1033B8009B34E83402342D346F34A734F634623445
:1033C800C43469345D34AC34A0347F343934BA340D
:1033D8000B34B1349234743468345334F134963441
:1033E800C3349D345A345834A7348B343E344E3465
:1033F8000C34453495348034003400349934C53461
:10340800AB34CE3432340B34CF34D83456341D3444
:1034180064341634FD34D3340734F4349E343134F0
:10342800AC343A343534FF34C8342C345134E934AC
:103438006334E234FA3427349734AD340E346834C4
:103448003C346334A534A63458347534C134B034AC
:10345800F334BB346A347E349034593409349C34A0
:103468003B349734A23452345F348134C634443404
:10347800F4344F346D348A342E345B34B7349E348C
:10348800853495341C345034E134833478344634EC
:103498004A344D34D33488342934AF34B0346A34A0
:1034A800823461341B34A434E63477347F34B23444
:1034B8004D34B934D4347C34B934F634203433340C
:1034C800123438348B34FD3476342E34EF34EB3404
:1034D800DD34E03444342534BE3402342734C73470
:1034E8001534CC348C3409347134DA34E8341F346C
:1034F800DA3414344334D134C534F3345C343634D8
:103508006E343D34F734F8340A342B349334EE34C3
:10351800A134E53438342034C23407345B34C2343F
:103528006934C934F0340C340D34DF3494341A342B
:10353800A63411343F34D43452345E34CB349B3403
:10354800F9349034603455349D348634043443342B
:1035580036344834AF348D345534AA34CC346F34CF
:10356800FE3464346734A1349A3472340334B73483
:103578003134BC34A8347934EB34A83472346D3423
:1035880040346634D934A33424347034BD34B5346B
:103598008F34BE3416347B34EC345C34753499344F
:1035A80047349234DE34573423348434BA344134C3
:1035B80088344A3411348F347C340534E534C034CB
:1035C800D734CB344E340E34B334DD342A34183483
:1035D800183413348134D6347B34F134E23434343F
:1035E800D0343F344934FA34B43429342D34EC34EB
:1035F8001F34E734863422341334A2348A346734CF
:10360800B8346C342134A934DC347A344534BF34CA
:103618007734B434EE347134143456348D349334EE
:10362800BF34983426345D34DB348E3442344B3422
:1036380070344034E934853484340F341D34CA344A
:103648002F34C134B63404344B34D734D234123422
:10365800E03419347934DC348334FB341A343E349E
:1036680028343534B134F0344C342334D534E6348A
:10367800E734ED347E3428343D34F934A4343C3412
:10368800963437340F34F234F23421346B34E43462
:103698005934EF34C0342A343A340D34A334C8349E
:1036A8009134C33408340634F534D5346C341034CA
:1036B8005E341B34C734DE34AA3454343334913482
:1036C80001349A3498345F3465348C34FC3449348A
:1036D800CE34423457348734AD34A034343465346E
:1036E80006346E349F34AB3462347834FB34BD34E2
:1036F800C934B63450347334D63451344F349434D6
:103708007D349F34E4345A341934893480344C3449
:10371800B23447342B348234D134A534483460343D
:103728007A346B34E334AE341E347D348734B834A1
:10373800B534B3342C3476344134FC34D834393489
:10374800EA3432347334F7348E3424341734E134A1
:103758002534EA34BC342F3446340834DF34CD34CD
:10376800ED34C634743403348934D0341034153409
:1037780022341E34BB34DB34F8340A346134CF3499
:103788005334C434CA3401343734D234AE341734E1
:103798009C341C340534D934FF34FE3466343B344D
:1037A80054343034CD34F53430342634A934E33449
:1037B8009B34E83402342D346F34A734F634623441
:1037C800C43469345D34AC34A0347F343934BA3409
:1037D8000B34B1349234743468345334F13496343D
:1037E800C3349D345A345834A7348B343E344E3461
:1037F8000C344534953480347508740473047204A9
:10380800031908008030F506080072082000A0009F
:103818007308A1007408A2007508A3000310220D04
:10382800230DA4002408AA002A08031D242C003014
:10383800F5000030F4000030F3000030F20008001A
:103848007608A0007708A1007808A2007908A300EC
:103858000310220D230DA4002408A9002908031D24
:103868003E2C0030F5000030F4000030F30000304A
:10387800F2000800F417FF30F205FF30F305FF30BF
:10388800F4050030F505F817FF30F605FF30F705A9
:10389800FF30F8050030F9050030A8000030A70017
:1038A8000030A6000030A5007F30AA02A03029070A
:1038B800A0002008AA022030A0002008A90001309A
:1038C800A535A60DA70DA80D890B642C79087502DE
:1038D800031D782C78087402031D782C770873026E
:1038E800031D782C76087202031C832C7608F202DA
:1038F8007708F33B7808F43B7908F53B2514013049
:10390800F235F30DF40DF50D890B842C0130A90265
:10391800031D632CAA1FAC2C2A08803A9F3E03186B
:103928009E2C0030F5000030F4000030F300003029
:10393800F20008000130A836A70CA60CA50C890BCC
:103948009F2C0130A0002008AA070319C52C9E2C23
:1039580020302A02031CC22C0030F5000030F4008D
:103968000030F3000030F20008000130A535A60D44
:10397800A70DA80D890BBA2C0130AA022A08031D2D
:10398800B92C2808F5002708F4002608F3002508B4
:10399800F20008002100BD00FF30A0002008BC0094
:1039A800A030860001308700A430840000308500F4
:1039B8001830A00016001A00A00BDE2CA031012040
:1039C8009C312000BB01BB0AA4302100A0002008C4
:1039D8002000BC0000309E3177269C312100A100D8
:1039E8002108BC003C08031DE52CBE01BF013F08AF
:1039F800803AA00080302002031D042D0C303E02C6
:103A0800031808003F302000D5008030D400003073
:103A1800D3000030D2004630BB001C30BA00403022
:103A2800B9000030B80021003E35A43E8600870169
:103A3800403FA000413FA10020082000AE00210027
:103A480021082000AF00B001B1010030A6311A26CC
:103A58009C3120003108BF003008BE002F08BD008F
:103A68002E08BC00943168249C3120003B08D90002
:103A78003A08D8003908D7003808D6008331D5234A
:103A88009C3121003E08A2000130A235FF3E031DF3
:103A9800492D22353D07A300230886000230870000
:103AA80020005208C03F5308C13F5408C23F550880
:103AB800C33F21003E08A0000130A035FF3E031D92
:103AC800612D20353D07A1002108860002308700BE
:103AD800403FF200413FF300423FF400433FF5000E
:103AE8003D30F900CC30F800CC30F700CD30F6008E
:103AF800A631B0269C310318982D21003E08A0005D
:103B08000130A035FF3E031D852D20353D07A1005E
:103B180021088600023087000030C03F0030C13FD6
:103B28000030C23F0030C33F01302100BE070030E3
:103B3800BF3DFB2CAF312E279D3122008F120F1273
:103B4800AE3100269D3122000C0EE100610C0139D6
:103B5800E1000130E106E10EE10D0C086106DF39F4
:103B680061068C00AE311E269D310C302000EC0021
:103B78000030ED0020309C31CE249D310C302100E6
:103B8800D5000030D6002030A1318B219D31210095
:103B980058082300D700210057082300D600210029
:103BA80056082300D500210055082300D40005300D
:103BB8002100C8000030C900CA30A43104249D3156
:103BC800210049082300BF00210048082300BE0047
:103BD80040034104031D3A2EAF31C2279D31220014
:103BE8006608E1000130E135FF3E031DF72D613520
:103BF800203E86000330870021006108C03F62082C
:103C0800C13F6308C23F6408C33F01302200E60792
:103C18000030E73D6708803AE10080306102031D0B
:103C2800172E14306602031C372E22006708210065
:103C3800D600220066082100D5002030A431832454
:103C48009D31210058082200E50021005708220074
:103C5800E400210056082200E30021005508220054
:103C6800E200E601E7012300C001C1014203430469
:103C7800031DA42D0C302200D0000030D1002300F9
:103C880057082200D500230056082200D40023003C
:103C980055082200D300230054082200D200CA305D
:103CA800E1006108D6000530D7000030D8002300B5
:103CB8003F082200DA0023003E082200D9006508E8
:103CC800DE006408DD006308DC006208DB001530F4
:103CD800DF000030E0002030AF318A279D3123001B
:103CE800C201C301A42D2000D100CA01D701510887
:103CF800031D442FD601D60A053056020318FE2F9D
:103D0800D7013B08BD003D08AF004230BE003E0869
:103D1800B0005608A231D6229E312000D2013B08BD
:103D2800520203183F2FD30166308400B13085005A
:103D3800000853020318F42E5708013E423E86003D
:103D480087010108BD00BE013D08BE00BD0157083E
:103D5800423E8600870101083D07CB003E08031854
:103D68003E0ACC001830BD003D08F2005208AE31C2
:103D78004D269E3120003C07BE005608FF3EF2004B
:103D8800FF3003180030F30066308400B13085003E
:103D98000008BF00C0013F08F4004008F500AE313C
:103DA80096269E3172082000530709073E07C10076
:103DB8004108860087014B08C03F4C08C13F57089F
:103DC800023EBD003D08D7000130BD003D08D307C5
:103DD80066308400B130850000085302031CA02E11
:103DE8005708013E423E860087010108BD00BE011A
:103DF8005708423E860087010108BF00C0013F08FE
:103E0800C000BF013D083F07CD003E08403DCE0041
:103E1800C2308400B03085000008BD003D08F200C3
:103E28005208AE314D269E31423EF6000030F70072
:103E380067308400B13085000008A1313C219E31F3
:103E480077082000D0007608CF0050084E06031DE2
:103E58002F2F4F084D060319352FFF30BD003D08A1
:103E6800CA005708023EBD003D08D7000130BD001A
:103E78003D08D207932E0130BD003D08D607802E9D
:103E88003B08BD003D08AF004230BE003E08B00010
:103E98005108A231D6229E312000D4013B08540299
:103EA8000318FE2FD50166308400B1308500000864
:103EB80055020318B32F5708013E423E860087017A
:103EC8000108BD00BE013D08BE00BD015708423EC5
:103ED8008600870101083D07CB003E0803183E0A0B
:103EE800CC001830BD003D08F2005408AE314D2614
:103EF8009E3120003C07BE005108FF3EF200FF3013
:103F080003180030F30066308400B13085000008E3
:103F1800BF00C0013F08F4004008F500AE31962606
:103F28009E3172082000550709073E07C100410865
:103F3800860087014B08C03F4C08C13F5708023E26
:103F4800BD003D08D7000130BD003D08D5076630EB
:103F58008400B130850000085502031C5F2F570804
:103F6800013E423E860087010108BD00BE01570898
:103F7800423E860087010108BF00C0013F08C0001B
:103F8800BF013D083F07CD003E08403DCE00C2308E
:103F98008400B03085000008BD003D08F2005408D8
:103FA800AE314D269E31423EF6000030F7006730B4
:103FB8008400B13085000008A1313C219E3177088A
:103FC8002000D0007608CF0050084E06031DEE2FC3
:103FD8004F084D060319F42FFF30BD003D08CA00F5
:103FE8005708023EBD003D08D7000130BD003D081E
:083FF800D407522F4A0808000B
:1040020022006D08F90079082000AF0022006E0836
:10401200F90079082000B0006D30F6000130F70099
:104022000230A1313C21A03177082000B40076088B
:10403200B3003408F9007908B1003308F9007908AF
:10404200B200AE311526A03122008F112F30F900B7
:104052007908F5000430AE31812622008F15080060
:104062002200BE01BF01BE01BF0121006D08FF3E5B
:104072002200BB00FF3021006E3D2200BC003F0841
:10408200803ABD003C08803A3D02031D4A283B08A5
:104092003E020318612850302100DD00B130DE00FD
:1040A200A03088310B20A0318731FD27A0312100BB
:1040B200111A582801302200BE070030BF3D3628B1
:1040C20045302100DD00B130DE00A03088310B2008
:1040D200A0318731FD27A0312100111E08006D2873
:1040E200F70077360139F5007508F8007808023EC6
:1040F200F50075082200ED0077080139F500063059
:10410200F535FF3E031D81287535F6007608F80067
:104112007208F5000330F535FF3E031D8C28753516
:1041220078077307603EF6007608EE0077360139AD
:10413200F5007508F8007808043EF5007508EB00F4
:1041420077080139F5000630F535FF3E031DA52835
:104152007535F6007608F80078087407603EF500B9
:104162007508EC000800200029082804270426040A
:104172000319EE28AF01AF0AA91BCB280130A635DF
:10418200A70DA80DA90D890BC0280130AE002E087D
:10419200AF07BD2829082D02031DD92828082C02A3
:1041A200031DD92827082B02031DD92826082A0215
:1041B200031CE3282608AA022708AB3B2808AC3BCD
:1041C2002908AD3B0130A936A80CA70CA60C890B17
:1041D200E4280130AF02031DCB282D08A9002C08CA
:1041E200A8002B08A7002A08A6000800F801F51F5E
:1041F2000129F409F509F40A0319F50AF801F80A84
:10420200F31F0829F209F309F20A0319F30A7208E3
:10421200730403192F29F701F70AF31B1A29013036
:10422200F235F30D890B11290130F6007608F707F4
:104232000E2973087502031D202972087402031CDB
:1042420026297208F4027308F53B0130F336F20CAA
:10425200890B27290130F702031D1A29780803194F
:104262003729F409F509F40A0319F50A7508F30068
:104272007408F20008002000AB001030AD000030DE
:10428200AE00AC012B082C02031886292C08A000D2
:10429200A1012008760786002108773D87000108E2
:1042A200A200A3012E08A5002D08A4000730A60035
:1042B200250DA50CA40CA60B592922082406A7003B
:1042C20023082506A800FF302705A900003028058D
:1042D200AA002A088500290884008435850D00304B
:1042E20084079830853D003FA000013FA1002D08C2
:1042F200A300A20120082206AD0021082306AE0079
:104302000130A0002008AC0743292D35F6002E0D00
:10431200F70008002100DB000030DF000030DE0083
:104322000030DD000030DC00E001E1016108803A8C
:10433200D9005608803A5902031DA1295508600286
:104342000318D32921006008D9000130D935FF3E76
:10435200031DA72959355B07DA005A088600023087
:104362008700403FBD00413FBE00423FBF00433F88
:10437200C0005F08C4005E08C3005D08C2005C089C
:10438200C10086310126A13121004008DF003F082B
:10439200DE003E08DD003D08DC000130E0070030B1
:1043A200E13D972921005F08D8005E08D7005D082B
:1043B200D6005C08D50008002000A501A11FE8294D
:1043C200A009A109A00A0319A10AA501A50AA31F10
:1043D200F329A209A309A20A0319A30A0130F900C9
:1043E2007908A506A601A701200821040319222A9B
:1043F200A401A40AA11B072A0130A035A10D890B33
:10440200FE290130F9007908A407FB290130A635FD
:10441200A70D890B082A21082302031D122A20084E
:104422002202031C192A2008A2022108A33B2614F7
:104432000130A136A00C890B1A2A0130A402031DF7
:10444200072A250803192A2AA609A709A60A031971
:10445200A70A2708A1002608A000080000302000B3
:10446200A4000030A3000030A2000030A1007508B3
:104472007404730472040319792AA501A50AF51BB1
:104482004E2A0130F235F30DF40DF50D890B432A56
:104492000130A0002008A507402A0130A135A20D55
:1044A200A30DA40D890B4F2A75087902031D632AF7
:1044B20074087802031D632A73087702031D632AB6
:1044C20072087602031C6E2A7208F6027308F73B22
:1044D2007408F83B7508F93B21140130F536F40CE9
:1044E200F30CF20C890B6F2A0130A502031D4E2A30
:1044F2002408F5002308F4002208F3002108F20042
:1045020008002000A7002708A000A00DA00D210090
:104512001D08200020068339200621009D001D145D
:10452200A0300032890B922A21009D149D18972AEF
:104532001C082000A000A1012008A8002108A90051
:1045420021001B082000A000A1012008AA002108C8
:10455200AB002B08A1002A08A0000430A200210D04
:10456200A10CA00CA20BB02AFF302005A3000F3033
:104572002105A4002908A6002808A500A50EA60E5C
:10458200F030A60525080F39A604F030A50523084A
:104592002504AC0024082604AD0021001D102000D3
:1045A2002D08F3002C08F20008002000BA003A039C
:1045B200031DDD2A0430EE2A02303A06031DE32AE7
:1045C2000630EE2A03303A06031DE92A0830EE2AA5
:1045D20004303A06031DF22A0A30B1003108B7004E
:1045E200B6013630F6000030F7000230A1313C212E
:1045F200A23177082000B5007608B4003508B10072
:104602003108B8003408B1003108B900AE311526BE
:10461200A23122008F1104302000B1003108F600CF
:104622003008F7000030F8002F08B2003208F2001C
:1046320065308400B13085000008AE314D26A231CC
:104642002000B3003308F9003630AF31542722007E
:104652008F1508002200BF00C001C1014108803A45
:104662002100ED0022003E08803A21006D02031D68
:104672003D2B22003D08400203186D2B27302100FC
:10468200DD00B130DE0022004008013E2100DF00E3
:1046920000302200413D2100E000220040353F076A
:1046A2002100ED006D08860001308700403FE100E7
:1046B200413FE20023004808A03E88310B20A3318D
:1046C2008731FD27A3312100111A642B013022000A
:1046D200C0070030C13D2F2B00302100DD00B1307A
:1046E200DE0022003C082100E00022003B082100FD
:1046F200DF00A03088310B20A3318731FD27A331A1
:104702002100111E0800812B21003508B90036084E
:10471200BA003708BB003808BC0003103B0D3C0D43
:10472200BD003D08BF003F08031DA02B0030B800AC
:104732000030B7000030B6000030B5000800350880
:10474200B9003608BA003708BB003808BC001F3071
:10475200BC36BB0CBA0CB90C890BA92B3908BD00AD
:104762003D08BE00B717FF30B505FF30B605FF3074
:10477200B7050030B8059630BF02BF1FDC2B3F08DB
:10478200803A973E0318CE2B0030B8000030B700B5
:104792000030B6000030B50008000130B836B70C62
:1047A200B60CB50C890BCF2B0130B9003908BF0705
:1047B2000319F52BCE2B20303F02031CF22B0030C5
:1047C200B8000030B7000030B6000030B500080075
:1047D2000130B535B60DB70DB80D890BEA2B013096
:1047E200BF023F08031DE92B3E0803190800B50963
:1047F200B609B709B809B50A0319B60A0319B70AFF
:104802000319B80A08002100D000CE01CF0122000E
:104812008D1223005808A2318222A431730821008C
:10482200C1007208C000A5310A25A4312100410847
:10483200CF004008CE0050088600013087004E08A5
:10484200C03F4F08C13F0130D1000030D2005208B2
:10485200803ACA004908803A4A02031D322C4808AD
:10486200510203187B2C21005108D83E86000130EA
:1048720087000108A2318222A43173082100C100FD
:104882007208C000A5310A25A43121005135500714
:10489200CA004A088600013087004008C03F41082C
:1048A200C13F51355007CA004A08860001308700CF
:1048B200403FCB00413FCC004F08803ACD004C082E
:1048C200803A4D02031D672C4B084E020318752CCB
:1048D200210051355007CA004A088600013087007E
:1048E200403FCE00413FCF0001302100D1070030D0
:1048F200D23D282C22008D1621004F08C9004E08F7
:10490200C80008002100DB00E001E1010030DF0007
:104912000030DE000030DD000030DC00E001E101AB
:104922006108803AD9005608803A5902031D9B2C2F
:10493200550860020318CD2C21006008D90001300F
:10494200D935FF3E031DA12C59355B07DA005A0801
:10495200860003308700403FBD00413FBE00423F1A
:10496200BF00433FC0005F08C4005E08C3005D088B
:10497200C2005C08C10086310126A4312100400832
:10498200DF003F08DE003E08DD003D08DC000130AC
:10499200E0070030E13D912C210055082000AE00D7
:1049A200210056082000AF00890D893B8909B0001B
:1049B200B1000130A6311A26A43120003108BB0013
:1049C2003008BA002F08B9002E08B80021005F088D
:1049D2002000BF0021005E082000BE0021005D080B
:1049E2002000BD0021005C082000BC009431682436
:1049F20020003B082100D80020003A082100D700FF
:104A0200200039082100D600200038082100D500F6
:104A1200080040302000D500A030D4000030D30080
:104A22000030D2004530BB008030BA000030B900FF
:104A32000030B800210040082000AE0021004108EB
:104A42002000AF00890D893B8909B000B100013017
:104A5200A6311A26A53120003108BF003008BE0059
:104A62002F08BD002E08BC0094316824A531200017
:104A72003B08D9003A08D8003908D7003808D600D0
:104A82008331D523A531200055082100C70020001D
:104A920054082100C600200053082100C500200050
:104AA20052082100C40047082000D900210046080E
:104AB2002000D800210045082000D700210044082A
:104AC2002000D6004130D5002030D4000030D30081
:104AD2000030D2008331D523A531200055082100B2
:104AE200B800200054082100B7002000530821001C
:104AF200B600200052082100B500A3318523210011
:104B0200360885003508840068308407B030853D5A
:104B12000008C200C3014208C0004308C1000800E7
:104B2200C0302100C0002030BF000030BE00003085
:104B3200BD0040302000D500A030D4000030D300AA
:104B42000030D2004530BB007F30BA00F030B900EF
:104B52000030B800210058082000BF00210057088B
:104B62002000BE00210056082000BD00210055088B
:104B72002000BC0094316824A53120003B08D900F4
:104B82003A08D8003908D7003808D6008331D5232F
:104B9200A531200055082100C4002000540821003E
:104BA200C300200053082100C20020005208210047
:104BB200C10086310126A53121004008E0003F08EE
:104BC200DF003E08DE003D08DD003D302000BB0076
:104BD2002130BA006130B900E530B8002100600828
:104BE2002000BF0021005F082000BE0021005E08F7
:104BF2002000BD0021005D082000BC009431682423
:104C020020003B082100DC0020003A082100DB00E4
:104C1200200039082100DA00200038082100D900DC
:104C22005C08D8005B08D7005A08D6005908D5009E
:104C320008002000B2003208031DB11F302E2E09D9
:104C4200B4002F09B5003009B6003109B700B40A23
:104C52000319B50A0319B60A0319B70A382E31081F
:104C6200B7003008B6002F08B5002E08B40031088E
:104C720030042F042E04031D472E0030B1000030F3
:104C8200B0000030AF000030AE0008009630F400F3
:104C92007408B300FE30370503196E2E0130F4009C
:104CA2007408B3070130B736B60CB50CB40C890BD7
:104CB200542E4B2E0130F4007408B3070130B407B0
:104CC2000030B53D0030B63D0030B73D0130B7365B
:104CD200B60CB50CB40C890B682EFF3037050319DE
:104CE2007C2E5B2E0130B3020130B435B50DB60D0A
:104CF200B70D890B762EB61B822E023033020318B3
:104D0200732E33188C2EFF30B405FF30B5057F307B
:104D1200B605FF30B7050310B30C3308F400F501F4
:104D2200F601F7011830F435F50DF60DF70D890B84
:104D3200942E7408B4047508B5047608B60477088E
:104D4200B7043208031DB11FA72EB7173708B100E9
:104D52003608B0003508AF003408AE000800003055
:104D620072052000A00000307305A1008030740598
:104D7200A2007F307505A300230822042104200429
:104D8200031DCB2E0030F5000030F4000030F3009C
:104D92000030F20000307605A00000307705A10057
:104DA20080307805A2007F307905A3002308220411
:104DB20021042004031DE52E0030F9000030F80024
:104DC2000030F7000030F600F51F0E2F0030A00073
:104DD2000030A1000030A2008030A3007209A400BC
:104DE2007309A5007409A6007509A700A40A03198E
:104DF200A50A0319A60A0319A70A2408A007250869
:104E0200A13D2608A23D2708A33D2308F50022085C
:104E1200F4002108F3002008F200F91F372F0030B8
:104E2200A0000030A1000030A2008030A30076096B
:104E3200A4007709A5007809A6007909A700A40AA9
:104E42000319A50A0319A60A0319A70A2408A00729
:104E52002508A13D2608A23D2708A33D2308F90005
:104E62002208F8002108F7002008F6008030F50635
:104E72008030F90679087502031D0800780874026B
:104E8200031D080077087302031D080076087202EA
:104E9200080072082000A0007308A1007408A20094
:104EA2000310210D220DA3002308A9002908031DC8
:104EB200632F0030F5000030F4000030F3000030C2
:104EC200F20008007608A0007708A1007808A20086
:104ED2000310210D220DA3002308A8002808031D9A
:104EE2007B2F0030F5000030F4000030F30000307A
:104EF200F2000800F317FF30F205FF30F30500302F
:104F0200F405F717FF30F605FF30F7050030F80516
:104F12000030A7000030A6000030A5000030A40039
:104F22007F30A90298302807A0002008A902183073
:104F3200A0002008A8000130A435A50DA60DA70DDC
:104F4200890B9D2F78087402031DAD2F7708730219
:104F5200031DAD2F76087202031CB62F7608F202EB
:104F62007708F33B7808F43B24140130F235F30D53
:104F7200F40D890BB72F0130A802031D9C2FA91F26
:104F8200DE2F2908803A973E0318D02F0030F50013
:104F92000030F4000030F3000030F200080001306D
:104FA200A736A60CA50CA40C890BD12F0130A000AA
:104FB2002008A9070319F72FD02F18302902031C44
:104FC200F42F0030F5000030F4000030F300003020
:104FD200F20008000130A435A50DA60DA70D890B1E
:104FE200EC2F0130A9022908031DEB2F2708F50039
:0E4FF2002608F4002508F3002408F200080049
:105BCC002100111208008E30210095008B16080060
:105BDC00AD31E925AD318831002008006400800129
:105BEC000131890BF52D0034FE0012001E00FE0B56
:105BFC00FB2D003422009D151D1628302400950025
:105C0C000800F201F301F4010230A0317120080008
:105C1C000C340A34083409340B348D341434220017
:105C2C008F110530890B182E000022008F150800EB
:105C3C0022008F159D121D129D111230240095000B
:105C4C0095160800F400740824009100141C2C2EE6
:105C5C001108F2007208F3000800F3007308240026
:105C6C009100141C372E1108F2007208F40074080D
:105C7C000800F300F2013A30730203184B2E303057
:105C8C007302031C4B2EF201F20A720C0800F50091
:105C9C00F401751C552E7208F3007308F4070310F9
:105CAC00F20D0310F50C7508031D4F2E7408080037
:105CBC0022009D151D1621009111921120009111A9
:105CCC0092114F302400920028309500C03094007F
:105CDC00080022008F159D121D129D112400171211
:105CEC009417141712309500210091152000911172
:105CFC00240095160800F700F801770878020318BD
:105D0C00080078087507F6007608860087010108F8
:105D1C00AE312826AE310130F6007608F807832E16
:105D2C00F601F701721C9E2E7408F6077508F73DF4
:105D3C000130F435F50D890B9F2E0130F336F20C42
:105D4C00890BA42E72087304031D982E7708F30098
:105D5C007608F200080021008D120C148C140C151E
:105D6C008C150D148D140D158D150D168F140F30FB
:105D7C0023008C001F308D0001308F0021008F1408
:105D8C0024008F0121009D0160309E000F309F0088
:105D9C00080080302100D8065C08C0005B08BF00FA
:105DAC005A08BE005908BD005808C4005708C30063
:105DBC005608C2005508C100863101262100400852
:105DCC00D8003F08D7003E08D6003D08D500080093
:105DDC002000A400A001A1017208F400F5017408D0
:105DEC00A2007508A300241CFF2E2208A00723087C
:105DFC00A13D0130A235A30D890B002F0310A40C7B
:105E0C002408031DF92E2108F3002008F2000800D5
:105E1C0014302100DD00B130DE0022003E082100EC
:105E2C00E20022003D082100E10022003C08210094
:105E3C00E00022003B082100DF00A03088310B205D
:105E4C00AF318731FD27AF312100111E08002A2FF9
:105E5C0021000F128F120C148B170B17AD31EE257E
:105E6C00AF3121008C1222008C1621000C12AE31A5
:105E7C00B126AF3193310023AF3121000D178D17AF
:105E8C00AE315E26AF3121008E120E168E118F119F
:105E9C00AE316F26AF31AE31072608002000A700C7
:105EAC00A5017608250203186B2F25082707A000EB
:105EBC002008860087010108AE312826AF31013059
:105ECC002000A0002008A507572FA601790826025C
:105EDC0003180800FF30AE313326AF312000A0008C
:105EEC002608A100A20121087707A3002208783D0B
:105EFC00A4002308860024088700200881000130B4
:105F0C00A0002008A6076C2F2100EF0022006008DB
:105F1C002100EE0022005F082100ED00A0313120AD
:105F2C00AF3122005108BC005008BB005508C0001E
:105F3C005408BF005308BE005208BD0021006F0872
:105F4C0093310D23AF3122005A08BC005908BB0015
:105F5C005808BE005708BD005608A3312B23AF319B
:105F6C0022005E08BE005D08BD005C08BC005B083A
:105F7C00BB00AF310E2708007530A2318222AF3141
:105F8C0072082000AE007308AF00890D893B8909A7
:105F9C00B000B1000130A6311A26AF312000310813
:105FAC002100E800200030082100E70020002F0825
:105FBC002100E60020002E082100E5006808D8002A
:105FCC006708D7006608D6006508D500A53191256D
:105FDC0021005808E8005708E7005608E600550865
:105FEC00E5006808E4006708E3006608E20065085D
:105FFC00E10008000034003480343F3400340034B5
:10600C002034413400340034C83442340034003479
:10601C007A344434003440341C3446340034503424
:10602C00C3344734003424347434493480349634C3
:10603C0018344B342034BC34BE344C3428346B34D8
:10604C006E344E34F934023415345034EC34783424
:10605C00AD346034CA34F234493471340034003411
:10606C0080343F34CD34CC34CC343D340A34D73442
:10607C0023343C346F34123483343A341734B73409
:10608C00D1343834AC34C53427343734BD34373498
:10609C00863435349534BF34D63433347734CC34F9
:1060AC002B3432345F34703489343034FF34E6347A
:1060BC00DB342E340834E5343C341E346034423442
:1060CC00A2340D349434763467345C3454344E3406
:1060DC00483443343F343C3438343534333430343E
:1060EC002D342B34293427342534223421341F34D5
:1060FC001D341B3419341734163414341234103440
:10610C000F340D340B3409340734053403340134A3
:10611C00FF34FD34FB34F834F534F234EF34EB3423
:10612C00E634E034D634EF34013400340034003437
:10613C000A34003400340034643400340034003445
:10614C00E834033400340034103427340034003481
:10615C00A034863401340034403442340F340034DB
:10616C0080349634983400340034E134F5340534FA
:10617C000034CA349A343B3408344D3461347834A6
:10618C00203444346934663466346534723465348E
:10619C006E346334653420343D3420345634253425
:1061AC006934203426342034563425346934203470
:1061BC0040342034253430342E3434346634563460
:1061CC000A340D3400345034613463346B3420346D
:1061DC0056346F346C3474346134673465343A3407
:1061EC002034253430342E343434663456340A3466
:1061FC000D3400344834693467346834653473348E
:10620C0074342034543465346D3470343A3420345E
:10621C002534693443340A340D3400346334753412
:10622C007234723465346E34743420343D3420341A
:10623C00253430342E343434663441340A340D343D
:10624C000034543465346D3470342534693420345E
:10625C003D3420342534693443340A340D3400344D
:10626C0056342534693420343D34203425343034CC
:10627C002E343434663456340A340D3400341B3422
:10628C005B3432344B3420341B345B344134203493
:10629C000D3400341B345B3432344B3420341B3417
:1062AC005B344134003433341334953443348934FF
:1062BC000F340834063408340334063408340834F4
:0462CC00033406345D
:020000040001F9
:04000E00E2EFFFDF3F
:00000001FF
