:0400000080316128C2
:100008007E14803120007F08F100A0312720803144
:100018000B198B1E272801302300AE070030AF3D97
:100028002F08803AF00080307002031D1D28FA3036
:100038002E02031C262801302300AC000030AD003E
:10004800AE01AF010B112100911C34282000911C36
:10005800342801302300AA000030AB0020009110A2
:100068002000111E54282100111E54287A08383EF9
:10007800860002308700010803194F287A08383EA5
:10008800860002308700010823009A000130FA0731
:100098000030FB3D5428FA01FB01AF31682780315D
:1000A8002000911D5C282100911D5C2820009111E1
:1000B80071082000FF007E10090080316328793024
:1000C8008400AF30850023001200E6001200E7002C
:1000D8001200E8001200E9001200EA001200EB002A
:1000E8001200EC0060308400263085009030FE005D
:1000F8000130FF00AF31B5278031FA01FB015E30D6
:100108008400013085000A30FE000030FF00AF3166
:10011800B5278031A0308400013085004630FE00CC
:100128000030FF00AF31B527803120308400023025
:1001380085004A30FE000030FF00AF31B5277E1041
:100148002000A431CF2C2200D2002D30B300330878
:10015800BD002C08B4002B08B300AB0A0319AC0A85
:1001680033088400340885000008B5003508D3003A
:1001780053080319C32F253053060319D0285308F1
:10018800B30052088600023087003308810001302E
:10019800B3003308D207AD28CA01CB01C801C90191
:1001A800DA2848150130AB070030AC3D2B08840035
:1001B8002C0885000008303A0319D528E3282B08B5
:1001C80084002C0885000008903100208031031C31
:1001D8001E292200CA01CB010A30F2000030F300C8
:1001E80022004B08F5004A08F400A0317520803140
:1001F80073082200CB007208CA002B0884002C0860
:1002080085000008D03EB300FF3003180030B4006A
:100218003308CA073408CB3D0130AB070030AC3D8A
:100228002B0884002C0885000008903100208031BC
:100238000318F02822002B0884002C0885001200DF
:100248002E3A031D5D2949170130AB070030AC3D3C
:10025800D001D1012B0884002C08850000089031BA
:1002680000208031031C642922002B0884002C08FC
:1002780085000008B300B4015108F3005008F200EB
:100288000A30F4000030F500A031752080312200DA
:1002980033087207B5003408733DB6003508D03E00
:1002A800D000FF30363DD1000130AB070030AC3D07
:1002B8002E292200D001D1014916642949157F2928
:1002C80022002C08B4002B08B300AB0A0319AC0AAF
:1002D80033088400340885000008D300003A031965
:1002E800C32F643A03197F29023A031962290F3A86
:1002F80003197F29AD2800304805B30007304905A8
:10030800B400330834040319422E491E8F290630DD
:10031800D0000030D1003D08860001308700403F02
:10032800CC00413FCD00423FCE00433FCF000430D8
:10033800B3003308BD074F08F5004E08F4004D0818
:10034800F3004C08F2000030F9000030F8000030EB
:10035800F7000030F600A731662780310318DB2943
:1003680022004F082000D50022004E082000D400AB
:1003780022004D082000D30022004C082000D200A3
:10038800AF3189278031200055082200CF00200096
:1003980054082200CE00200053082200CD0020007F
:1003A80052082200CC000330C8040030C9042200DF
:1003B800C601C7014F084E044D044C040319A32A73
:1003C8004C08B3004D08B4004E08B5004F08B600FD
:1003D8000310350D360D823EC600FF30031800307D
:1003E800C700FF30C607FF30C73D0330F2000030BA
:1003F800F3004708F5004608F400A0317520803165
:1004080073082200C7007208C6000A302000A00046
:100418000030A100220047082000A300220046085F
:100428002000A200A33128238031200021082200C7
:10043800C700200020082200C600C71F272AFF3057
:10044800C607FF30C73D4603FF3A8D31702580311E
:10045800200055082200C100200054082200C000D6
:10046800200053082200BF00200052082200BE00CE
:100478004F082000BB0022004E082000BA002200CE
:100488004D082000B90022004C082000B8002200C6
:1004980041082000BF00220040082000BE002200C2
:1004A8003F082000BD0022003E082000BC00883123
:1004B800E420803120003B082200C10020003A08D7
:1004C8002200C000200039082200BF0020003808A0
:1004D8002200BE004108F5004008F4003F08F30080
:1004E8003E08F2003F30F9008030F8000030F70095
:1004F8000030F600A731662780310318882AFF30BC
:100508002200C607FF30A22A22004108F500400851
:10051800F4003F08F3003E08F2004130F9002030B3
:10052800F8000030F7000030F600A7316627803168
:10053800031CA32A01302200C6070030C73D220051
:100548005108803AB30080303302031DAD2A0D30C4
:1005580050020318E72A2200500894311B248031E6
:10056800200055082100AC00200054082100AB00F1
:10057800200053082100AA00200052082100A900E9
:1005880022004F082100B00022004E082100AF00D1
:1005980022004D082100AE0022004C082100AD00C9
:1005A8008B311023803121002C082200CF0021003C
:1005B8002B082200CE0021002A082200CD002100AD
:1005C80029082200CC0022004708803AB300803076
:1005D8003302031DF12A0A3046020318172B2200A2
:1005E8004F084E044D044C0403196D2B4F08A3000B
:1005F8004E08A2004D08A1004C08A000A531C52551
:10060800803122002308220421042004031D6D2BBD
:100618004708803AB30080303302031D152B02309F
:100628004602031C6D2B22004108F5004008F40027
:100638003F08F3003E08F2004030F9008930F80026
:100648007030F7005F30F600A73166278031031855
:100658002F2BF730302BF8302200C607FF30C73D6C
:1006680046088D3170258031200055082200C100D0
:10067800200054082200C000200053082200BF00B8
:10068800200052082200BE004F08F5004E08F40072
:100698004D08F3004C08F2004108F9004008F80042
:1006A8003F08F7003E08F6009C31F32480317508B6
:1006B8002200C5007408C4007308C3007208C20091
:1006C8000030CF000030CE000030CD000030CC002C
:1006D800CA2B22004F08A3004E08A2004D08A10013
:1006E8004C08A000A531C525803122002308C5008B
:1006F8002208C4002108C3002008C20045082000C1
:10070800B100220044082000B00022004308200065
:10071800AF00220042082000AE000030A631D026EB
:100728008031200031082100C0002000300821005D
:10073800BF0020002F082100BE0020002E08210045
:10074800BD0022004F082100C40022004E082100ED
:10075800C30022004D082100C20022004C082100DD
:10076800C100A03190208031210040082200CF0034
:1007780021003F082200CE0021003E082200CD00C3
:1007880021003D082200CC00C601C701D301D30ACD
:100798000A3053060319FD2B5308B300B401B335CF
:1007A800B40DB335B40DA03033078400A830343D00
:1007B8008500003FB500013FB600023FB700033F88
:1007C800B80038084502031DF32B37084402031DFF
:1007D800F32B36084302031DF32B35084202031C92
:1007E800FD2B0130B3003308D3070A305306031D2D
:1007F800D02B5308B300B401B31BB403500833071C
:10080800B5005108343DB60046083507B70047081B
:10081800363DB8003708CA023808CB3B50085104A7
:1008280003191A2CFF30CA07FF30CB3D03304805A7
:10083800B30000304905B400330834040319282CE8
:10084800FF30CA07FF30CB3D481D6E2C03304805EA
:10085800B30000304905B400330834040319402CB0
:100868002D30B3005208860002308700330881001B
:100878000130B3003308D2074B08803AB300803008
:100888003302031D492C01304A02031C912C3030DD
:100898002200B30052088600023087003308810026
:1008A8000130B3003308D207FF30CA07FF30CB3D11
:1008B800402C20302200B300520886000230870006
:1008C800330881000130B3003308D207FF30CA076C
:1008D800FF30CB3D22004B08803AB3008030330212
:1008E800031D782C01304A0203185D2C03302200C6
:1008F8004805B30000304905B4003308340403192F
:10090800912C2D30B300520886000230870033083E
:1009180081000130B3003308D207FF302200B30052
:100928003308D307530A0319022D5308B300B4013F
:10093800B335B40DB335B40DA03033078400A830F7
:10094800343D8500003FF200013FF300023FF40010
:10095800033FF5004508F9004408F8004308F7008C
:100968004208F600A331CD23803175082200C1006A
:100978007408C0007308BF007208BE000030200071
:10098800A9000030A8000030A7000A30A600220005
:1009980041082000AD00220040082000AC002200E1
:1009A8003F082000AB0022003E082000AA00A13129
:1009B800BA218031200029082200C100200028081F
:1009C8002200C000200027082200BF0020002608BF
:1009D8002200BE003E08303E862C30302200B30094
:1009E8005208860002308700330881000130B300C6
:1009F8003308D207FF30C607FF30C73D4708803AA3
:100A0800B30080303302031D0B2D0130460203185A
:100A1800F12C22005108803AB30080303302031DC4
:100A2800172D09305002031C1C2D083022001E2DE2
:100A380022005008B3003308D3005308B300B401B0
:100A4800B31BB4033308D0023408D13B530803194D
:100A5800392D2E30B3005208860002308700330843
:100A680081000130B3003308D20753088D31702557
:100A78008031200055082200BC00200054082200C4
:100A8800BB00200053082200BA00200052082200B0
:100A9800B9003C082000BF0022003B082000BE002F
:100AA80022003A082000BD00220039082000BC00BE
:100AB80022004F082000BB0022004E082000BA0088
:100AC80022004D082000B90022004C082000B80080
:100AD8008831E420803120003B082200A300200058
:100AE8003A082200A200200039082200A1002000B4
:100AF80038082200A000A531C5258031220023082E
:100B0800C5002208C4002108C3002008C200FF3025
:100B1800B3003308D307530A03193D2E5308B30013
:100B2800B401B335B40DB335B40DA0303307840028
:100B3800A830343D8500003FF200013FF300023F3A
:100B4800F400033FF5004508F9004408F80043089D
:100B5800F7004208F600A331CD2380317508220042
:100B6800C1007408C0007308BF007208BE000030DE
:100B78002000A9000030A8000030A7000A30A60015
:100B8800220041082000AD00220040082000AC00EF
:100B980022003F082000AB0022003E082000AA00E7
:100BA800A131BA218031200029082200C10020008B
:100BB80028082200C000200027082200BF002000CB
:100BC80026082200BE003E08303EB30052088600C8
:100BD80002308700330881000130B3003308D207A0
:100BE8005308B300B401B335B40DB335B40DA03018
:100BF80033078400A830343D8500003F2000A6005C
:100C0800013FA700023FA800033FA90022004508B2
:100C18002000AD00220044082000AC002200430858
:100C28002000AB00220042082000AA00A131BA210E
:100C38008031200029082200C50020002808220051
:100C4800C400200027082200C30020002608220034
:100C58008A2D3030B30052088600023087003308EE
:100C680081000130B3003308D207FF30D007FF30CE
:100C7800D13D500851040319AD282D2E3D0886009A
:100C880001308700403FB300413FB4003308C20041
:100C98003408C300890D893B8909C400C5000230A6
:100CA800B3003308BD07C51F682E0330C8040030E1
:100CB800C904C209C309C409C509C20A0319C30A78
:100CC8000319C40A0319C50A50085104031D762ED6
:100CD8004508440443044204031D762E0130D0071E
:100CE8000030D13DD301D30A0A3053060319A92E87
:100CF8005308B300B401B335B40DB335B40DA03007
:100D080033078400A830343D8500003FB500013F1B
:100D1800B600023FB700033FB80038084502031D7C
:100D28009F2E37084402031D9F2E36084302031DD9
:100D38009F2E35084202031CA92E0130B300330848
:100D4800D3070A305306031D7C2E5308B300B401A1
:100D5800B31BB4033408803AB5005108803A350211
:100D6800031DB82E500833020318C02E2200500865
:100D7800B3003308D300D82E22005308B300B401BF
:100D8800B31BB4035108803AB5003408803A3502E1
:100D9800031DD02E330850020318D82E2200530802
:100DA800D000D101D01BD10322004A084B040319FB
:100DB800EB2E03304805B30000304905B400330872
:100DC80034040319EB2EFF30CA07FF30CB3D491F0F
:100DD800022F5108803AB3004B08803A3302031DB2
:100DE800F72E4A0850020318FF2E22005008CA02A4
:100DF8005108CB3B022F2200CA01CB015308B30094
:100E0800B401B31BB4033408803AB5004B08803AE8
:100E18003502031D112F4A08330203181E2F220022
:100E28005308B300B401B31BB4033308CA0234082F
:100E3800CB3B212F2200CA01CB01481D4E2F033086
:100E48004805B30000304905B400330834040319D9
:100E5800392F2D30B300520886000230870033083E
:100E680081000130B3003308D2074A084B04031944
:100E78007C2F3030B30052088600023087003308D8
:100E880081000130B3003308D207FF30CA07FF30B2
:100E9800CB3D392F4A084B040319662F2030B30085
:100EA8005208860002308700330881000130B30001
:100EB8003308D207FF30CA07FF30CB3D4A084B043E
:100EC800031D522F03304805B30000304905B40014
:100ED8003308340403197C2F2D30B30052088600E0
:100EE80002308700330881000130B3003308D2078D
:100EF800FF30D007FF30D13D500A0319510A0319BA
:100F0800AD2800302000A9000030A8000030A7005C
:100F18000A30A60022005108850050088400843554
:100F2800850D8435850DA0308407A830853D003FA8
:100F3800F200013FF300023FF400033FF5004508CB
:100F4800F9004408F8004308F7004208F600A33106
:100F5800CD23803175082000AD007408AC007308FB
:100F6800AB007208AA00A131BA21803120002608FE
:100F7800303E2200B3003308D3005308712F5208C3
:100F8800860002308700810108002000A500A60124
:100F9800760826020318E02F26082507A000200857
:100FA800860087010108AF319E2787310130200074
:100FB800A0002008A607CC2FA7017908270203184C
:100FC8000800FF30AF31A92787312000A00027088B
:100FD800A100A20121087707A3002208783DA400F8
:100FE8002308860024088700200881000130A0001B
:060FF8002008A707E12F0D
:1010020040302100AC002030AB000030AA0000309C
:10101200A9006C08D6006B08D5006A08D4006908DC
:10102200D3004530D2007F30D100F030D000003004
:10103200CF0092318C228831210052082000BF005B
:10104200210051082000BE00210050082000BD00F0
:1010520021004F082000BC004030BB00A030BA0085
:101062000030B9000030B8008831E4208831200017
:101072003B08D5003A08D4003908D3003808D2001A
:10108200AF3189278831200055082100B0002000A7
:1010920054082100AF00200053082100AE002000B8
:1010A20052082100AD008B311023883121002C0819
:1010B2002200A30021002B082200A20021002A08FE
:1010C2002200A100210029082200A0003D302100B9
:1010D200D2002330D100D730D0000A30CF00220016
:1010E20023082100D600220022082100D500220078
:1010F20021082100D400220020082100D3009231CF
:101102008C228831210052082200A70021005108B8
:101112002200A600210050082200A50021004F084D
:101122002200A4002708F5002608F4002508F30091
:101132002408F2000030F9000030F8000030F70017
:101142000030F600A731662788310318D328BF3054
:101152002000BB008030BA000030B9000030B80077
:10116200220027082000BF00220026082000BE001F
:10117200220025082000BD00220024082000BC0017
:101182008831E42020003B082200A70020003A0812
:101192002200A600200039082200A50020003808FD
:1011A2002200A400220027082100EC0022002608C9
:1011B2002100EB00220025082100EA002200240879
:1011C2002100E900080020003B088039C0004008E7
:1011D200C5003B35C0004008CB00BA1B4B144B087E
:1011E200031900294B0A031DFE280030BB00003002
:1011F200BA000030B9000030B800BA170829003030
:10120200BB000030BA000030B9000030B8003F081F
:101212008039C0004008C5063F35C0004008C600FE
:10122200BE1B4614460803192329460A031D212919
:101232000030BF000030BE000030BD000030BC00F6
:10124200BE172B290030BF000030BE000030BD00A9
:101252000030BC004608031D4B08031D392900302D
:10126200BB000030BA000030B9000030B8000800FE
:101272003808C0004008F2003E08A031AF20883193
:1012820073082000D1007208D0005008C000C101CC
:10129200C201C3014308CA004208C9004108C8008C
:1012A2004008C7005108C000C101C201C301430880
:1012B200CF004208CE004108CD004008CC003908DA
:1012C200C0004008F2003D08A031AF208831730809
:1012D2002000D1007208D0005008C000C101C20134
:1012E200C3014008C7074108C83D4208C93D430839
:1012F200CA3D5108C000C101C201C3014008CC0768
:101302004108CD3D4208CE3D4308CF3D3A08C000DA
:101312004008F2003C08A031AF2088317308200059
:10132200D1007208D0005008C000C101C201C3013F
:101332004008C7074108C83D4208C93D4308CA3DA5
:101342005108C000C101C201C3014008CC074108D5
:10135200CD3D4208CE3D4308CF3D0830C735C80DCC
:10136200C90DCA0D890BAF293908C0004008F20027
:101372003C08A031AF20883173082000D1007208E8
:10138200D0005008C7075108C83D0030C93DCA3DCA
:101392003808C0004008F2003D08A031AF20883173
:1013A20073082000D1007208D0005008C707510806
:1013B200C83D0030C93DCA3D0830C735C80DC90D0A
:1013C200CA0D890BDE293808C0004008F2003C082B
:1013D200A031AF20883173082000D1007208D000FC
:1013E2005008C7075108C83D0030C93DCA3D3908F9
:1013F200C0004008F2003E08A031AF2088317308D7
:101402002000D1007208D0005008CC075108CD3D11
:101412000030CE3DCF3D3A08C0004008F2003D0802
:10142200A031AF20883173082000D1007208D000AB
:101432005008CC075108CD3D0030CE3DCF3D3A0893
:10144200C0004008F2003E08A031AF208831730886
:101452002000D1007208D0005008C0005108C1001D
:10146200C201C3010830C035C10DC20DC30D890BC5
:10147200342A4008CC074108CD3D4208CE3D4308FE
:10148200CF3D4708C0004808C1004908C2004A08C9
:10149200C3001830C336C20CC10CC00C890B4B2AD6
:1014A2004008CC074108CD3D4208CE3D4308CF3D20
:1014B2000830C735C80DC90DCA0D890B5A2A4B0809
:1014C2004607C000C101C10D4008823ED000FF3076
:1014D200413DD100CE1B822A0130CC35CD0DCE0D3F
:1014E200CF0D890B6E2ACA1B4C140130C735C80DAB
:1014F200C90DCA0D890B772AFF30D007FF30D13DC5
:101502006B2AC601CA1F9B2AFF304705C000FF3065
:101512004805C100FF304905C2007F304A05C300BB
:101522004308420441044004031D992A4C1C9B2A8F
:10153200C601C60A46080319C42A0130CC07003086
:10154200CD3D0030CE3D0030CF3D4F1CC42A4C086B
:10155200C0004D08C1004E08C2004F08C300013050
:10156200C400C337C20CC10CC00CC40BB22A43085E
:10157200CF004208CE004108CD004008CC00013027
:10158200D0070030D13D5108803AC000803040027F
:10159200031DCD2AFF305002031CD92A7F302000C0
:1015A200CF008030CE000030CD000030CC00032BC5
:1015B20020005108803AC00080304002031DE32A17
:1015C200013050020318F02A00302000CF00003012
:1015D200CE000030CD000030CC00C501032B20002E
:1015E2005008C0004008CB00FF30CC05FF30CD05CD
:1015F2007F30CE050030CF054B18CE174B36C000DA
:101602004008CF004508C0004008CF044F08BB0087
:101612004E08BA004D08B9004C08B8000800210075
:101622002C088039B10031082000EA0021002C3555
:10163200B10031082000EC002100AB1F222B20005A
:101642006C1420006C080319362B6C0A031D322B14
:1016520000302100AC000030AB000030AA000030A6
:10166200A9002100AB17AC013F2B00302100AC00D8
:101672000030AB000030AA000030A90030088039E9
:10168200B10031082000EB006B086A06031D6A17DF
:1016920021003035B10031082000EB002100AF1FDE
:1016A200542B20006B1420006B080319682B6B0A63
:1016B200031D642B00302100B0000030AF00003069
:1016C200AE000030AD002100AF17B001712B003029
:1016D2002100B0000030AF000030AE000030AD009D
:1016E20020006C086B020318D12B6A1F7E2B8030FE
:1016F2002100B10031082000EA066C082100B10087
:1017020031082000ED006B082100B10031082000F3
:10171200EC006D082100B10031082000EB0021002F
:101722002908B10031082000ED0021002D08B10088
:101732003108A90020006D082100B1003108AD0078
:101742002A08B10031082000ED0021002E08B10066
:101752003108AA0020006D082100B1003108AE0056
:101762002B08B10031082000ED0021002F08B10044
:101772003108AB0020006D082100B1003108AF0034
:101782002C08B10031082000ED0021003008B10022
:101792003108AC0020006D082100B1003108B00012
:1017A2002000ED016C082100B100B201B109B209BB
:1017B200B10A0319B20A20006B0821003107B300F5
:1017C20032080318320AB4003408803AB500803077
:1017D2003502031DEE2B1A303302031C2E2C21007E
:1017E2002C082B042A0429040319F92B0130FA2BA3
:1017F2000030B10031082000ED0000302100AC00C3
:101802000030AB000030AA000030A90020006B08B5
:101812002100B10031082000EC00332C6D1C192C82
:101822006D3601382100B10031082000ED001B2C7B
:101832000310ED0C2100291C202C2000ED17013093
:101842002100B100AC37AB0CAA0CA90CB10B232CB4
:101852000130B10031082000EC0720006B086C0257
:10186200031C0F2C6A1B702C6C08031D422C0030C9
:101872002100AC000030AB000030AA000030A9000B
:10188200080021002D08A9072E08AA3D2F08AB3D0C
:101892003008AC3D2C1C082D20006D1C5A2C031066
:1018A200ED0C6D0801382100B10031082000ED0077
:1018B2005C2C0310ED0C2100291C612C2000ED177B
:1018C20001302100B100AC37AB0CAA0CA90CB10B52
:1018D200642C0130B10031082000EC07082D2100F2
:1018E2002C08803AB1003008803A3102031D832C63
:1018F2002F082B02031D832C2E082A02031D832C82
:101902002D0829020318D02CFF30B100FF30B2009D
:10191200FF30B300FF30B4002D08B5002E08B6002A
:101922002F08B7003008B8002909B9002A09BA00FF
:101932002B09BB002C09BC00B90A0319BA0A031906
:10194200BB0A0319BC0A3908B5073A08B63D3B0879
:10195200B73D3C08B83D3508B1073608B23D3708F7
:10196200B33D3808B43D3408AC003308AB0032084C
:10197200AA003108A9008030B10031082000EA062F
:10198200ED09ED0A6D08031DD82C01302100A907CD
:101992000030AA3D0030AB3D0030AC3DD82C2D08C4
:1019A200A9022E08AA3B2F08AB3B3008AC3B210012
:1019B2002C082B042A042904031D052D20006D0880
:1019C200031D052D00302100AC000030AB000030BB
:1019D200AA000030A90008000130A935AA0DAB0DFC
:1019E200AC0D890BEE2C2000ED1FF92C21002914DF
:1019F20020006D1CFE2C0314FF2C0310ED0D6C084F
:101A02000319052D0130EC022100AB1FED2C200043
:101A1200EB01ED1F162D6D087F39031D142D2100DA
:101A2200291C162D2000EB01EB0A20006B0803197C
:101A3200472D01302100A9070030AA3D0030AB3DFF
:101A42000030AC3D2C1C472D2908B1002A08B200F9
:101A52002B08B3002C08B4000130B500B437B30C26
:101A6200B20CB10CB50B2F2D3408AC003308AB000F
:101A72003208AA003108A90020006C0A0319472D78
:101A820001302100B10031082000EC0720006C0A6F
:101A9200031D6C08031D5A2D00302100AC000030DC
:101AA200AB000030AA000030A90020006C08031926
:101AB200EA016C1C5F2D2100AB17642D7F302100E1
:101AC200B1003108AB0520006C362100B1003108AD
:101AD200AC002000EA1F08002100AC17080020001B
:101AE200EA00EA1FBB2EEA09EA0A6A08803A123EB5
:101AF200031C322E0A30A0000030A1006A08F40054
:101B0200F501F41BF5036430F2000030F300A1315B
:101B1200FD218D3173082000A3007208A200A331B9
:101B220028238D3120002008D6002108D700D63581
:101B3200D70DD635D70D5608243ED8000030573D74
:101B4200D9006C3058078400A830593D8500003F09
:101B5200DA00013FDB00023FDC00033FDD005D08ED
:101B6200BB005C08BA005B08B9005A08B8006430D0
:101B7200A0000030A1006A08A200A301A21BA303D7
:101B8200A33128238D3120002008DE002108DF0048
:101B9200DE35DF0DDE35DF0D5E08483EE000003049
:101BA2005F3DE1006C3060078400A830613D850034
:101BB200003FE200013FE300023FE400033FE50093
:101BC2006508BF006408BE006308BD006208BC006F
:101BD2008831E4208D3120003B08E9003A08E80012
:101BE2003908E7003808E6000A30F2000030F30056
:101BF2006A08F400F501F41BF503A131FD218D31D2
:101C020073088500720884008435850D8435850D3E
:101C12006C308407A830853D003F2000D600013F8C
:101C2200D700023FD800033FD9005908BB0058082B
:101C3200BA005708B9005608B8006908BF0068081A
:101C4200BE006708BD006608BC008831E4202000A1
:101C52003B08D5003A08D4003908D3003808D2002E
:101C620008006A08803A753E031C9D2E0A30F20075
:101C72000030F3006A08F400F501F41BF503A1310A
:101C8200FD218D3173088500720884008435850D2D
:101C92008435850D6C308407A830853D003F2000D7
:101CA200D600013FD700023FD800033FD9005908B0
:101CB200BB005808BA005708B9005608B8000A30E5
:101CC200A0000030A1006A08A200A301A21BA30386
:101CD200A33128238D3120002008DA002108DB00FF
:101CE200DA35DB0DDA35DB0D5A08243EDC00003034
:101CF2005B3DDD006C305C078400A8305D3D8500F3
:101D0200003FDE00013FDF00023FE000033FE10051
:101D12006108BF006008BE005F08BD005E08BC002D
:101D22008831E42020003B08D5003A08D400390865
:101D3200D3003808D20008006A08D600D701D63589
:101D4200D70DD635D70D6C3056078400A830573DD5
:101D52008500003FD800013FD900023FDA00033F6F
:101D6200DB005B08D5005A08D4005908D300580894
:101D7200D20008006A08803A123E031C772F0A300C
:101D8200A0000030A1006A08F400F501F41BF5037D
:101D92006430F2000030F300A131FD218D3173086F
:101DA2002000A3007208A200A33128238D31200055
:101DB2002008D6002108D700D635D70DD635D70D45
:101DC2005608243ED8000030573DD9003830580715
:101DD2008400A830593D8500003FDA00013FDB0056
:101DE200023FDC00033FDD005D08BB005C08BA0077
:101DF2005B08B9005A08B8006430A0000030A100A6
:101E02006A08A200A301A21BA303A33128238D31D8
:101E120020002008DE002108DF00DE35DF0DDE3580
:101E2200DF0D5E08483EE00000305F3DE1003830E3
:101E320060078400A830613D8500003FE200013F59
:101E4200E300023FE400033FE5006508BF006408C9
:101E5200BE006308BD006208BC008831E4208D31F9
:101E620020003B08E9003A08E8003908E700380892
:101E7200E6000A30F2000030F3006A08F400F501CF
:101E8200F41BF503A131FD218D3173088500720821
:101E920084008435850D8435850D38308407A8305B
:101EA200853D003F2000D600013FD700023FD80009
:101EB200033FD9005908BB005808BA005708B900B7
:101EC2005608B8006908BF006808BE006708BD0070
:101ED2006608BC008831E42020003B08D5003A089F
:101EE200D4003908D3003808D20008006A08803AC2
:101EF200753E031CE22F0A30F2000030F3006A083C
:101F0200F400F501F41BF503A131FD218D317308B5
:101F12008500720884008435850D8435850D38303E
:101F22008407A830853D003F2000D600013FD7003E
:101F3200023FD800033FD9005908BB005808BA0035
:101F42005708B9005608B8000A30A0000030A100B6
:101F52006A08A200A301A21BA303A33128238D3187
:101F620020002008DA002108DB00DA35DB0DDA3543
:101F7200DB0D5A08243EDC0000305B3DDD003830CA
:101F82005C078400A8305D3D8500003FDE00013F14
:101F9200DF00023FE000033FE1006108BF0060088C
:101FA200BE005F08BD005E08BC008831E42020004E
:101FB2003B08D5003A08D4003908D3003808D200CB
:101FC20008006A08D600D701D635D70DD635D70D09
:101FD200383056078400A830573D8500003FD800AE
:101FE200013FD900023FDA00033FDB005B08D50066
:101FF2005A08D4005908D3005808D2000800F30048
:10200200F2013A30730203180C2830307302031CB9
:102012000C28F201F20A720C08002200B900FF300B
:102022002100E90069082200B80020308600023051
:102032008700203084000130850018302100E9003B
:1020420016001A00E90B2128A031CF209031200080
:10205200BB01BB0A20302100E90069082000BC0056
:1020620000309131012190312100EA006A082200FA
:10207200B8003808031D2828BA01BB013B08803A82
:102082002100E90080306902031D4A280C30220039
:102092003A0203180800BF302000BB008030BA00AB
:1020A2000030B9000030B80046302100D2001C30A8
:1020B200D1004030D0000030CF0022003A35203E1F
:1020C200860001308700403F2100E900413FEA00DD
:1020D20069082000AE0021006A082000AF00890DC7
:1020E200893B8909B000B1000130A631D026903178
:1020F200200031082100D600200030082100D50040
:1021020020002F082100D40020002E082100D30037
:1021120092318C229031210052082000BF00210010
:1021220051082000BE00210050082000BD002100FF
:102132004F082000BC008831E420903122003A0888
:102142002100EB000130EB35FF3E031DA4286B3567
:10215200220039072100EC006C088600013087005C
:1021620020003808C03F3908C13F3A08C23F3B0847
:10217200C33F22003A082100E9000130E935FF3E61
:10218200031DBF286935220039072100EA006A08C9
:10219200860001308700403FF200413FF300423F9A
:1021A200F400433FF5003D30F900CC30F800CC306C
:1021B200F700CD30F600A731662790310318FB28CF
:1021C20022003A082100E9000130E935FF3E031DF3
:1021D200E6286935220039072100EA006A088600EC
:1021E200013087000030C03F0030C13F0030C23FA5
:1021F2000030C33F01302200BA070030BB3D3F2808
:102202002000D100CA01D7015108031DCF29D601F0
:10221200D60A0530560203188A2AD7013B08BD00A8
:102222003D08AF004230BE003E08B0005608A4315F
:10223200202491312000D2013B0852020318CA29FE
:10224200D30152308400B0308500000853020318D5
:102252007F295708013E423E860087010108BD00E2
:10226200BE013D08BE00BD015708423E86008701FF
:1022720001083D07CB003E0803183E0ACC00183087
:10228200BD003D08F2005208AF31C1279131200054
:102292003C07BE005608FF3EF200FF300318003034
:1022A200F30052308400B03085000008BF00C00146
:1022B2003F08F4004008F500A03175209131720802
:1022C2002000530709073E07C1004108860001307C
:1022D20087004B08C03F4C08C13F5708023EBD0073
:1022E2003D08D7000130BD003D08D30752308400BD
:1022F200B030850000085302031C2A295708013E0A
:10230200423E860087010108BD00BE015708423ED9
:10231200860087010108BF00C0013F08C000BF015D
:102322003D083F07CD003E08403DCE0054308400BA
:10233200B03085000008BD003D08F2005208AF3100
:10234200C1279131423EF6000030F700533084003D
:10235200B03085000008A231D922913177082000DF
:10236200D0007608CF0050084E06031DBA294F0848
:102372004D060319C029FF30BD003D08CA005708A9
:10238200023EBD003D08D7000130BD003D08D20726
:102392001D290130BD003D08D6070A293B08BD00B2
:1023A2003D08AF004230BE003E08B0005108A431E3
:1023B200202491312000D4013B08540203188A2AB8
:1023C200D50152308400B030850000085502031850
:1023D2003F2A5708013E423E860087010108BD00A0
:1023E200BE013D08BE00BD015708423E860087017E
:1023F20001083D07CB003E0803183E0ACC00183006
:10240200BD003D08F2005408AF31C12791312000D0
:102412003C07BE005108FF3EF200FF3003180030B7
:10242200F30052308400B03085000008BF00C001C4
:102432003F08F4004008F500A03175209131720880
:102442002000550709073E07C100410886000130F8
:1024520087004B08C03F4C08C13F5708023EBD00F1
:102462003D08D7000130BD003D08D5075230840039
:10247200B030850000085502031CEA295708013EC6
:10248200423E860087010108BD00BE015708423E58
:10249200860087010108BF00C0013F08C000BF01DC
:1024A2003D083F07CD003E08403DCE005430840039
:1024B200B03085000008BD003D08F2005408AF317D
:1024C200C1279131423EF6000030F70053308400BC
:1024D200B03085000008A231D9229131770820005E
:1024E200D0007608CF0050084E06031D7A2A4F0806
:1024F2004D060319802AFF30BD003D08CA00570867
:10250200023EBD003D08D7000130BD003D08D407A2
:10251200DD294A080800210056088039D7005708EB
:10252200DC005635D7005708E700D51B671467084B
:102532000319A92A670A031DA62A0030D600003013
:10254200D5000030D4000030D300D517D601B12A0F
:102552000030D6000030D5000030D4000030D30067
:1025620052088039D7005708DC065235D700570881
:10257200E800D11B681468080319CD2A680A031DF4
:10258200CA2A0030D2000030D1000030D000003022
:10259200CF00D117D201D52A0030D2000030D100AD
:1025A2000030D0000030CF005208510450044F04D4
:1025B200031DF02A0030D6000030D5000030D400D0
:1025C2000030D3008030D5047F30D6045608D200C4
:1025D2005508D1005408D0005308CF0008006708FE
:1025E200031D042B0030D6000030D5000030D4008B
:1025F2000030D3005608D2005508D1005408D0004C
:102602005308CF0008006808D700D801D709D809B5
:10261200D70A0319D80A67085707D90058080318B8
:10262200580ADA0059087F3EE10000305A3DE200C4
:102632005608E0005508DF005408DE005308DD00AC
:102642000030D6000030D5000030D4000030D30076
:102652000030E6000030E5000030E4000030E30026
:10266200E8011A30680203186E2B68080319502B10
:102672000130DD35DE0DDF0DE00D890B3A2B013027
:10268200D335D40DD50DD60D890B412BE61B531432
:102692000130E335E40DE50DE60D890B4A2B5208B6
:1026A2006002031D5E2B51085F02031D5E2B500862
:1026B2005E02031D5E2B4F085D02031C692B661729
:1026C2004F08DD025008DE3B5108DF3B5208E03B79
:1026D2000130D7005708E807322B60085F045E0418
:1026E2005D04031D6314D51B8B2B0130D335D40D30
:1026F200D50DD60D890B772BE61B53140130E3352C
:10270200E40DE50DE60D890B802BFF30E107FF306C
:10271200E23D742BE801E61FA42BFF306305D700CE
:10272200FF306405D800FF306505D9007F306605AB
:10273200DA005A08590458045704031DA22B531CEB
:10274200A42BE801E80A68080319CD2B0130D3074E
:102752000030D43D0030D53D0030D63D561CCD2B47
:102762005308D7005408D8005508D9005608DA0093
:102772000130DB00DA37D90CD80CD70CDB0BBB2BC2
:102782005A08D6005908D5005808D4005708D30073
:102792000130E1070030E23D6208803AD700803024
:1027A2005702031DD62BFF306102031CE52BFF30BD
:1027B2002100E1000030E2000030D6000030D500F8
:1027C2000030D4000030D30021006208803AD700E4
:1027D20080305702031DEF2B013061020318FD2BDD
:1027E2002100E101E2010030D6000030D5000030C6
:1027F200D4000030D300DC0121006108D700570863
:10280200E700671C062CD5170A2C7F30D700570823
:10281200D5056736D7005708D6005C08D700570899
:10282200D6045608D2005508D1005408D0005308E7
:10283200CF0008002100A8006E302802031C1F2DC3
:102842000A302000A0000030A1002100280820004A
:10285200D600D7015608F4005708F5006430F2009C
:102862000030F300A131FD21943173082000A30050
:102872007208A200A3312823943120002008D80036
:102882002108D900D835D90DD835D90D5808243E9C
:10289200DA000030593DDB006C305A078400A83062
:1028A2005B3D8500003FDC00013FDD00023FDE00B2
:1028B200033FDF005F08BB005E08BA005D08B90095
:1028C2005C08B8006430A0000030A1002100280894
:1028D2002000E000E1016008A2006108A300A3312A
:1028E2002823943120002008E2002108E300E23589
:1028F200E30DE235E30D6208483EE4000030633D3B
:10290200E5006C3064078400A830653D8500003F17
:10291200E600013FE700023FE800033FE9006908E3
:10292200BF006808BE006708BD006608BC008831A9
:10293200E420943120003B082100A70020003A083F
:102942002100A600200039082100A5002000380837
:102952002100A4000A30F2000030F3002808200011
:10296200D600D7015608F4005708F500A131FD2121
:10297200943173088500720884008435850D84358E
:10298200850D6C308407A830853D003F2000D800BB
:10299200013FD900023FDA00033FDB005B08BB00C6
:1029A2005A08BA005908B9005808B8002100270887
:1029B2002000BF00210026082000BE0021002508BB
:1029C2002000BD00210024082000BC008831E42042
:1029D200943120003B082100A30020003A08210086
:1029E200A200200039082100A1002000380821009F
:1029F200A0003F302000BB000030BA000030B90018
:102A02000030B800210023082000BF002100220866
:102A12002000BE00210021082000BD002100200866
:102A22002000BC008831E42020003B08D5003A0891
:102A3200D4003908D3003808D20008000B30210036
:102A42002802031CBD2D0A30F2000030F3002808D2
:102A52002000D600D7015608F4005708F500A1312E
:102A6200FD21943173088500720884008435850D38
:102A72008435850D6C308407A830853D003F2000E9
:102A8200D800013FD900023FDA00033FDB005B08B8
:102A9200BB005A08BA005908B9005808B8000A30F1
:102AA200A0000030A100210028082000DC00DD0188
:102AB2005C08A2005D08A300A33128239431200002
:102AC2002008DE002108DF00DE35DF0DDE35DF0DF8
:102AD2005E08243EE00000305F3DE1006C3060079C
:102AE2008400A830613D8500003FE200013FE30021
:102AF200023FE400033FE5006508BF006408BE0032
:102B02006308BD006208BC008831E42094312000D3
:102B12003B082100A70020003A082100A60020005F
:102B220039082100A500200038082100A4003F3008
:102B32002000BB000030BA000030B9000030B800FD
:102B4200210027082000BF00210026082000BE0027
:102B5200210025082000BD00210024082000BC001F
:102B62008831E42020003B08D5003A08D400390817
:102B7200D3003808D20008003F302000BB000030EC
:102B8200BA000030B9000030B80021002808200047
:102B9200D600D701D635D70DD635D70D6C305607AE
:102BA2008400A830573D8500003FD800013FD9007E
:102BB200023FDA00033FDB005B08BF005A08BE0099
:102BC2005908BD005808BC008831E42020003B08A9
:102BD200D5003A08D4003908D3003808D2000800DA
:102BE20040302000BB00A030BA000030B9000030F5
:102BF200B80045302100D2008030D1000030D00032
:102C02000030CF0022002B082000AE0022002C084A
:102C12002000AF00890D893B8909B000B100013065
:102C2200A631D0269531200031082100D60020009F
:102C320030082100D50020002F082100D4002000F8
:102C42002E082100D30092318C22953121005208A6
:102C52002000BF00210051082000BE0021005008C2
:102C62002000BD0021004F082000BC008831E42074
:102C7200953120003B082200C80020003A082200BB
:102C8200C700200039082200C600200038082200B0
:102C9200C50040302100AC00A030AB000030AA00DB
:102CA2000030A900220048082000D5002200470871
:102CB2002000D400220046082000D300220045084C
:102CC2002000D200AF31892795312000550821001C
:102CD200B000200054082100AF002000530821005A
:102CE200AE00200052082100AD008B311023953137
:102CF20021002C08D2002B08D1002A08D000290874
:102D0200CF0046302000BB001C30BA004030B90072
:102D12000030B800220048082000BF002200470807
:102D22002000BE00220046082000BD002200450807
:102D32002000BC008831E420953120003B082100AE
:102D4200D60020003A082100D500200039082100D1
:102D5200D400200038082100D30092318C22953112
:102D6200210052082200BC00210051082200BB00B1
:102D7200210050082200BA0021004F082200B900A9
:102D82003C082100D60022003B082100D500220089
:102D92003A082100D400220039082100D30046302D
:102DA200D2001C30D1004030D0000030CF00923130
:102DB2008C22953121005208EC005108EB0050089A
:102DC200EA004F08E9009D31B825953121006C08D1
:102DD2002200C00021006B082200BF0021006A0807
:102DE2002200BE00210069082200BD004930840093
:102DF200B0308500003FAD00013FAE002D0820003D
:102E0200AE0022002E082000AF00890D893B8909FF
:102E1200B000B1000130A631D02695312000310832
:102E2200BF003008BE002F08BD002E08BC00453090
:102E32008400B0308500003F2200AF00013FB000A7
:102E4200023FB100033FB20032082000BB00220063
:102E520031082000BA00220030082000B900220008
:102E62002F082000B8008831E420953120003B086B
:102E72002100D60020003A082100D50020003908A0
:102E82002100D400200038082100D300220040088D
:102E92002000BF0022003F082000BE0022003E08A2
:102EA2002000BD0022003D082000BC004530840007
:102EB200B0308500003F2200B300013FB400023F62
:102EC200B500033FB60036082000BB0022003508DB
:102ED2002000BA00220034082000B9002200330882
:102EE2002000B8008831E420953120003B08210001
:102EF200B00020003A082100AF002000390821006C
:102F0200AE00200038082100AD0049308400B03006
:102F12008500003F2200B700013FB80037082000BB
:102F2200AE00220038082000AF00890D893B8909D4
:102F3200B000B1000130A631D02695312000310811
:102F42002100AC00200030082100AB0020002F0837
:102F52002100AA0020002E082100A9008B31102395
:102F6200953121002C08D2002B08D1002A08D0006C
:102F72002908CF0092318C2295312100520822007B
:102F8200C400210051082200C30021005008220081
:102F9200C20021004F082200C10044082100B000F5
:102FA200220043082100AF00220042082100AE00A7
:102FB200220041082100AD00C330AC008830AB00D4
:102FC2008030AA000030A9008B31102395312100F6
:102FD2002C082200A30021002B082200A2002100BD
:102FE2002A082200A100210029082200A000A53100
:102FF200C52522002108AC002008AB0008000034DF
:1030020000349934C534AB34CE3432340B34CF343B
:10301200D83456341D3464341634FD34D334073472
:10302200F4349E343134AC343A343534FF34C83459
:103032002C345134E9346334E234FA34273497348B
:10304200AD340E3468343C346334A534A634583479
:103052007534C134B034F334BB346A347E349034C2
:10306200593409349C343B349734A23452345F349B
:103072008134C6344434F4344F346D348A342E34BB
:103082005B34B7349E34853495341C345034E13487
:103092008334783446344A344D34D3348834293432
:1030A200AF34B0346A34823461341B34A434E6342D
:1030B20077347F34B2344D34B934D4347C34B934B7
:1030C200F63420343334123438348B34FD347634CD
:1030D2002E34EF34EB34DD34E03444342534BE3462
:1030E20002342734C7341534CC348C340934713467
:1030F200DA34E8341F34DA3414344334D134C53486
:10310200F3345C3436346E343D34F734F8340A34F4
:103112002B349334EE34A134E53438342034C234C1
:1031220007345B34C2346934C934F0340C340D349E
:10313200DF3494341A34A63411343F34D434523444
:103142005E34CB349B34F9349034603455349D343E
:1031520086340434433436344834AF348D345534F1
:10316200AA34CC346F34FE3464346734A1349A34D4
:1031720072340334B7343134BC34A8347934EB3488
:10318200A83472346D3440346634D934A3342434D0
:103192007034BD34B5348F34BE3416347B34EC34E1
:1031A2005C347534993447349234DE3457342334E2
:1031B2008434BA34413488344A3411348F347C3400
:1031C2000534E534C034D734CB344E340E34B33402
:1031D200DD342A341834183413348134D6347B3431
:1031E200F134E2343434D0343F344934FA34B43430
:1031F20029342D34EC341F34E7348634223413342A
:10320200A2348A346734B8346C342134A934DC34BF
:103212007A344534BF347734B434EE3471341434F0
:1032220056348D349334BF34983426345D34DB34D1
:103232008E3442344B3470344034E934853484342F
:103242000F341D34CA342F34C134B63404344B34F1
:10325200D734D2341234E03419347934DC34833440
:10326200FB341A343E3428343534B134F0344C341F
:103272002334D534E634E734ED347E3428343D3417
:10328200F934A4343C34963437340F34F234F23403
:1032920021346B34E4345934EF34C0342A343A34B0
:1032A2000D34A334C8349134C33408340634F534AD
:1032B200D5346C3410345E341B34C734DE34AA3453
:1032C20054343334913401349A3498345F3465344D
:1032D2008C34FC344934CE34423457348734AD34E0
:1032E200A0343434653406346E349F34AB346234E3
:1032F2007834FB34BD34C934B63450347334D634E4
:1033020051344F3494347D349F34E4345A34193474
:10331200893480344C34B23447342B348234D1343F
:10332200A534483460347A346B34E334AE341E341A
:103332007D348734B834B534B3342C3476344134E4
:10334200FC34D8343934EA3432347334F7348E34BA
:1033520024341734E1342534EA34BC342F3446346F
:103362000834DF34CD34ED34C63474340334893454
:10337200D0341034153422341E34BB34DB34F834E8
:103382000A346134CF345334C434CA340134373448
:10339200D234AE3417349C341C340534D934FF345F
:1033A200FE3466343B3454343034CD34F534303466
:1033B2002634A934E3349B34E83402342D346F3498
:1033C200A734F6346234C43469345D34AC34A03486
:1033D2007F343934BA340B34B134923474346834AF
:1033E2005334F1349634C3349D345A345834A734A8
:1033F2008B343E344E340C344534953480340034AE
:1034020000349934C534AB34CE3432340B34CF3437
:10341200D83456341D3464341634FD34D33407346E
:10342200F4349E343134AC343A343534FF34C83455
:103432002C345134E9346334E234FA342734973487
:10344200AD340E3468343C346334A534A634583475
:103452007534C134B034F334BB346A347E349034BE
:10346200593409349C343B349734A23452345F3497
:103472008134C6344434F4344F346D348A342E34B7
:103482005B34B7349E34853495341C345034E13483
:103492008334783446344A344D34D334883429342E
:1034A200AF34B0346A34823461341B34A434E63429
:1034B20077347F34B2344D34B934D4347C34B934B3
:1034C200F63420343334123438348B34FD347634C9
:1034D2002E34EF34EB34DD34E03444342534BE345E
:1034E20002342734C7341534CC348C340934713463
:1034F200DA34E8341F34DA3414344334D134C53482
:10350200F3345C3436346E343D34F734F8340A34F0
:103512002B349334EE34A134E53438342034C234BD
:1035220007345B34C2346934C934F0340C340D349A
:10353200DF3494341A34A63411343F34D434523440
:103542005E34CB349B34F9349034603455349D343A
:1035520086340434433436344834AF348D345534ED
:10356200AA34CC346F34FE3464346734A1349A34D0
:1035720072340334B7343134BC34A8347934EB3484
:10358200A83472346D3440346634D934A3342434CC
:103592007034BD34B5348F34BE3416347B34EC34DD
:1035A2005C347534993447349234DE3457342334DE
:1035B2008434BA34413488344A3411348F347C34FC
:1035C2000534E534C034D734CB344E340E34B334FE
:1035D200DD342A341834183413348134D6347B342D
:1035E200F134E2343434D0343F344934FA34B4342C
:1035F20029342D34EC341F34E73486342234133426
:10360200A2348A346734B8346C342134A934DC34BB
:103612007A344534BF347734B434EE3471341434EC
:1036220056348D349334BF34983426345D34DB34CD
:103632008E3442344B3470344034E934853484342B
:103642000F341D34CA342F34C134B63404344B34ED
:10365200D734D2341234E03419347934DC3483343C
:10366200FB341A343E3428343534B134F0344C341B
:103672002334D534E634E734ED347E3428343D3413
:10368200F934A4343C34963437340F34F234F234FF
:1036920021346B34E4345934EF34C0342A343A34AC
:1036A2000D34A334C8349134C33408340634F534A9
:1036B200D5346C3410345E341B34C734DE34AA344F
:1036C20054343334913401349A3498345F34653449
:1036D2008C34FC344934CE34423457348734AD34DC
:1036E200A0343434653406346E349F34AB346234DF
:1036F2007834FB34BD34C934B63450347334D634E0
:1037020051344F3494347D349F34E4345A34193470
:10371200893480344C34B23447342B348234D1343B
:10372200A534483460347A346B34E334AE341E3416
:103732007D348734B834B534B3342C3476344134E0
:10374200FC34D8343934EA3432347334F7348E34B6
:1037520024341734E1342534EA34BC342F3446346B
:103762000834DF34CD34ED34C63474340334893450
:10377200D0341034153422341E34BB34DB34F834E4
:103782000A346134CF345334C434CA340134373444
:10379200D234AE3417349C341C340534D934FF345B
:1037A200FE3466343B3454343034CD34F534303462
:1037B2002634A934E3349B34E83402342D346F3494
:1037C200A734F6346234C43469345D34AC34A03482
:1037D2007F343934BA340B34B134923474346834AB
:1037E2005334F1349634C3349D345A345834A734A4
:1037F2008B343E344E340C344534953480342200BC
:10380200DC001130D4000030D500A031FF209C3103
:10381200250021082200D500250020082200D4001E
:103822005C08A13179219C31250026082200D500AF
:10383200250025082200D400250024082200D700F4
:10384200250023082200D60025002208A2314222A8
:103852009C3125002A082200D700250029082200D1
:10386200D600250028082200D500250027082200BE
:10387200D400A0310F20080072082000A0007308B5
:10388200A1007408A2000310210D220DA300230839
:10389200A9002908031D562C0030F5000030F40061
:1038A2000030F3000030F20008007608A00077082C
:1038B200A1007808A2000310210D220DA300230805
:1038C200A8002808031D6E2C0030F5000030F4001B
:1038D2000030F3000030F2000800F317FF30F20569
:1038E200FF30F3050030F405F717FF30F605FF301F
:1038F200F7050030F8050030A7000030A6000030C0
:10390200A5000030A4007F30A90298302807A0004B
:103912002008A9021830A0002008A8000130A43510
:10392200A50DA60DA70D890B902C78087402031D16
:10393200A02C77087302031DA02C76087202031CC8
:10394200A92C7608F2027708F33B7808F43B24149A
:103952000130F235F30DF40D890BAA2C0130A802C7
:10396200031D8F2CA91FD12C2908803A973E0318DA
:10397200C32C0030F5000030F4000030F3000030BA
:10398200F20008000130A736A60CA50CA40C890B86
:10399200C42C0130A0002008A9070319EA2CC32C6B
:1039A20018302902031CE72C0030F5000030F40027
:1039B2000030F3000030F20008000130A435A50DFC
:1039C200A60DA70D890BDF2C0130A9022908031DC2
:1039D200DE2C2708F5002608F4002508F300240849
:1039E200F200080072082000A0007308A100740809
:1039F200A2007508A3000310220D230DA4002408C1
:103A0200AA002A08031D0E2D0030F5000030F40034
:103A12000030F3000030F20008007608A0007708BA
:103A2200A1007808A2007908A3000310220D230D3B
:103A3200A4002408A9002908031D282D0030F50040
:103A42000030F4000030F3000030F2000800F417F8
:103A5200FF30F205FF30F305FF30F4050030F505C5
:103A6200F817FF30F605FF30F705FF30F805003094
:103A7200F9050030A8000030A7000030A600003091
:103A8200A5007F30AA02A0302907A0002008AA02C0
:103A92002030A0002008A9000130A535A60DA70DF1
:103AA200A80D890B4E2D79087502031D622D780829
:103AB2007402031D622D77087302031D622D7608BE
:103AC2007202031C6D2D7608F2027708F33B780828
:103AD200F43B7908F53B25140130F235F30DF40D72
:103AE200F50D890B6E2D0130A902031D4D2DAA1F64
:103AF200962D2A08803A9F3E0318882D0030F50043
:103B02000030F4000030F3000030F2000800013011
:103B1200A836A70CA60CA50C890B892D0130A00094
:103B22002008AA070319AF2D882D20302A02031C72
:103B3200AC2D0030F5000030F4000030F30000300E
:103B4200F20008000130A535A60DA70DA80D890BBE
:103B5200A42D0130AA022A08031DA32D2808F5006E
:103B62002708F4002608F3002508F20008002100C7
:103B72006C08F5006B08F4006A08F3006908F200AB
:103B82000030F9000030F8000030F7000030F60095
:103B9200A73166279D310318DD2D21302300A400B3
:103BA2000030A50000302100EC000030EB000030B6
:103BB200EA000030E900080021006C086B046A0486
:103BC2006904031DF32D22302300A4000030A50058
:103BD20000302100EC000030EB000030EA00003041
:103BE200E9000800BF30AC008030AB000030AA0012
:103BF2000030A90040302000BB000030BA00003085
:103C0200B9000030B800EE302100ED006D08F6007A
:103C12006C08F5006B08F4006A08F3006908F2000A
:103C2200A1313B219D3175082000BF007408BE0000
:103C32007308BD007208BC008831E4209D31200069
:103C42003B082100B00020003A082100AF0020000C
:103C520039082100AE00200038082100AD008B3168
:103C620010239D3121002C08EC002B08EB002A08C0
:103C7200EA002908E900FF30EE07FF30EF3D6C084B
:103C8200C0006B08BF006A08BE006908BD000030B2
:103C9200C100A830C2000830C3000030C400A63101
:103CA20044269D3121004008EC003F08EB003E080D
:103CB200EA003D08E9006C08AC006B08AB006A083A
:103CC200AA006908A9003F302000BB003130BA00C9
:103CD2007230B9001830B80021006E082000AE0022
:103CE20021006F082000AF00890D893B8909B000CF
:103CF200B1000130A631D0269D3120003108BF002D
:103D02003008BE002F08BD002E08BC008831E42018
:103D12009D3120003B082100B00020003A0821001C
:103D2200AF00200039082100AE0020003808210031
:103D3200AD008B31102321002C08EC002B08EB0086
:103D42002A08EA002908E900080003302200C90015
:103D52000030CA00E030A53148259E3122004A08D1
:103D62002300A900220049082300A8002200D9014B
:103D7200DA015A08803AD60080305602031DC32E5B
:103D8200033059020318032F22005935E03E860002
:103D920001308700403FD600413FD7005708803AA4
:103DA200D80080305802031DD82E05305602031C5D
:103DB200EF2E22005935E03E860001308700403F59
:103DC200D600413FD7005708803AD80080305802C9
:103DD200031DED2E33305602031CF32E2200D401B4
:103DE200D501080001302200D9070030DA3D5A0817
:103DF200803AD60080305602031D012F033059024B
:103E0200031CC52EA2318D229E3122002B08E10017
:103E12002A08E0002908DF002808DE006108F50012
:103E22006008F4005F08F3005E08F200C030F90099
:103E32004030F8000030F7000030F600A731662766
:103E42009E31031C3A2F4030F5000030F400003060
:103E5200F3000030F20022006108F9006008F80067
:103E62005F08F7005E08F600A73166279E31031847
:103E72003E2F2200D401D5010800B03090310E202F
:103E82009E312200DB01DC015C08803AD6008030E2
:103E92005602031D4E2F0C305B020318A82F403030
:103EA200F5008830F4000030F3000030F200220008
:103EB2005B08D6000130D635FF3E031D5C2F563518
:103EC200B03E860001308700403FF600413FF700D8
:103ED200423FF800433FF900A73166279E31031C99
:103EE200942F22005B08D6000130D635FF3E031D19
:103EF200762F5635B03E860001308700403FF200F3
:103F0200413FF300423FF400433FF5004030F900E7
:103F12004C30F800CC30F700CD30F600A7316627E0
:103F22009E310318982F2200D401D50108000130D8
:103F32002200DB070030DC3D5C08803AD60080308E
:103F42005602031DA62F0C305B02031C502F423079
:103F52002100D6004930D5009930D4009A30D300E0
:103F62000C30BD000030BE00B030A43175249E314B
:103F720021004008D2003F08D1003E08D0003D0891
:103F8200CF0092318C229E31210052082000BF00C6
:103F9200210051082000BE00210050082000BD0071
:103FA20021004F082000BC004230BB00C830BA00DC
:103FB2000030B9000030B8008831E4209E31200082
:103FC2003B082200A30020003A082200A2002000A1
:103FD20039082200A100200038082200A000A531E3
:103FE200C525220021082300A70022002008230063
:0E3FF200A60001302200D4000030D5000800E7
:1040040023001E139E161E121E111D139D179C01C4
:1040140019309B0020001112080000302200AB0070
:10402400B030AC005708B0005608AF005508AE00D9
:104034005408AD0038308031A720A031AF316B2750
:10404400A0312100111E0800232821008D120C1418
:104054008C140C158C150D148D140D158D150D1651
:104064008F140F3023008C001F308D0002308F001E
:1040740021009D0160309E000F309F000800210048
:104084008D120C148C140C158C150D148D140D1527
:104094008D150D168F140F3023008C001F308D00EA
:1040A40002308F0021009D0160309E000F309F0080
:1040B40008002000A000A101200821020318080024
:1040C4002108F700F8017708750786007808763D1F
:1040D40087000108AF319E27A0310130F70077082F
:1040E4002000A1075E28F601F701721C7D287408E0
:1040F400F6077508F73D0130F435F50D890B7E2878
:104104000130F336F20C890B832872087304031D03
:1041140077287708F3007608F20008008030210041
:10412400C0064408AC004308AB004208AA0041089A
:10413400A9004008B0003F08AF003E08AE003D08AB
:10414400AD008B31102321002C08C0002B08BF00C8
:104154002A08BE002908BD0008002000A400A00110
:10416400A1017208F400F5017408A2007508A30007
:10417400241CC0282208A0072308A13D0130A23531
:10418400A30D890BC1280310A40C2408031DBA280D
:104194002108F3002008F200080022006608F90054
:1041A40079082000AF0022006708F9007908200090
:1041B400B0006630F6000130F7000230A231D92297
:1041C400A03177082000B4007608B3003408F90061
:1041D4007908B1003308F9007908B200AF318027BB
:1041E400A03122000F102F30F5000030F60004300B
:1041F400A0315B2022000F1408002200D901DA014B
:10420400D901DA015408FF3ED600FF30553DD700EE
:104214005A08803AD8005708803A5802031D1429D6
:104224005608590203182B293C302200AB00B03049
:10423400AC0038308031A720A031AF316B27A031DA
:104244002100111A222901302200D9070030DA3D59
:10425400042931302200AB00B030AC00383080315A
:10426400A720A031AF316B27A0312100111E080017
:1042740037297508740473047204031D50297608E1
:10428400860087010030C03FC13F0030F500003098
:10429400F4000030F3000030F200080075087F39A4
:1042A400F700F801F735F80D7608860087017708DE
:1042B400C03F7808C13F740D740D0139F700F8014F
:1042C40076088600870177088104413178088104E3
:1042D400760886008701823081074131FF30813DB5
:1042E4007F31750880393F38F500F4130800220047
:1042F400D800D901DA015A08803AD6005508803A24
:104304005602031D87295408590203180800223055
:104314002200AB00B030AC005908013EAD000030C3
:104324005A3DAE005908D6000130D635FF3E031D74
:10433400972956355807D70057088600013087005B
:10434400403FAF00413FB000423FB100433FB200A5
:1043540038308031A720A131AF316B27A131210042
:10436400111AB12901302200D9070030DA3D7D2924
:10437400200029082804270426040319F429AF017E
:10438400AF0AA91BD1290130A635A70DA80DA90D87
:10439400890BC6290130AE002E08AF07C3292908AE
:1043A4002D02031DDF2928082C02031DDF292708FD
:1043B4002B02031DDF2926082A02031CE9292608EB
:1043C400AA022708AB3B2808AC3B2908AD3B0130C7
:1043D400A936A80CA70CA60C890BEA290130AF0258
:1043E400031DD1292D08A9002C08A8002B08A7001B
:1043F4002A08A6000800F801F51F072AF409F509A0
:10440400F40A0319F50AF801F80AF31F0E2AF2094F
:10441400F309F20A0319F30A720873040319352A1B
:10442400F701F70AF31B202A0130F235F30D890B4B
:10443400172A0130F6007608F707142A7308750264
:10444400031D262A72087402031C2C2A7208F40223
:104454007308F53B0130F336F20C890B2D2A013039
:10446400F702031D202A780803193D2AF409F509E7
:10447400F40A0319F50A7508F3007408F200080039
:104484002200D900DA01DB015B08803AD800570822
:10449400803A5802031D502A56085A020318792AF2
:1044A40013302200AB00B030AC005A08013EAD001E
:1044B40000305B3DAE005A355907D80058088600D5
:1044C40001308700403FAF00413FB0006208383EF2
:1044D4008031A720A231AF316B27A2312100111AFC
:1044E400702A01302200DA070030DB3D462A2430EE
:1044F4002200AB00A830AC005508AE005408AD0053
:1045040038308031A720A231AF316B27A23121008E
:10451400111E0800892A7530A3317A23A23172084A
:104524002000AE007308AF00890D893B8909B000F3
:10453400B1000130A631D026A2312000310822007A
:10454400AF00200030082200AE0020002F08220017
:10455400AD0020002E082200AC002F082100EC0042
:1045640022002E082100EB0022002D082100EA0081
:1045740022002C082100E9008831012021006C0868
:104584002200AF0021006B082200AE0021006A085F
:104594002200AD00210069082200AC002F08AB0006
:1045A4002E08AA002D08A9002C08A8000800200045
:1045B400AB001030AD000030AE00AC012B082C0273
:1045C4000318232B2C08A000A101200876078600DD
:1045D4002108773D87000108A200A3012E08A50049
:1045E4002D08A4000730A600250DA50CA40CA60BCD
:1045F400F62A22082406A70023082506A800FF306F
:104604002705A90000302805AA002A0885002908E2
:1046140084008435850D003084079830853D003F43
:10462400A000013FA1002D08A300A201200822063A
:10463400AD0021082306AE000130A0002008AC071D
:10464400E02A2D35F6002E0DF70008002000A50104
:10465400A11F332BA009A109A00A0319A10AA501CE
:10466400A50AA31F3E2BA209A309A20A0319A30AA0
:104674000130F9007908A506A601A7012008210444
:1046840003196D2BA401A40AA11B522B0130A035E0
:10469400A10D890B492B0130F9007908A407462B99
:1046A4000130A635A70D890B532B21082302031DC6
:1046B4005D2B20082202031C642B2008A20221087F
:1046C400A33B26140130A136A00C890B652B0130C5
:1046D400A402031D522B25080319752BA609A7094B
:1046E400A60A0319A70A2708A1002608A0000800A3
:1046F4002000A7002708A000A00DA00D21001D0880
:10470400200020068339200621009D001D14283036
:10471400890B8A2B21009D149D188E2B1C082000C8
:10472400A000A1012008A8002108A90021001B085D
:104734002000A000A1012008AA002108AB002B083A
:10474400A1002A08A0000430A200210DA10CA00C95
:10475400A20BA72BFF302005A3000F302105A400D6
:104764002908A6002808A500A50EA60EF030A60567
:1047740025080F39A604F030A50523082504AC004C
:1047840024082604AD0021001D1020002D08F3008C
:104794002C08F200080000302000A4000030A30020
:1047A4000030A2000030A100750874047304720480
:1047B4000319172CA501A50AF51BEC2B0130F235C2
:1047C400F30DF40DF50D890BE12B0130A000200849
:1047D400A507DE2B0130A135A20DA30DA40D890B75
:1047E400ED2B75087902031D012C74087802031D52
:1047F400012C73087702031D012C72087602031C36
:104804000C2C7208F6027308F73B7408F83B750821
:10481400F93B21140130F536F40CF30CF20C890B3E
:104824000D2C0130A502031DEC2B2408F5002308F0
:10483400F4002208F3002108F20008002000BA0066
:104844003A03031D272C0430382C02303A06031D8A
:104854002D2C0630382C03303A06031D332C083037
:10486400382C04303A06031D3C2C0A30B1003108C0
:10487400B700B6013630F6000030F7000230A2313E
:10488400D922A43177082000B5007608B400350891
:10489400B1003108B8003408B1003108B900AF31B3
:1048A4008027A43122000F1004302000B100310809
:1048B400F6003008F7000030F8002F08B200320884
:1048C400F20051308400B03085000008AF31C127B8
:1048D400A4312000B3003308F90036308731C927EA
:1048E40022000F1408002100C1000030C500003070
:1048F400C4000030C3000030C200C601C70147082D
:10490400803A2000EE0021003E08803A20006E022A
:10491400031D8F2C21003D0846020318C52C2100DD
:1049240046082000EE000130EE35FF3E031D962CB4
:104934006E35210041072000EF006F08860001302A
:104944008700403F2100A900413FAA00423FAB003D
:10495400433FAC004508B0004408AF004308AE0034
:104964004208AD008B311023A43121002C08C5006E
:104974002B08C4002A08C3002908C2000130C60756
:104984000030C73D812C21004508C0004408BF0009
:104994004308BE004208BD000800AF31E927A43136
:1049A40022008F120F1220000C1CE32C9E31A6262D
:1049B400A43122005408DD00DD0E0F085D06EF3936
:1049C400EE2C9E31A626A43122005408DD00DD0E13
:1049D400DD0D0F085D06DF395D068F000330220010
:1049E400C9000030CA00E030A5314825A4312200B6
:1049F4004A082300A900220049082300A8002A032A
:104A04002B04031D152DA2318D22A43122002B0865
:104A1400E1002A08E0002908DF002808DE000F086A
:104A24002300AA01AB012C032D04031DF02C0C3030
:104A34002500A0000030A100E0302200DD005D0868
:104A44002500A2000330A3000030A400230029089D
:104A54002500A600230028082500A50022006108DF
:104A64002500AA00220060082500A90022005F0892
:104A74002500A80022005E082500A700B0309C3164
:104A84000024A4312300AC01AD01F02C2200D1009C
:104A9400CF01D0018D1223006608A3317A23A531FA
:104AA40073082200AC007208AB009531F125A531E2
:104AB40022002C08D0002B08CF00510886000130BA
:104AC40087004F08C03F5008C13F0130D20000307A
:104AD400D3005308803ACB004A08803A4B02031DA6
:104AE400752D490852020318BE2D22005208E63ED5
:104AF4008600013087000108A3317A23A5317308A9
:104B04002200AC007208AB009531F125A5312200DA
:104B140052355107CB004B088600013087002B0823
:104B2400C03F2C08C13F52355107CB004B088600CB
:104B340001308700403FCC00413FCD005008803A0F
:104B4400CE004D08803A4E02031DAA2D4C084F0298
:104B54000318B82D220052355107CB004B088600AC
:104B640001308700403FCF00413FD0000130220098
:104B7400D2070030D33D6B2D22008D165008CA0099
:104B84004F08C900080022002008A4002108A5003D
:104B94002208A6002308A7000310260D270DA8004D
:104BA4002808AA002A08031DE02D0030A3000030C5
:104BB400A2000030A1000030A00008002008A400DA
:104BC4002108A5002208A6002308A7001F30A73645
:104BD400A60CA50CA40C890BE92D2408A800280810
:104BE400A900A217FF30A005FF30A105FF30A205E0
:104BF4000030A3059630AA02AA1F1C2E2A08803A68
:104C0400973E03180E2E0030A3000030A20000309F
:104C1400A1000030A00008000130A336A20CA10CB2
:104C2400A00C890B0F2E0130A4002408AA07031935
:104C3400352E0E2E20302A02031C322E0030A30003
:104C44000030A2000030A1000030A00008000130B4
:104C5400A035A10DA20DA30D890B2A2E0130AA02A5
:104C64002A08031D292E290803190800A009A109EF
:104C7400A209A309A00A0319A10A0319A20A031984
:104C8400A30A080021004408C6004308C500C5352E
:104C9400C60DC535C60D4108450784004208463D8A
:104CA4008500003FC700013FC800023FC900033F21
:104CB400CA004A08CE004908CD004808CC0047087D
:104CC400CB00430844040319C72EFF30C307FF3049
:104CD400C43D4408C6004308C500C535C60DC535E6
:104CE400C60D4108450784004208463D8500003F43
:104CF400C700013FC800023FC900033FCA004A0879
:104D0400AC004908AB004808AA004708A9004E08AF
:104D14002000BB0021004D082000BA0021004C08EF
:104D24002000B90021004B082000B80021004008F1
:104D34002000BF0021003F082000BE0021003E08E3
:104D44002000BD0021003D082000BC008831E42083
:104D5400A63120003B082100B00020003A082100C1
:104D6400AF00200039082100AE00200038082100DF
:104D7400AD008B311023A63121002C08CE002B0866
:104D8400CD002A08CC002908622E4E08C0004D0828
:104D9400BF004C08BE004B08BD0008002000B20054
:104DA4003208031DB11FE62E2E09B4002F09B500E9
:104DB4003009B6003109B700B40A0319B50A03195A
:104DC400B60A0319B70AEE2E3108B7003008B60048
:104DD4002F08B5002E08B400310830042F042E0427
:104DE400031DFD2E0030B1000030B0000030AF00D4
:104DF4000030AE0008009630F4007408B300FE30B2
:104E040037050319242F0130F4007408B307013067
:104E1400B736B60CB50CB40C890B0A2F012F013030
:104E2400F4007408B3070130B4070030B53D003016
:104E3400B63D0030B73D0130B736B60CB50CB40CF6
:104E4400890B1E2FFF3037050319322F112F013024
:104E5400B3020130B435B50DB60DB70D890B2C2F47
:104E6400B61B382F023033020318292F3318422F70
:104E7400FF30B405FF30B5057F30B605FF30B70508
:104E84000310B30C3308F400F501F601F7011830F0
:104E9400F435F50DF60DF70D890B4A2F7408B4049B
:104EA4007508B5047608B6047708B7043208031DFC
:104EB400B11F5D2FB7173708B1003608B0003508A9
:104EC400AF003408AE000800003072052000A000D6
:104ED40000307305A10080307405A2007F30750591
:104EE400A3002308220421042004031D812F003081
:104EF400F5000030F4000030F3000030F200003020
:104F04007605A00000307705A10080307805A20066
:104F14007F307905A3002308220421042004031D03
:104F24009B2F0030F9000030F8000030F70000300B
:104F3400F600F51FC42F0030A0000030A10000309F
:104F4400A2008030A3007209A4007309A5007409AB
:104F5400A6007509A700A40A0319A50A0319A60A3D
:104F64000319A70A2408A0072508A13D2608A23D85
:104F74002708A33D2308F5002208F4002108F300C4
:104F84002008F200F91FED2F0030A0000030A1002E
:104F94000030A2008030A3007609A4007709A500A0
:104FA4007809A6007909A700A40A0319A50A031918
:104FB400A60A0319A70A2408A0072508A13D260864
:104FC400A23D2708A33D2308F9002208F800210880
:104FD400F7002008F6008030F5068030F9067908DD
:104FE4007502031D080078087402031D0800770881
:104FF4007302031D080076087202080000340034AE
:1050040000340034C434FF347F343F348034EF340C
:10501400FF34BE349034E134A9343E34EC34823469
:105024007634BE348234AD342B343E340E343C34C6
:10503400C334BD348734D13413343D3441347834EB
:10504400D334BB34483469346734683465347334D6
:1050540074342034543465346D3470343A34203428
:105064002534693443340A340D34003400340034B4
:1050740080343F340034003420344134003400346C
:10508400C8344234003400347A3444340034403474
:105094001C34463400345034C3344734003424348C
:1050A400743449348034963418344B342034BC344A
:1050B400BE344C3428346B346E344E34F9340234F8
:1050C40015345034EC347834AD346034CA34F234AA
:1050D400493471340034003480343F34CD34CC341A
:1050E400CC343D340A34D73423343C346F34123452
:1050F40083343A341734B734D1343834AC34C53407
:1051040027343734BD343734863435349534BF349A
:10511400D63433347734CC342B3432345F34703473
:1051240089343034FF34E634DB342E340834E53447
:105134003C341E3460344234A2340D34013400341F
:10514400003400340A34003400340034643400344D
:1051540000340034E8340334003400341034273489
:1051640000340034A03486340134003440344234F2
:105174000F34003480349634983400340034E134ED
:0C518400F53405340034CA349A343B344E
:105ED000210011120800210011160800863021004F
:105EE00095008B160800AF316E27AF31AF31932785
:105EF00008000C340A34083409340B348D3414345B
:105F000022000F100530890B832F000022000F1490
:105F100008002000550854045304520403190800D3
:105F20008030D5060800063025009A002100911423
:105F3000FE3020009B004F309C000800F4007408E5
:105F400024009100141CA22F1108F2007208F30023
:105F50000800F300730824009100141CAD2F1108F1
:105F6000F2007208F4007408080064008001013136
:105F70000130FE020030FF3B7F087E04031900342D
:105F8000B62FF500F401751CC92F7208F3007308D1
:105F9000F4070310F20D0310F50C7508031DC32F51
:105FA0007408080021008E120E168E110F102200A8
:105FB0000F149D121D129D1124001712941714170F
:105FC00012309500210091152000911124009516A2
:105FD000080021008F130F128F120C14AF3173279A
:105FE000AF318B170B1721000F1120000F15A031B7
:105FF0004120AF31A0310220AF31AF31D2270800AC
:10600000633475347234723465346E3474342034CD
:106010003D342034253430342E3432346634413427
:106020000A340D340034543465346D3470342534FE
:10603000693420343D3420342534693443340A34FF
:106040000D34003456342534693420343D34203442
:10605000253430342E343234663456340A340D3418
:1060600000341B345B3432344B3420341B345B3407
:10607000413420340D3400341B345B3432344B341F
:1060800020341B345B3441340034333413349534BE
:10609000433489340F340834063408340334063466
:0A60A00008340834033406340834D1
:020000040001F9
:04000E00E2EFFFDF3F
:00000001FF
